{
  "contractName": "Prophecy",
  "abi": [
    {
      "inputs": [],
      "payable": false,
      "stateMutability": "nonpayable",
      "type": "constructor"
    },
    {
      "anonymous": false,
      "inputs": [
        {
          "indexed": true,
          "internalType": "bytes",
          "name": "deviceID",
          "type": "bytes"
        },
        {
          "indexed": true,
          "internalType": "address",
          "name": "claimer",
          "type": "address"
        },
        {
          "indexed": false,
          "internalType": "uint256",
          "name": "amount",
          "type": "uint256"
        }
      ],
      "name": "Claimed",
      "type": "event"
    },
    {
      "anonymous": false,
      "inputs": [
        {
          "indexed": true,
          "internalType": "address",
          "name": "previousOwner",
          "type": "address"
        },
        {
          "indexed": true,
          "internalType": "address",
          "name": "newOwner",
          "type": "address"
        }
      ],
      "name": "OwnershipTransferred",
      "type": "event"
    },
    {
      "anonymous": false,
      "inputs": [],
      "name": "Pause",
      "type": "event"
    },
    {
      "anonymous": false,
      "inputs": [
        {
          "indexed": true,
          "internalType": "bytes",
          "name": "deviceID",
          "type": "bytes"
        },
        {
          "indexed": true,
          "internalType": "address",
          "name": "owner",
          "type": "address"
        }
      ],
      "name": "Registered",
      "type": "event"
    },
    {
      "anonymous": false,
      "inputs": [
        {
          "indexed": true,
          "internalType": "bytes",
          "name": "deviceID",
          "type": "bytes"
        },
        {
          "indexed": true,
          "internalType": "address",
          "name": "subscriber",
          "type": "address"
        },
        {
          "indexed": false,
          "internalType": "uint256",
          "name": "startHeight",
          "type": "uint256"
        },
        {
          "indexed": false,
          "internalType": "uint256",
          "name": "duration",
          "type": "uint256"
        },
        {
          "indexed": false,
          "internalType": "uint256",
          "name": "income",
          "type": "uint256"
        }
      ],
      "name": "Subscribed",
      "type": "event"
    },
    {
      "anonymous": false,
      "inputs": [],
      "name": "Unpause",
      "type": "event"
    },
    {
      "anonymous": false,
      "inputs": [
        {
          "indexed": true,
          "internalType": "bytes",
          "name": "deviceID",
          "type": "bytes"
        },
        {
          "indexed": true,
          "internalType": "address",
          "name": "owner",
          "type": "address"
        }
      ],
      "name": "Updated",
      "type": "event"
    },
    {
      "constant": true,
      "inputs": [
        {
          "internalType": "bytes32",
          "name": "",
          "type": "bytes32"
        }
      ],
      "name": "allowedIDHashes",
      "outputs": [
        {
          "internalType": "bool",
          "name": "",
          "type": "bool"
        }
      ],
      "payable": false,
      "stateMutability": "view",
      "type": "function"
    },
    {
      "constant": true,
      "inputs": [
        {
          "internalType": "uint256",
          "name": "",
          "type": "uint256"
        }
      ],
      "name": "deviceIDs",
      "outputs": [
        {
          "internalType": "bytes",
          "name": "",
          "type": "bytes"
        }
      ],
      "payable": false,
      "stateMutability": "view",
      "type": "function"
    },
    {
      "constant": true,
      "inputs": [
        {
          "internalType": "bytes",
          "name": "",
          "type": "bytes"
        }
      ],
      "name": "devices",
      "outputs": [
        {
          "internalType": "bytes",
          "name": "devicePublicKey",
          "type": "bytes"
        },
        {
          "internalType": "address",
          "name": "owner",
          "type": "address"
        },
        {
          "internalType": "uint256",
          "name": "freq",
          "type": "uint256"
        },
        {
          "internalType": "string",
          "name": "spec",
          "type": "string"
        },
        {
          "internalType": "uint256",
          "name": "pricePerBlock",
          "type": "uint256"
        },
        {
          "internalType": "uint256",
          "name": "settledBalance",
          "type": "uint256"
        },
        {
          "internalType": "uint256",
          "name": "pendingBalance",
          "type": "uint256"
        },
        {
          "internalType": "uint256",
          "name": "startHeight",
          "type": "uint256"
        },
        {
          "internalType": "bytes32",
          "name": "storageEPoint",
          "type": "bytes32"
        },
        {
          "internalType": "string",
          "name": "storageToken",
          "type": "string"
        },
        {
          "internalType": "uint256",
          "name": "duration",
          "type": "uint256"
        }
      ],
      "payable": false,
      "stateMutability": "view",
      "type": "function"
    },
    {
      "constant": true,
      "inputs": [],
      "name": "maxDuration",
      "outputs": [
        {
          "internalType": "uint256",
          "name": "",
          "type": "uint256"
        }
      ],
      "payable": false,
      "stateMutability": "view",
      "type": "function"
    },
    {
      "constant": true,
      "inputs": [],
      "name": "owner",
      "outputs": [
        {
          "internalType": "address",
          "name": "",
          "type": "address"
        }
      ],
      "payable": false,
      "stateMutability": "view",
      "type": "function"
    },
    {
      "constant": false,
      "inputs": [],
      "name": "pause",
      "outputs": [],
      "payable": false,
      "stateMutability": "nonpayable",
      "type": "function"
    },
    {
      "constant": true,
      "inputs": [],
      "name": "paused",
      "outputs": [
        {
          "internalType": "bool",
          "name": "",
          "type": "bool"
        }
      ],
      "payable": false,
      "stateMutability": "view",
      "type": "function"
    },
    {
      "constant": true,
      "inputs": [],
      "name": "registrationFee",
      "outputs": [
        {
          "internalType": "uint256",
          "name": "",
          "type": "uint256"
        }
      ],
      "payable": false,
      "stateMutability": "view",
      "type": "function"
    },
    {
      "constant": true,
      "inputs": [],
      "name": "registrationFeeTotal",
      "outputs": [
        {
          "internalType": "uint256",
          "name": "",
          "type": "uint256"
        }
      ],
      "payable": false,
      "stateMutability": "view",
      "type": "function"
    },
    {
      "constant": true,
      "inputs": [],
      "name": "subscriptionFee",
      "outputs": [
        {
          "internalType": "uint256",
          "name": "",
          "type": "uint256"
        }
      ],
      "payable": false,
      "stateMutability": "view",
      "type": "function"
    },
    {
      "constant": true,
      "inputs": [],
      "name": "subscriptionFeeTotal",
      "outputs": [
        {
          "internalType": "uint256",
          "name": "",
          "type": "uint256"
        }
      ],
      "payable": false,
      "stateMutability": "view",
      "type": "function"
    },
    {
      "constant": false,
      "inputs": [
        {
          "internalType": "address",
          "name": "newOwner",
          "type": "address"
        }
      ],
      "name": "transferOwnership",
      "outputs": [],
      "payable": false,
      "stateMutability": "nonpayable",
      "type": "function"
    },
    {
      "constant": false,
      "inputs": [],
      "name": "unpause",
      "outputs": [],
      "payable": false,
      "stateMutability": "nonpayable",
      "type": "function"
    },
    {
      "constant": false,
      "inputs": [
        {
          "internalType": "uint256",
          "name": "fee",
          "type": "uint256"
        }
      ],
      "name": "setRegistrationFee",
      "outputs": [],
      "payable": false,
      "stateMutability": "nonpayable",
      "type": "function"
    },
    {
      "constant": false,
      "inputs": [
        {
          "internalType": "uint256",
          "name": "fee",
          "type": "uint256"
        }
      ],
      "name": "setSubscriptionFee",
      "outputs": [],
      "payable": false,
      "stateMutability": "nonpayable",
      "type": "function"
    },
    {
      "constant": false,
      "inputs": [
        {
          "internalType": "bytes32",
          "name": "_deviceIdHash",
          "type": "bytes32"
        }
      ],
      "name": "preRegisterDevice",
      "outputs": [
        {
          "internalType": "bool",
          "name": "",
          "type": "bool"
        }
      ],
      "payable": false,
      "stateMutability": "nonpayable",
      "type": "function"
    },
    {
      "constant": false,
      "inputs": [
        {
          "internalType": "bytes",
          "name": "_deviceId",
          "type": "bytes"
        },
        {
          "internalType": "bytes",
          "name": "_devicePublicKey",
          "type": "bytes"
        },
        {
          "internalType": "uint256",
          "name": "_freq",
          "type": "uint256"
        },
        {
          "internalType": "string",
          "name": "_spec",
          "type": "string"
        },
        {
          "internalType": "uint256",
          "name": "_price",
          "type": "uint256"
        }
      ],
      "name": "registerDevice",
      "outputs": [
        {
          "internalType": "bool",
          "name": "",
          "type": "bool"
        }
      ],
      "payable": true,
      "stateMutability": "payable",
      "type": "function"
    },
    {
      "constant": false,
      "inputs": [
        {
          "internalType": "bytes",
          "name": "_deviceId",
          "type": "bytes"
        },
        {
          "internalType": "bytes",
          "name": "_devicePublicKey",
          "type": "bytes"
        },
        {
          "internalType": "uint256",
          "name": "_freq",
          "type": "uint256"
        },
        {
          "internalType": "string",
          "name": "_spec",
          "type": "string"
        },
        {
          "internalType": "uint256",
          "name": "_price",
          "type": "uint256"
        }
      ],
      "name": "updateDevice",
      "outputs": [
        {
          "internalType": "bool",
          "name": "",
          "type": "bool"
        }
      ],
      "payable": false,
      "stateMutability": "nonpayable",
      "type": "function"
    },
    {
      "constant": false,
      "inputs": [
        {
          "internalType": "bytes",
          "name": "_deviceId",
          "type": "bytes"
        },
        {
          "internalType": "bytes32",
          "name": "_storageEPoint",
          "type": "bytes32"
        },
        {
          "internalType": "string",
          "name": "_storageToken",
          "type": "string"
        },
        {
          "internalType": "uint256",
          "name": "_duration",
          "type": "uint256"
        }
      ],
      "name": "subscribe",
      "outputs": [
        {
          "internalType": "bool",
          "name": "",
          "type": "bool"
        }
      ],
      "payable": true,
      "stateMutability": "payable",
      "type": "function"
    },
    {
      "constant": false,
      "inputs": [
        {
          "internalType": "bytes",
          "name": "_deviceId",
          "type": "bytes"
        }
      ],
      "name": "claim",
      "outputs": [
        {
          "internalType": "bool",
          "name": "",
          "type": "bool"
        }
      ],
      "payable": false,
      "stateMutability": "nonpayable",
      "type": "function"
    },
    {
      "constant": false,
      "inputs": [],
      "name": "collectFees",
      "outputs": [
        {
          "internalType": "bool",
          "name": "",
          "type": "bool"
        }
      ],
      "payable": false,
      "stateMutability": "nonpayable",
      "type": "function"
    },
    {
      "constant": true,
      "inputs": [
        {
          "internalType": "uint256",
          "name": "_offset",
          "type": "uint256"
        },
        {
          "internalType": "uint8",
          "name": "limit",
          "type": "uint8"
        }
      ],
      "name": "getDeviceByID",
      "outputs": [
        {
          "internalType": "uint256",
          "name": "count",
          "type": "uint256"
        },
        {
          "internalType": "bytes[]",
          "name": "ids",
          "type": "bytes[]"
        }
      ],
      "payable": false,
      "stateMutability": "view",
      "type": "function"
    },
    {
      "constant": true,
      "inputs": [
        {
          "internalType": "bytes",
          "name": "_deviceId",
          "type": "bytes"
        }
      ],
      "name": "getDeviceByID",
      "outputs": [
        {
          "internalType": "bytes",
          "name": "",
          "type": "bytes"
        },
        {
          "internalType": "address",
          "name": "",
          "type": "address"
        },
        {
          "internalType": "uint256",
          "name": "",
          "type": "uint256"
        },
        {
          "internalType": "string",
          "name": "",
          "type": "string"
        },
        {
          "internalType": "uint256",
          "name": "",
          "type": "uint256"
        },
        {
          "internalType": "uint256",
          "name": "",
          "type": "uint256"
        },
        {
          "internalType": "uint256",
          "name": "",
          "type": "uint256"
        },
        {
          "internalType": "uint256",
          "name": "",
          "type": "uint256"
        },
        {
          "internalType": "bytes32",
          "name": "",
          "type": "bytes32"
        },
        {
          "internalType": "string",
          "name": "",
          "type": "string"
        },
        {
          "internalType": "uint256",
          "name": "",
          "type": "uint256"
        }
      ],
      "payable": false,
      "stateMutability": "view",
      "type": "function"
    }
  ],
  "bytecode": "0x608060405260008060146101000a81548160ff02191690831515021790555034801561002a57600080fd5b50336000806101000a81548173ffffffffffffffffffffffffffffffffffffffff021916908373ffffffffffffffffffffffffffffffffffffffff1602179055506139f38061007a6000396000f3fe6080604052600436106101405760003560e01c80638da5cb5b116100b6578063c87965721161006f578063c879657214610463578063cc9e7d771461048e578063e0f37616146104cb578063ef5d2ad614610508578063f2fde38b1461054f578063f3d728f11461057857610140565b80638da5cb5b1461031d5780638eceadbc146103485780639c7be6b014610378578063a450f35f146103b6578063c320c727146103fd578063c63ff8dd1461042657610140565b80635c975abb116101085780635c975abb1461021a5780635f58b963146102455780636ac84956146102755780636db5c8fd1461029e5780637ca4d124146102c95780638456cb591461030657610140565b80630a00eba8146101455780630aa0a1751461017057806314c44e091461019b57806330425cc4146101c65780633f4ba83a14610203575b600080fd5b34801561015157600080fd5b5061015a6105a3565b60405161016791906136cc565b60405180910390f35b34801561017c57600080fd5b506101856105a9565b60405161019291906136cc565b60405180910390f35b3480156101a757600080fd5b506101b06105af565b6040516101bd91906136cc565b60405180910390f35b3480156101d257600080fd5b506101ed60048036036101e89190810190612cc5565b6105b5565b6040516101fa919061334a565b60405180910390f35b34801561020f57600080fd5b5061021861066e565b005b34801561022657600080fd5b5061022f610728565b60405161023c919061332f565b60405180910390f35b61025f600480360361025a9190810190612b73565b61073b565b60405161026c919061332f565b60405180910390f35b34801561028157600080fd5b5061029c60048036036102979190810190612cc5565b610bd9565b005b3480156102aa57600080fd5b506102b3610c3c565b6040516102c091906136cc565b60405180910390f35b3480156102d557600080fd5b506102f060048036036102eb9190810190612ac8565b610c43565b6040516102fd919061332f565b60405180910390f35b34801561031257600080fd5b5061031b610d4e565b005b34801561032957600080fd5b50610332610e0a565b60405161033f9190613314565b60405180910390f35b610362600480360361035d9190810190612c06565b610e2f565b60405161036f919061332f565b60405180910390f35b34801561038457600080fd5b5061039f600480360361039a9190810190612cee565b6112a2565b6040516103ad9291906136e7565b60405180910390f35b3480156103c257600080fd5b506103dd60048036036103d89190810190612af1565b61140b565b6040516103f49b9a9998979695949392919061342c565b60405180910390f35b34801561040957600080fd5b50610424600480360361041f9190810190612cc5565b611663565b005b34801561043257600080fd5b5061044d60048036036104489190810190612b32565b6116c6565b60405161045a919061332f565b60405180910390f35b34801561046f57600080fd5b50610478611aa0565b604051610485919061332f565b60405180910390f35b34801561049a57600080fd5b506104b560048036036104b09190810190612ac8565b611b6f565b6040516104c2919061332f565b60405180910390f35b3480156104d757600080fd5b506104f260048036036104ed9190810190612c06565b611b8f565b6040516104ff919061332f565b60405180910390f35b34801561051457600080fd5b5061052f600480360361052a9190810190612b32565b612152565b6040516105469b9a9998979695949392919061336c565b60405180910390f35b34801561055b57600080fd5b5061057660048036036105719190810190612a9f565b6124fb565b005b34801561058457600080fd5b5061058d61264c565b60405161059a91906136cc565b60405180910390f35b60075481565b60055481565b60045481565b600181815481106105c257fe5b906000526020600020016000915090508054600181600116156101000203166002900480601f0160208091040260200160405190810160405280929190818152602001828054600181600116156101000203166002900480156106665780601f1061063b57610100808354040283529160200191610666565b820191906000526020600020905b81548152906001019060200180831161064957829003601f168201915b505050505081565b6000809054906101000a900473ffffffffffffffffffffffffffffffffffffffff1673ffffffffffffffffffffffffffffffffffffffff163373ffffffffffffffffffffffffffffffffffffffff16146106c757600080fd5b600060149054906101000a900460ff166106e057600080fd5b60008060146101000a81548160ff0219169083151502179055507f7805862f689e2f13df9f062ff482ad3ad112aca9e0847911ed832e158c525b3360405160405180910390a1565b600060149054906101000a900460ff1681565b60008060149054906101000a900460ff161561075657600080fd5b600060028660405161076891906132fd565b9081526020016040518091039020600001805460018160011615610100020316600290049050116107ce576040517f08c379a00000000000000000000000000000000000000000000000000000000081526004016107c59061352c565b60405180910390fd5b6000801b841415610814576040517f08c379a000000000000000000000000000000000000000000000000000000000815260040161080b9061362c565b60405180910390fd5b6000835111610858576040517f08c379a000000000000000000000000000000000000000000000000000000000815260040161084f9061350c565b60405180910390fd5b60008211801561086b57506217bb008211155b6108aa576040517f08c379a00000000000000000000000000000000000000000000000000000000081526004016108a19061356c565b60405180910390fd5b6108de6002866040516108bd91906132fd565b9081526020016040518091039020600401548361265290919063ffffffff16565b60055401341015610924576040517f08c379a000000000000000000000000000000000000000000000000000000000815260040161091b9061368c565b60405180910390fd5b4360028660405161093591906132fd565b9081526020016040518091039020600a015460028760405161095791906132fd565b9081526020016040518091039020600701540110156109ab576040517f08c379a00000000000000000000000000000000000000000000000000000000081526004016109a29061366c565b60405180910390fd5b600554600760008282540192505081905550436002866040516109ce91906132fd565b908152602001604051809103902060070181905550836002866040516109f491906132fd565b90815260200160405180910390206008018190555082600286604051610a1a91906132fd565b90815260200160405180910390206009019080519060200190610a3e9291906126b7565b5081600286604051610a5091906132fd565b9081526020016040518091039020600a01819055506000600286604051610a7791906132fd565b9081526020016040518091039020600601541115610b0a57610ae4600286604051610aa291906132fd565b908152602001604051809103902060060154600287604051610ac491906132fd565b90815260200160405180910390206005015461268690919063ffffffff16565b600286604051610af491906132fd565b9081526020016040518091039020600501819055505b610b1f600554346126a090919063ffffffff16565b600286604051610b2f91906132fd565b9081526020016040518091039020600601819055503373ffffffffffffffffffffffffffffffffffffffff1685604051610b6991906132fd565b60405180910390207f817ea10ddaedc9c8ccab27a9923671d1b45b5e4f121017cea1617488646acc5d438560028a604051610ba491906132fd565b908152602001604051809103902060060154604051610bc593929190613717565b60405180910390a360019050949350505050565b6000809054906101000a900473ffffffffffffffffffffffffffffffffffffffff1673ffffffffffffffffffffffffffffffffffffffff163373ffffffffffffffffffffffffffffffffffffffff1614610c3257600080fd5b8060058190555050565b6217bb0081565b60008060009054906101000a900473ffffffffffffffffffffffffffffffffffffffff1673ffffffffffffffffffffffffffffffffffffffff163373ffffffffffffffffffffffffffffffffffffffff1614610c9e57600080fd5b600060149054906101000a900460ff1615610cb857600080fd5b6003600083815260200190815260200160002060009054906101000a900460ff1615610d19576040517f08c379a0000000000000000000000000000000000000000000000000000000008152600401610d109061360c565b60405180910390fd5b60016003600084815260200190815260200160002060006101000a81548160ff02191690831515021790555060019050919050565b6000809054906101000a900473ffffffffffffffffffffffffffffffffffffffff1673ffffffffffffffffffffffffffffffffffffffff163373ffffffffffffffffffffffffffffffffffffffff1614610da757600080fd5b600060149054906101000a900460ff1615610dc157600080fd5b6001600060146101000a81548160ff0219169083151502179055507f6985a02210a168e66602d3235cb6db0e70f92b3ba4d376a33c0f3d9434bff62560405160405180910390a1565b6000809054906101000a900473ffffffffffffffffffffffffffffffffffffffff1681565b60008060149054906101000a900460ff1615610e4a57600080fd5b600360008780519060200120815260200190815260200160002060009054906101000a900460ff16610eb1576040517f08c379a0000000000000000000000000000000000000000000000000000000008152600401610ea8906135ac565b60405180910390fd5b6000600287604051610ec391906132fd565b908152602001604051809103902060000180546001816001161561010002031660029004905011610f29576040517f08c379a0000000000000000000000000000000000000000000000000000000008152600401610f20906134ec565b60405180910390fd5b6000855111610f6d576040517f08c379a0000000000000000000000000000000000000000000000000000000008152600401610f649061364c565b60405180910390fd5b6000841015610fb1576040517f08c379a0000000000000000000000000000000000000000000000000000000008152600401610fa8906135ec565b60405180910390fd5b6000835111610ff5576040517f08c379a0000000000000000000000000000000000000000000000000000000008152600401610fec906135cc565b60405180910390fd5b60045434101561103a576040517f08c379a00000000000000000000000000000000000000000000000000000000081526004016110319061368c565b60405180910390fd5b346006600082825401925050819055506000600360008880519060200120815260200190815260200160002060006101000a81548160ff0219169083151502179055506040518061016001604052808681526020013373ffffffffffffffffffffffffffffffffffffffff1681526020018581526020018481526020018381526020016000815260200160008152602001600081526020016000801b8152602001604051806020016040528060008152508152602001600081525060028760405161110591906132fd565b9081526020016040518091039020600082015181600001908051906020019061112f929190612737565b5060208201518160010160006101000a81548173ffffffffffffffffffffffffffffffffffffffff021916908373ffffffffffffffffffffffffffffffffffffffff16021790555060408201518160020155606082015181600301908051906020019061119d9291906127b7565b506080820151816004015560a0820151816005015560c0820151816006015560e0820151816007015561010082015181600801556101208201518160090190805190602001906111ee9291906127b7565b5061014082015181600a0155905050600186908060018154018082558091505090600182039060005260206000200160009091929091909150908051906020019061123a929190612837565b50503373ffffffffffffffffffffffffffffffffffffffff168660405161126191906132fd565b60405180910390207f443dee960e8f95320a87bf424c99da8587b73cdd2ff0a437dc399e7771287ce460405160405180910390a36001905095945050505050565b60006060600180549050841080156112be575060008360ff1614155b6112c757600080fd5b8260ff166040519080825280602002602001820160405280156112fe57816020015b60608152602001906001900390816112e95790505b50905060008090505b8360ff16811015611403576001805490508186011061132557611403565b60018186018154811061133457fe5b906000526020600020018054600181600116156101000203166002900480601f0160208091040260200160405190810160405280929190818152602001828054600181600116156101000203166002900480156113d25780601f106113a7576101008083540402835291602001916113d2565b820191906000526020600020905b8154815290600101906020018083116113b557829003601f168201915b50505050508284815181106113e357fe5b602002602001018190525082806001019350508080600101915050611307565b509250929050565b600281805160208101820180518482526020830160208501208183528095505050505050600091509050806000018054600181600116156101000203166002900480601f0160208091040260200160405190810160405280929190818152602001828054600181600116156101000203166002900480156114cd5780601f106114a2576101008083540402835291602001916114cd565b820191906000526020600020905b8154815290600101906020018083116114b057829003601f168201915b5050505050908060010160009054906101000a900473ffffffffffffffffffffffffffffffffffffffff1690806002015490806003018054600181600116156101000203166002900480601f0160208091040260200160405190810160405280929190818152602001828054600181600116156101000203166002900480156115975780601f1061156c57610100808354040283529160200191611597565b820191906000526020600020905b81548152906001019060200180831161157a57829003601f168201915b505050505090806004015490806005015490806006015490806007015490806008015490806009018054600181600116156101000203166002900480601f0160208091040260200160405190810160405280929190818152602001828054600181600116156101000203166002900480156116535780601f1061162857610100808354040283529160200191611653565b820191906000526020600020905b81548152906001019060200180831161163657829003601f168201915b50505050509080600a015490508b565b6000809054906101000a900473ffffffffffffffffffffffffffffffffffffffff1673ffffffffffffffffffffffffffffffffffffffff163373ffffffffffffffffffffffffffffffffffffffff16146116bc57600080fd5b8060048190555050565b60008060149054906101000a900460ff16156116e157600080fd5b60006002836040516116f391906132fd565b908152602001604051809103902060000180546001816001161561010002031660029004905011611759576040517f08c379a00000000000000000000000000000000000000000000000000000000081526004016117509061352c565b60405180910390fd5b4360028360405161176a91906132fd565b9081526020016040518091039020600a015460028460405161178c91906132fd565b9081526020016040518091039020600701540110156117e0576040517f08c379a00000000000000000000000000000000000000000000000000000000081526004016117d79061366c565b60405180910390fd5b3373ffffffffffffffffffffffffffffffffffffffff1660028360405161180791906132fd565b908152602001604051809103902060010160009054906101000a900473ffffffffffffffffffffffffffffffffffffffff1673ffffffffffffffffffffffffffffffffffffffff161461188f576040517f08c379a0000000000000000000000000000000000000000000000000000000008152600401611886906136ac565b60405180910390fd5b60006002836040516118a191906132fd565b908152602001604051809103902060060154111561195b5761190e6002836040516118cc91906132fd565b9081526020016040518091039020600601546002846040516118ee91906132fd565b90815260200160405180910390206005015461268690919063ffffffff16565b60028360405161191e91906132fd565b908152602001604051809103902060050181905550600060028360405161194591906132fd565b9081526020016040518091039020600601819055505b600060028360405161196d91906132fd565b9081526020016040518091039020600501549050600081116119c4576040517f08c379a00000000000000000000000000000000000000000000000000000000081526004016119bb9061354c565b60405180910390fd5b60006002846040516119d691906132fd565b9081526020016040518091039020600501819055503373ffffffffffffffffffffffffffffffffffffffff166108fc829081150290604051600060405180830381858888f19350505050158015611a31573d6000803e3d6000fd5b503373ffffffffffffffffffffffffffffffffffffffff1683604051611a5791906132fd565b60405180910390207f97685423965df1732c67ed60f69fbd53f2eafca81dddd0bcfe905b1a76b32d3183604051611a8e91906136cc565b60405180910390a36001915050919050565b60008060009054906101000a900473ffffffffffffffffffffffffffffffffffffffff1673ffffffffffffffffffffffffffffffffffffffff163373ffffffffffffffffffffffffffffffffffffffff1614611afb57600080fd5b60006007546006540190506000811115611b6757600060068190555060006007819055503373ffffffffffffffffffffffffffffffffffffffff166108fc829081150290604051600060405180830381858888f19350505050158015611b65573d6000803e3d6000fd5b505b600191505090565b60036020528060005260406000206000915054906101000a900460ff1681565b60008060149054906101000a900460ff1615611baa57600080fd5b6000600287604051611bbc91906132fd565b908152602001604051809103902060000180546001816001161561010002031660029004905014611c22576040517f08c379a0000000000000000000000000000000000000000000000000000000008152600401611c199061358c565b60405180910390fd5b3373ffffffffffffffffffffffffffffffffffffffff16600287604051611c4991906132fd565b908152602001604051809103902060010160009054906101000a900473ffffffffffffffffffffffffffffffffffffffff1673ffffffffffffffffffffffffffffffffffffffff1614611cd1576040517f08c379a0000000000000000000000000000000000000000000000000000000008152600401611cc8906136ac565b60405180910390fd5b6000855111611d15576040517f08c379a0000000000000000000000000000000000000000000000000000000008152600401611d0c9061364c565b60405180910390fd5b6000841015611d59576040517f08c379a0000000000000000000000000000000000000000000000000000000008152600401611d50906135ec565b60405180910390fd5b6000835111611d9d576040517f08c379a0000000000000000000000000000000000000000000000000000000008152600401611d94906135cc565b60405180910390fd5b43600287604051611dae91906132fd565b9081526020016040518091039020600a0154600288604051611dd091906132fd565b908152602001604051809103902060070154011015611e24576040517f08c379a0000000000000000000000000000000000000000000000000000000008152600401611e1b9061366c565b60405180910390fd5b6040518061016001604052808681526020013373ffffffffffffffffffffffffffffffffffffffff168152602001858152602001848152602001838152602001600288604051611e7491906132fd565b9081526020016040518091039020600501548152602001600288604051611e9b91906132fd565b9081526020016040518091039020600601548152602001600288604051611ec291906132fd565b9081526020016040518091039020600701548152602001600288604051611ee991906132fd565b9081526020016040518091039020600801548152602001600288604051611f1091906132fd565b90815260200160405180910390206009018054600181600116156101000203166002900480601f016020809104026020016040519081016040528092919081815260200182805460018160011615610100020316600290048015611fb55780601f10611f8a57610100808354040283529160200191611fb5565b820191906000526020600020905b815481529060010190602001808311611f9857829003601f168201915b50505050508152602001600288604051611fcf91906132fd565b9081526020016040518091039020600a0154815250600287604051611ff491906132fd565b9081526020016040518091039020600082015181600001908051906020019061201e929190612737565b5060208201518160010160006101000a81548173ffffffffffffffffffffffffffffffffffffffff021916908373ffffffffffffffffffffffffffffffffffffffff16021790555060408201518160020155606082015181600301908051906020019061208c9291906127b7565b506080820151816004015560a0820151816005015560c0820151816006015560e0820151816007015561010082015181600801556101208201518160090190805190602001906120dd9291906127b7565b5061014082015181600a01559050503373ffffffffffffffffffffffffffffffffffffffff168660405161211191906132fd565b60405180910390207ff85c254b5510ca09c9badc81fd2b48ca195bb97efd5422dcd4846f2e7a67ef5d60405160405180910390a36001905095945050505050565b606060008060606000806000806000606060008060028d60405161217691906132fd565b9081526020016040518091039020600001805460018160011615610100020316600290049050116121dc576040517f08c379a00000000000000000000000000000000000000000000000000000000081526004016121d39061352c565b60405180910390fd5b6121e46128b7565b60028d6040516121f491906132fd565b908152602001604051809103902060405180610160016040529081600082018054600181600116156101000203166002900480601f0160208091040260200160405190810160405280929190818152602001828054600181600116156101000203166002900480156122a75780601f1061227c576101008083540402835291602001916122a7565b820191906000526020600020905b81548152906001019060200180831161228a57829003601f168201915b505050505081526020016001820160009054906101000a900473ffffffffffffffffffffffffffffffffffffffff1673ffffffffffffffffffffffffffffffffffffffff1673ffffffffffffffffffffffffffffffffffffffff16815260200160028201548152602001600382018054600181600116156101000203166002900480601f0160208091040260200160405190810160405280929190818152602001828054600181600116156101000203166002900480156123a95780601f1061237e576101008083540402835291602001916123a9565b820191906000526020600020905b81548152906001019060200180831161238c57829003601f168201915b505050505081526020016004820154815260200160058201548152602001600682015481526020016007820154815260200160088201548152602001600982018054600181600116156101000203166002900480601f01602080910402602001604051908101604052809291908181526020018280546001816001161561010002031660029004801561247d5780601f106124525761010080835404028352916020019161247d565b820191906000526020600020905b81548152906001019060200180831161246057829003601f168201915b50505050508152602001600a820154815250509050806000015181602001518260400151836060015184608001518560a001518660c001518760e001518861010001518961012001518a61014001518a9a508797508191509b509b509b509b509b509b509b509b509b509b509b505091939597999b90929496989a50565b6000809054906101000a900473ffffffffffffffffffffffffffffffffffffffff1673ffffffffffffffffffffffffffffffffffffffff163373ffffffffffffffffffffffffffffffffffffffff161461255457600080fd5b600073ffffffffffffffffffffffffffffffffffffffff168173ffffffffffffffffffffffffffffffffffffffff16141561258e57600080fd5b8073ffffffffffffffffffffffffffffffffffffffff166000809054906101000a900473ffffffffffffffffffffffffffffffffffffffff1673ffffffffffffffffffffffffffffffffffffffff167f8be0079c531659141344cd1fd0a4f28419497f9722a3daafe3b4186f6b6457e060405160405180910390a3806000806101000a81548173ffffffffffffffffffffffffffffffffffffffff021916908373ffffffffffffffffffffffffffffffffffffffff16021790555050565b60065481565b6000808314156126655760009050612680565b81830290508183828161267457fe5b041461267c57fe5b8090505b92915050565b600081830190508281101561269757fe5b80905092915050565b6000828211156126ac57fe5b818303905092915050565b828054600181600116156101000203166002900490600052602060002090601f016020900481019282601f106126f857805160ff1916838001178555612726565b82800160010185558215612726579182015b8281111561272557825182559160200191906001019061270a565b5b509050612733919061292a565b5090565b828054600181600116156101000203166002900490600052602060002090601f016020900481019282601f1061277857805160ff19168380011785556127a6565b828001600101855582156127a6579182015b828111156127a557825182559160200191906001019061278a565b5b5090506127b3919061292a565b5090565b828054600181600116156101000203166002900490600052602060002090601f016020900481019282601f106127f857805160ff1916838001178555612826565b82800160010185558215612826579182015b8281111561282557825182559160200191906001019061280a565b5b509050612833919061292a565b5090565b828054600181600116156101000203166002900490600052602060002090601f016020900481019282601f1061287857805160ff19168380011785556128a6565b828001600101855582156128a6579182015b828111156128a557825182559160200191906001019061288a565b5b5090506128b3919061292a565b5090565b60405180610160016040528060608152602001600073ffffffffffffffffffffffffffffffffffffffff1681526020016000815260200160608152602001600081526020016000815260200160008152602001600081526020016000801916815260200160608152602001600081525090565b61294c91905b80821115612948576000816000905550600101612930565b5090565b90565b60008135905061295e81613954565b92915050565b6000813590506129738161396b565b92915050565b600082601f83011261298a57600080fd5b813561299d6129988261377b565b61374e565b915080825260208301602083018583830111156129b957600080fd5b6129c4838284613901565b50505092915050565b600082601f8301126129de57600080fd5b81356129f16129ec826137a7565b61374e565b91508082526020830160208301858383011115612a0d57600080fd5b612a18838284613901565b50505092915050565b600082601f830112612a3257600080fd5b8135612a45612a40826137d3565b61374e565b91508082526020830160208301858383011115612a6157600080fd5b612a6c838284613901565b50505092915050565b600081359050612a8481613982565b92915050565b600081359050612a9981613999565b92915050565b600060208284031215612ab157600080fd5b6000612abf8482850161294f565b91505092915050565b600060208284031215612ada57600080fd5b6000612ae884828501612964565b91505092915050565b600060208284031215612b0357600080fd5b600082013567ffffffffffffffff811115612b1d57600080fd5b612b2984828501612979565b91505092915050565b600060208284031215612b4457600080fd5b600082013567ffffffffffffffff811115612b5e57600080fd5b612b6a848285016129cd565b91505092915050565b60008060008060808587031215612b8957600080fd5b600085013567ffffffffffffffff811115612ba357600080fd5b612baf878288016129cd565b9450506020612bc087828801612964565b935050604085013567ffffffffffffffff811115612bdd57600080fd5b612be987828801612a21565b9250506060612bfa87828801612a75565b91505092959194509250565b600080600080600060a08688031215612c1e57600080fd5b600086013567ffffffffffffffff811115612c3857600080fd5b612c44888289016129cd565b955050602086013567ffffffffffffffff811115612c6157600080fd5b612c6d888289016129cd565b9450506040612c7e88828901612a75565b935050606086013567ffffffffffffffff811115612c9b57600080fd5b612ca788828901612a21565b9250506080612cb888828901612a75565b9150509295509295909350565b600060208284031215612cd757600080fd5b6000612ce584828501612a75565b91505092915050565b60008060408385031215612d0157600080fd5b6000612d0f85828601612a75565b9250506020612d2085828601612a8a565b9150509250929050565b6000612d368383612e4a565b905092915050565b612d47816138a2565b82525050565b6000612d588261380f565b612d628185613853565b935083602082028501612d74856137ff565b8060005b85811015612db05784840389528151612d918582612d2a565b9450612d9c83613846565b925060208a01995050600181019050612d78565b50829750879550505050505092915050565b612dcb816138b4565b82525050565b612dda816138c0565b82525050565b6000612deb82613825565b612df58185613875565b9350612e05818560208601613910565b612e0e81613943565b840191505092915050565b6000612e2482613825565b612e2e8185613886565b9350612e3e818560208601613910565b80840191505092915050565b6000612e558261381a565b612e5f8185613864565b9350612e6f818560208601613910565b612e7881613943565b840191505092915050565b6000612e8e8261381a565b612e988185613875565b9350612ea8818560208601613910565b612eb181613943565b840191505092915050565b6000612ec78261383b565b612ed18185613891565b9350612ee1818560208601613910565b612eea81613943565b840191505092915050565b6000612f0082613830565b612f0a8185613891565b9350612f1a818560208601613910565b612f2381613943565b840191505092915050565b6000612f3b601283613891565b91507f616c7265616479207265676973746572656400000000000000000000000000006000830152602082019050919050565b6000612f7b602083613891565b91507f73746f726167652061636365737320746f6b656e2069732072657175697265646000830152602082019050919050565b6000612fbb601083613891565b91507f6e6f2073756368206120646576696365000000000000000000000000000000006000830152602082019050919050565b6000612ffb600a83613891565b91507f6e6f2062616c616e6365000000000000000000000000000000000000000000006000830152602082019050919050565b600061303b601683613891565b91507f696e617070726f707269617465206475726174696f6e000000000000000000006000830152602082019050919050565b600061307b601283613891565b91507f6e6f7420796574207265676973746572656400000000000000000000000000006000830152602082019050919050565b60006130bb600e83613891565b91507f6964206e6f7420616c6c6f7765640000000000000000000000000000000000006000830152602082019050919050565b60006130fb601483613891565b91507f737065632075726c2069732072657175697265640000000000000000000000006000830152602082019050919050565b600061313b601e83613891565b91507f6672657175656e6365206e6565647320746f20626520706f73697469766500006000830152602082019050919050565b600061317b601383613891565b91507f616c72656164792077686974656c6973746564000000000000000000000000006000830152602082019050919050565b60006131bb601c83613891565b91507f73746f7261676520656e64706f696e74206973207265717569726564000000006000830152602082019050919050565b60006131fb601d83613891565b91507f646576696365207075626c6963206b65792069732072657175697265640000006000830152602082019050919050565b600061323b601e83613891565b91507f7468652064657669636520686173206265656e207375627363726962656400006000830152602082019050919050565b600061327b600e83613891565b91507f6e6f7420656e6f756768206665650000000000000000000000000000000000006000830152602082019050919050565b60006132bb600983613891565b91507f6e6f74206f776e657200000000000000000000000000000000000000000000006000830152602082019050919050565b6132f7816138ea565b82525050565b60006133098284612e19565b915081905092915050565b60006020820190506133296000830184612d3e565b92915050565b60006020820190506133446000830184612dc2565b92915050565b600060208201905081810360008301526133648184612e83565b905092915050565b6000610160820190508181036000830152613387818e612de0565b9050613396602083018d612d3e565b6133a3604083018c6132ee565b81810360608301526133b5818b612ebc565b90506133c4608083018a6132ee565b6133d160a08301896132ee565b6133de60c08301886132ee565b6133eb60e08301876132ee565b6133f9610100830186612dd1565b81810361012083015261340c8185612ebc565b905061341c6101408301846132ee565b9c9b505050505050505050505050565b6000610160820190508181036000830152613447818e612e83565b9050613456602083018d612d3e565b613463604083018c6132ee565b8181036060830152613475818b612ef5565b9050613484608083018a6132ee565b61349160a08301896132ee565b61349e60c08301886132ee565b6134ab60e08301876132ee565b6134b9610100830186612dd1565b8181036101208301526134cc8185612ef5565b90506134dc6101408301846132ee565b9c9b505050505050505050505050565b6000602082019050818103600083015261350581612f2e565b9050919050565b6000602082019050818103600083015261352581612f6e565b9050919050565b6000602082019050818103600083015261354581612fae565b9050919050565b6000602082019050818103600083015261356581612fee565b9050919050565b600060208201905081810360008301526135858161302e565b9050919050565b600060208201905081810360008301526135a58161306e565b9050919050565b600060208201905081810360008301526135c5816130ae565b9050919050565b600060208201905081810360008301526135e5816130ee565b9050919050565b600060208201905081810360008301526136058161312e565b9050919050565b600060208201905081810360008301526136258161316e565b9050919050565b60006020820190508181036000830152613645816131ae565b9050919050565b60006020820190508181036000830152613665816131ee565b9050919050565b600060208201905081810360008301526136858161322e565b9050919050565b600060208201905081810360008301526136a58161326e565b9050919050565b600060208201905081810360008301526136c5816132ae565b9050919050565b60006020820190506136e160008301846132ee565b92915050565b60006040820190506136fc60008301856132ee565b818103602083015261370e8184612d4d565b90509392505050565b600060608201905061372c60008301866132ee565b61373960208301856132ee565b61374660408301846132ee565b949350505050565b6000604051905081810181811067ffffffffffffffff8211171561377157600080fd5b8060405250919050565b600067ffffffffffffffff82111561379257600080fd5b601f19601f8301169050602081019050919050565b600067ffffffffffffffff8211156137be57600080fd5b601f19601f8301169050602081019050919050565b600067ffffffffffffffff8211156137ea57600080fd5b601f19601f8301169050602081019050919050565b6000819050602082019050919050565b600081519050919050565b600081519050919050565b600081519050919050565b600081519050919050565b600081519050919050565b6000602082019050919050565b600082825260208201905092915050565b600082825260208201905092915050565b600082825260208201905092915050565b600081905092915050565b600082825260208201905092915050565b60006138ad826138ca565b9050919050565b60008115159050919050565b6000819050919050565b600073ffffffffffffffffffffffffffffffffffffffff82169050919050565b6000819050919050565b600060ff82169050919050565b82818337600083830152505050565b60005b8381101561392e578082015181840152602081019050613913565b8381111561393d576000848401525b50505050565b6000601f19601f8301169050919050565b61395d816138a2565b811461396857600080fd5b50565b613974816138c0565b811461397f57600080fd5b50565b61398b816138ea565b811461399657600080fd5b50565b6139a2816138f4565b81146139ad57600080fd5b5056fea365627a7a72315820e0b29b13c38f5f84bb4f3993febf4cb3b1119f7f5c79815cf540a8f63d1cd3c76c6578706572696d656e74616cf564736f6c634300050c0040",
  "source": "pragma solidity <6.0 >=0.4.24;\npragma experimental ABIEncoderV2;\n\nimport \"./Pausable.sol\";\nimport \"./SafeMath.sol\";\n\ncontract Prophecy is Pausable {\n  using SafeMath for uint256;\n\n  event Registered(bytes indexed deviceID, address indexed owner); // add more details if necessary\n  event Subscribed(bytes indexed deviceID, address indexed subscriber, uint256 startHeight, uint256 duration, uint256 income);\n  event Claimed(bytes indexed deviceID, address indexed claimer, uint256 amount);\n  event Updated(bytes indexed deviceID, address indexed owner); // add more details if necessary\n\n  /// STORAGE MAPPINGS\n  bytes[] public deviceIDs;\n  mapping (bytes => Device) public devices;\n  mapping (bytes32 => bool) public allowedIDHashes; // allowed hashes of IDs\n\n  uint256 public registrationFee;\n  uint256 public subscriptionFee;\n  uint256 public registrationFeeTotal;\n  uint256 public subscriptionFeeTotal;\n\n  uint256 public constant maxDuration = 86400 / 5 * 90; // 90 days\n\n  /// TYPES\n  struct Device {\n      // Intrinsic properties\n      bytes devicePublicKey;\n      address owner;        // owner's address\n      uint256 freq;         // how many seconds per data point\n      string  spec;         // link to the spec\n      uint256 pricePerBlock; // in terms of IOTX\n      uint256 settledBalance; // balance ready to claim\n      uint256 pendingBalance; // balance in pending\n\n      // Order info\n      uint256 startHeight;    // the height starting from which this device's data stream is bought\n      bytes32 storageEPoint;  // storage endpoint buyer provides\n      string  storageToken;   // access token to the storage endpoint, encrypted by devicePublicKey\n      uint256 duration;       // how many blocks this order lasts\n  }\n\n  // CONSTRUCTOR\n  constructor () public {\n  }\n\n  // EXTERNAL FUNCTIONS\n  function setRegistrationFee(uint256 fee) public onlyOwner {\n    registrationFee = fee;\n  }\n\n  function setSubscriptionFee(uint256 fee) public onlyOwner {\n    subscriptionFee = fee;\n  }\n\n  // Populate the whitelist after manufacturing\n  function preRegisterDevice(bytes32 _deviceIdHash)\n    public onlyOwner whenNotPaused returns (bool)\n    {\n      require(!allowedIDHashes[_deviceIdHash], \"already whitelisted\");\n\n      allowedIDHashes[_deviceIdHash] = true;\n      return true;\n    }\n\n  // Pay to Register the device\n  function registerDevice(\n    bytes memory _deviceId,\n    bytes memory _devicePublicKey,\n    uint256 _freq,\n    string memory _spec,\n    uint256 _price\n    )\n    public whenNotPaused payable returns (bool)\n    {\n      require(allowedIDHashes[keccak256(_deviceId)], \"id not allowed\");\n      require(devices[_deviceId].devicePublicKey.length > 0, \"already registered\");\n      require(_devicePublicKey.length > 0, \"device public key is required\");\n      require(_freq >= 0, \"frequence needs to be positive\");\n      require(bytes(_spec).length > 0, \"spec url is required\");\n      require(msg.value >= registrationFee, \"not enough fee\");\n\n      registrationFeeTotal += msg.value;\n      allowedIDHashes[keccak256(_deviceId)] = false;\n      devices[_deviceId] = Device(_devicePublicKey, msg.sender, _freq, _spec,\n        _price, 0, 0, 0, 0, \"\", 0);\n      deviceIDs.push(_deviceId);\n      emit Registered(_deviceId, msg.sender);\n      return true;\n    }\n\n    // Update info about a registered device\n    function updateDevice(\n      bytes memory _deviceId,\n      bytes memory _devicePublicKey,\n      uint256 _freq,\n      string memory _spec,\n      uint256 _price\n      )\n      public whenNotPaused returns (bool)\n      {\n        require(devices[_deviceId].devicePublicKey.length == 0, \"not yet registered\");\n        require(devices[_deviceId].owner == msg.sender, \"not owner\");\n        require(_devicePublicKey.length > 0, \"device public key is required\");\n        require(_freq >= 0, \"frequence needs to be positive\");\n        require(bytes(_spec).length > 0, \"spec url is required\");\n\n        // To be on the safe side, tho we can allow change when a device is subscribed\n        require(devices[_deviceId].startHeight + devices[_deviceId].duration >= block.number, \"the device has been subscribed\");\n\n        devices[_deviceId] = Device(_devicePublicKey, msg.sender, _freq, _spec,\n          _price, devices[_deviceId].settledBalance, devices[_deviceId].pendingBalance,\n          devices[_deviceId].startHeight, devices[_deviceId].storageEPoint,\n          devices[_deviceId].storageToken, devices[_deviceId].duration);\n\n        emit Updated(_deviceId, msg.sender);\n        return true;\n      }\n\n  // Pay to subscribe to the device's data stream\n  function subscribe(\n    bytes memory _deviceId,\n    bytes32 _storageEPoint,\n    string memory _storageToken,\n    uint256 _duration\n    ) public whenNotPaused payable returns (bool)\n  {\n    require(devices[_deviceId].devicePublicKey.length > 0, \"no such a device\");\n    require(_storageEPoint != 0, \"storage endpoint is required\");\n    require(bytes(_storageToken).length > 0, \"storage access token is required\");\n    require(_duration > 0 && _duration <= maxDuration, \"inappropriate duration\");\n    require(msg.value >= subscriptionFee + _duration.mul(devices[_deviceId].pricePerBlock), \"not enough fee\");\n    require(devices[_deviceId].startHeight + devices[_deviceId].duration >= block.number, \"the device has been subscribed\");\n\n    subscriptionFeeTotal += subscriptionFee;\n    devices[_deviceId].startHeight = block.number;\n    devices[_deviceId].storageEPoint = _storageEPoint;\n    devices[_deviceId].storageToken = _storageToken;\n    devices[_deviceId].duration = _duration;\n    if (devices[_deviceId].pendingBalance > 0) {\n      devices[_deviceId].settledBalance = devices[_deviceId].settledBalance.add(devices[_deviceId].pendingBalance);\n    }\n    devices[_deviceId].pendingBalance = msg.value.sub(subscriptionFee);\n    emit Subscribed(_deviceId, msg.sender, block.number, _duration, devices[_deviceId].pendingBalance);\n    return true;\n  }\n\n  // Device owner claims the payment after its matured\n  function claim(bytes memory _deviceId) public whenNotPaused returns (bool)\n  {\n    require(devices[_deviceId].devicePublicKey.length > 0, \"no such a device\");\n    require(devices[_deviceId].startHeight + devices[_deviceId].duration >= block.number, \"the device has been subscribed\");\n    require(devices[_deviceId].owner == msg.sender, \"not owner\");\n    if (devices[_deviceId].pendingBalance > 0) {\n      devices[_deviceId].settledBalance = devices[_deviceId].settledBalance.add(devices[_deviceId].pendingBalance);\n      devices[_deviceId].pendingBalance = 0;\n    }\n    uint256 balance = devices[_deviceId].settledBalance;\n    require(balance > 0, \"no balance\");\n\n    devices[_deviceId].settledBalance = 0;\n    msg.sender.transfer(balance);\n    emit Claimed(_deviceId, msg.sender, balance);\n    return true;\n  }\n\n  // Contract owner collect the fee\n  function collectFees() onlyOwner public returns (bool) {\n    uint256 total = registrationFeeTotal + subscriptionFeeTotal;\n    if (total > 0) {\n      registrationFeeTotal = 0;\n      subscriptionFeeTotal = 0;\n      msg.sender.transfer(total);\n    }\n    return true;\n  }\n\n  // Get device IDs with pagination\n  function getDeviceByID(uint256 _offset, uint8 limit)\n    public view returns (uint256 count, bytes[] memory ids) {\n      require(_offset < deviceIDs.length && limit != 0);\n\n      ids = new bytes[](limit);\n      for (uint256 i = 0; i < limit; i++) {\n          if (_offset + i >= deviceIDs.length) {\n              break;\n          }\n          ids[count] = deviceIDs[_offset + i];\n          count++;\n      }\n  }\n\n\n  // Get device info by ID\n  function getDeviceByID(\n    bytes memory _deviceId\n  ) public view returns (bytes memory, address, uint256, string memory,\n    uint256, uint256, uint256, uint256, bytes32, string memory, uint256) {\n    require(devices[_deviceId].devicePublicKey.length > 0, \"no such a device\");\n\n    Device memory d = devices[_deviceId];\n    return (d.devicePublicKey, d.owner, d.freq, d.spec,\n      d.pricePerBlock, d.settledBalance, d.pendingBalance, d.startHeight,\n      d.storageEPoint, d.storageToken, d.duration);\n  }\n\n}\n",
  "sourcePath": "/Users/rc7/work/src/github.com/iotexproject/prophecy/contracts/contracts/Prophecy.sol",
  "compiler": {
    "name": "solc",
    "version": "0.5.12+commit.7709ece9.Emscripten.clang"
  },
  "schemaVersion": "3.0.18",
  "updatedAt": "2020-10-29T18:33:09.102Z",
  "devdoc": {
    "methods": {
      "pause()": {
        "details": "called by the owner to pause, triggers stopped state"
      },
      "transferOwnership(address)": {
        "details": "Allows the current owner to transfer control of the contract to a newOwner.",
        "params": {
          "newOwner": "The address to transfer ownership to."
        }
      },
      "unpause()": {
        "details": "called by the owner to unpause, returns to normal state"
      }
    }
  },
  "userdoc": {
    "methods": {}
  }
}