{
  "contractName": "Prophecy",
  "abi": [
    {
      "inputs": [],
      "payable": false,
      "stateMutability": "nonpayable",
      "type": "constructor"
    },
    {
      "anonymous": false,
      "inputs": [
        {
          "indexed": true,
          "internalType": "address",
          "name": "deviceID",
          "type": "address"
        },
        {
          "indexed": true,
          "internalType": "address",
          "name": "claimer",
          "type": "address"
        },
        {
          "indexed": false,
          "internalType": "uint256",
          "name": "amount",
          "type": "uint256"
        }
      ],
      "name": "Claimed",
      "type": "event"
    },
    {
      "anonymous": false,
      "inputs": [
        {
          "indexed": true,
          "internalType": "address",
          "name": "previousOwner",
          "type": "address"
        },
        {
          "indexed": true,
          "internalType": "address",
          "name": "newOwner",
          "type": "address"
        }
      ],
      "name": "OwnershipTransferred",
      "type": "event"
    },
    {
      "anonymous": false,
      "inputs": [],
      "name": "Pause",
      "type": "event"
    },
    {
      "anonymous": false,
      "inputs": [
        {
          "indexed": true,
          "internalType": "address",
          "name": "deviceID",
          "type": "address"
        },
        {
          "indexed": true,
          "internalType": "address",
          "name": "owner",
          "type": "address"
        }
      ],
      "name": "Registered",
      "type": "event"
    },
    {
      "anonymous": false,
      "inputs": [
        {
          "indexed": true,
          "internalType": "address",
          "name": "deviceID",
          "type": "address"
        },
        {
          "indexed": true,
          "internalType": "address",
          "name": "subscriber",
          "type": "address"
        },
        {
          "indexed": false,
          "internalType": "uint256",
          "name": "startHeight",
          "type": "uint256"
        },
        {
          "indexed": false,
          "internalType": "uint256",
          "name": "duration",
          "type": "uint256"
        },
        {
          "indexed": false,
          "internalType": "uint256",
          "name": "income",
          "type": "uint256"
        }
      ],
      "name": "Subscribed",
      "type": "event"
    },
    {
      "anonymous": false,
      "inputs": [],
      "name": "Unpause",
      "type": "event"
    },
    {
      "anonymous": false,
      "inputs": [
        {
          "indexed": true,
          "internalType": "address",
          "name": "deviceID",
          "type": "address"
        },
        {
          "indexed": true,
          "internalType": "address",
          "name": "owner",
          "type": "address"
        }
      ],
      "name": "Updated",
      "type": "event"
    },
    {
      "constant": true,
      "inputs": [
        {
          "internalType": "uint256",
          "name": "",
          "type": "uint256"
        }
      ],
      "name": "deviceIDs",
      "outputs": [
        {
          "internalType": "address",
          "name": "",
          "type": "address"
        }
      ],
      "payable": false,
      "stateMutability": "view",
      "type": "function"
    },
    {
      "constant": true,
      "inputs": [
        {
          "internalType": "address",
          "name": "",
          "type": "address"
        }
      ],
      "name": "devices",
      "outputs": [
        {
          "internalType": "address",
          "name": "owner",
          "type": "address"
        },
        {
          "internalType": "bool",
          "name": "hasOrder",
          "type": "bool"
        },
        {
          "internalType": "uint32",
          "name": "freq",
          "type": "uint32"
        },
        {
          "internalType": "uint256",
          "name": "pricePerBlock",
          "type": "uint256"
        },
        {
          "internalType": "uint256",
          "name": "settledBalance",
          "type": "uint256"
        },
        {
          "internalType": "uint256",
          "name": "pendingBalance",
          "type": "uint256"
        },
        {
          "internalType": "string",
          "name": "spec",
          "type": "string"
        },
        {
          "internalType": "bytes",
          "name": "rsaPubkeyN",
          "type": "bytes"
        },
        {
          "internalType": "bytes",
          "name": "rsaPubkeyE",
          "type": "bytes"
        }
      ],
      "payable": false,
      "stateMutability": "view",
      "type": "function"
    },
    {
      "constant": true,
      "inputs": [],
      "name": "maxDuration",
      "outputs": [
        {
          "internalType": "uint256",
          "name": "",
          "type": "uint256"
        }
      ],
      "payable": false,
      "stateMutability": "view",
      "type": "function"
    },
    {
      "constant": true,
      "inputs": [
        {
          "internalType": "address",
          "name": "",
          "type": "address"
        }
      ],
      "name": "orders",
      "outputs": [
        {
          "internalType": "uint256",
          "name": "startHeight",
          "type": "uint256"
        },
        {
          "internalType": "uint256",
          "name": "duration",
          "type": "uint256"
        },
        {
          "internalType": "string",
          "name": "storageEPoint",
          "type": "string"
        },
        {
          "internalType": "string",
          "name": "storageToken",
          "type": "string"
        }
      ],
      "payable": false,
      "stateMutability": "view",
      "type": "function"
    },
    {
      "constant": true,
      "inputs": [],
      "name": "owner",
      "outputs": [
        {
          "internalType": "address",
          "name": "",
          "type": "address"
        }
      ],
      "payable": false,
      "stateMutability": "view",
      "type": "function"
    },
    {
      "constant": false,
      "inputs": [],
      "name": "pause",
      "outputs": [],
      "payable": false,
      "stateMutability": "nonpayable",
      "type": "function"
    },
    {
      "constant": true,
      "inputs": [],
      "name": "paused",
      "outputs": [
        {
          "internalType": "bool",
          "name": "",
          "type": "bool"
        }
      ],
      "payable": false,
      "stateMutability": "view",
      "type": "function"
    },
    {
      "constant": true,
      "inputs": [],
      "name": "registrationFee",
      "outputs": [
        {
          "internalType": "uint256",
          "name": "",
          "type": "uint256"
        }
      ],
      "payable": false,
      "stateMutability": "view",
      "type": "function"
    },
    {
      "constant": true,
      "inputs": [],
      "name": "registrationFeeTotal",
      "outputs": [
        {
          "internalType": "uint256",
          "name": "",
          "type": "uint256"
        }
      ],
      "payable": false,
      "stateMutability": "view",
      "type": "function"
    },
    {
      "constant": true,
      "inputs": [],
      "name": "subscriptionFee",
      "outputs": [
        {
          "internalType": "uint256",
          "name": "",
          "type": "uint256"
        }
      ],
      "payable": false,
      "stateMutability": "view",
      "type": "function"
    },
    {
      "constant": true,
      "inputs": [],
      "name": "subscriptionFeeTotal",
      "outputs": [
        {
          "internalType": "uint256",
          "name": "",
          "type": "uint256"
        }
      ],
      "payable": false,
      "stateMutability": "view",
      "type": "function"
    },
    {
      "constant": false,
      "inputs": [
        {
          "internalType": "address",
          "name": "newOwner",
          "type": "address"
        }
      ],
      "name": "transferOwnership",
      "outputs": [],
      "payable": false,
      "stateMutability": "nonpayable",
      "type": "function"
    },
    {
      "constant": false,
      "inputs": [],
      "name": "unpause",
      "outputs": [],
      "payable": false,
      "stateMutability": "nonpayable",
      "type": "function"
    },
    {
      "constant": true,
      "inputs": [
        {
          "internalType": "address",
          "name": "",
          "type": "address"
        }
      ],
      "name": "whitelist",
      "outputs": [
        {
          "internalType": "uint8",
          "name": "",
          "type": "uint8"
        }
      ],
      "payable": false,
      "stateMutability": "view",
      "type": "function"
    },
    {
      "constant": false,
      "inputs": [
        {
          "internalType": "uint256",
          "name": "fee",
          "type": "uint256"
        }
      ],
      "name": "setRegistrationFee",
      "outputs": [],
      "payable": false,
      "stateMutability": "nonpayable",
      "type": "function"
    },
    {
      "constant": false,
      "inputs": [
        {
          "internalType": "uint256",
          "name": "fee",
          "type": "uint256"
        }
      ],
      "name": "setSubscriptionFee",
      "outputs": [],
      "payable": false,
      "stateMutability": "nonpayable",
      "type": "function"
    },
    {
      "constant": false,
      "inputs": [
        {
          "internalType": "address",
          "name": "_deviceAddr",
          "type": "address"
        }
      ],
      "name": "preRegisterDevice",
      "outputs": [
        {
          "internalType": "bool",
          "name": "",
          "type": "bool"
        }
      ],
      "payable": false,
      "stateMutability": "nonpayable",
      "type": "function"
    },
    {
      "constant": false,
      "inputs": [
        {
          "internalType": "address",
          "name": "_deviceAddr",
          "type": "address"
        },
        {
          "internalType": "uint32",
          "name": "_freq",
          "type": "uint32"
        },
        {
          "internalType": "uint256",
          "name": "_price",
          "type": "uint256"
        },
        {
          "internalType": "string",
          "name": "_spec",
          "type": "string"
        },
        {
          "internalType": "bytes",
          "name": "_rsaPubkeyN",
          "type": "bytes"
        },
        {
          "internalType": "bytes",
          "name": "_rsaPubkeyE",
          "type": "bytes"
        }
      ],
      "name": "registerDevice",
      "outputs": [
        {
          "internalType": "bool",
          "name": "",
          "type": "bool"
        }
      ],
      "payable": true,
      "stateMutability": "payable",
      "type": "function"
    },
    {
      "constant": false,
      "inputs": [
        {
          "internalType": "address",
          "name": "_deviceAddr",
          "type": "address"
        },
        {
          "internalType": "uint32",
          "name": "_freq",
          "type": "uint32"
        },
        {
          "internalType": "uint256",
          "name": "_price",
          "type": "uint256"
        },
        {
          "internalType": "string",
          "name": "_spec",
          "type": "string"
        },
        {
          "internalType": "bytes",
          "name": "_rsaPubkeyN",
          "type": "bytes"
        },
        {
          "internalType": "bytes",
          "name": "_rsaPubkeyE",
          "type": "bytes"
        }
      ],
      "name": "updateDevice",
      "outputs": [
        {
          "internalType": "bool",
          "name": "",
          "type": "bool"
        }
      ],
      "payable": false,
      "stateMutability": "nonpayable",
      "type": "function"
    },
    {
      "constant": false,
      "inputs": [
        {
          "internalType": "address",
          "name": "_deviceAddr",
          "type": "address"
        },
        {
          "internalType": "uint256",
          "name": "_duration",
          "type": "uint256"
        },
        {
          "internalType": "string",
          "name": "_storageEPoint",
          "type": "string"
        },
        {
          "internalType": "string",
          "name": "_storageToken",
          "type": "string"
        }
      ],
      "name": "subscribe",
      "outputs": [
        {
          "internalType": "bool",
          "name": "",
          "type": "bool"
        }
      ],
      "payable": true,
      "stateMutability": "payable",
      "type": "function"
    },
    {
      "constant": false,
      "inputs": [
        {
          "internalType": "address",
          "name": "_deviceAddr",
          "type": "address"
        }
      ],
      "name": "claim",
      "outputs": [
        {
          "internalType": "bool",
          "name": "",
          "type": "bool"
        }
      ],
      "payable": false,
      "stateMutability": "nonpayable",
      "type": "function"
    },
    {
      "constant": false,
      "inputs": [],
      "name": "collectFees",
      "outputs": [
        {
          "internalType": "bool",
          "name": "",
          "type": "bool"
        }
      ],
      "payable": false,
      "stateMutability": "nonpayable",
      "type": "function"
    },
    {
      "constant": true,
      "inputs": [
        {
          "internalType": "uint256",
          "name": "_offset",
          "type": "uint256"
        },
        {
          "internalType": "uint8",
          "name": "limit",
          "type": "uint8"
        }
      ],
      "name": "getDeviceAddrs",
      "outputs": [
        {
          "internalType": "uint256",
          "name": "count",
          "type": "uint256"
        },
        {
          "internalType": "address[]",
          "name": "ids",
          "type": "address[]"
        }
      ],
      "payable": false,
      "stateMutability": "view",
      "type": "function"
    },
    {
      "constant": true,
      "inputs": [
        {
          "internalType": "address",
          "name": "_deviceAddr",
          "type": "address"
        }
      ],
      "name": "getDeviceInfoByAddr",
      "outputs": [
        {
          "internalType": "address",
          "name": "",
          "type": "address"
        },
        {
          "internalType": "uint32",
          "name": "",
          "type": "uint32"
        },
        {
          "internalType": "uint256",
          "name": "",
          "type": "uint256"
        },
        {
          "internalType": "uint256",
          "name": "",
          "type": "uint256"
        },
        {
          "internalType": "uint256",
          "name": "",
          "type": "uint256"
        },
        {
          "internalType": "string",
          "name": "",
          "type": "string"
        },
        {
          "internalType": "bytes",
          "name": "",
          "type": "bytes"
        },
        {
          "internalType": "bytes",
          "name": "",
          "type": "bytes"
        }
      ],
      "payable": false,
      "stateMutability": "view",
      "type": "function"
    },
    {
      "constant": true,
      "inputs": [
        {
          "internalType": "address",
          "name": "_deviceAddr",
          "type": "address"
        }
      ],
      "name": "getDeviceOrderByAddr",
      "outputs": [
        {
          "internalType": "uint256",
          "name": "",
          "type": "uint256"
        },
        {
          "internalType": "uint256",
          "name": "",
          "type": "uint256"
        },
        {
          "internalType": "string",
          "name": "",
          "type": "string"
        },
        {
          "internalType": "string",
          "name": "",
          "type": "string"
        }
      ],
      "payable": false,
      "stateMutability": "view",
      "type": "function"
    }
  ],
  "bytecode": "0x608060405260008060146101000a81548160ff02191690831515021790555034801561002a57600080fd5b50336000806101000a81548173ffffffffffffffffffffffffffffffffffffffff021916908373ffffffffffffffffffffffffffffffffffffffff160217905550614e978061007a6000396000f3fe6080604052600436106101665760003560e01c80638456cb59116100d1578063c87965721161008a578063e7b4cac611610064578063e7b4cac614610f24578063f2fde38b1461112c578063f3d728f11461117d578063f40e8471146111a857610166565b8063c879657214610bb4578063d5fdc3ca14610be3578063de1e23b714610d2757610166565b80638456cb59146107c15780638da5cb5b146107d857806399459b2e1461082f5780639b19251a14610a6a578063b65011db14610ad5578063c320c72714610b7957610166565b806330425cc41161012357806330425cc4146105065780633f4ba83a14610581578063438c477d146105985780635c975abb1461072c5780636ac849561461075b5780636db5c8fd1461079657610166565b80630a00eba81461016b5780630aa0a1751461019657806314c44e09146101c15780631e83409a146101ec5780632252e9cc14610255578063282b11e11461049d575b600080fd5b34801561017757600080fd5b506101806112ec565b6040518082815260200191505060405180910390f35b3480156101a257600080fd5b506101ab6112f2565b6040518082815260200191505060405180910390f35b3480156101cd57600080fd5b506101d66112f8565b6040518082815260200191505060405180910390f35b3480156101f857600080fd5b5061023b6004803603602081101561020f57600080fd5b81019080803573ffffffffffffffffffffffffffffffffffffffff1690602001909291905050506112fe565b604051808215151515815260200191505060405180910390f35b34801561026157600080fd5b50610483600480360360c081101561027857600080fd5b81019080803573ffffffffffffffffffffffffffffffffffffffff169060200190929190803563ffffffff16906020019092919080359060200190929190803590602001906401000000008111156102cf57600080fd5b8201836020820111156102e157600080fd5b8035906020019184600183028401116401000000008311171561030357600080fd5b91908080601f016020809104026020016040519081016040528093929190818152602001838380828437600081840152601f19601f8201169050808301925050505050505091929192908035906020019064010000000081111561036657600080fd5b82018360208201111561037857600080fd5b8035906020019184600183028401116401000000008311171561039a57600080fd5b91908080601f016020809104026020016040519081016040528093929190818152602001838380828437600081840152601f19601f820116905080830192505050505050509192919290803590602001906401000000008111156103fd57600080fd5b82018360208201111561040f57600080fd5b8035906020019184600183028401116401000000008311171561043157600080fd5b91908080601f016020809104026020016040519081016040528093929190818152602001838380828437600081840152601f19601f820116905080830192505050505050509192919290505050611b42565b604051808215151515815260200191505060405180910390f35b3480156104a957600080fd5b506104ec600480360360208110156104c057600080fd5b81019080803573ffffffffffffffffffffffffffffffffffffffff1690602001909291905050506123e7565b604051808215151515815260200191505060405180910390f35b34801561051257600080fd5b5061053f6004803603602081101561052957600080fd5b8101908080359060200190929190505050612583565b604051808273ffffffffffffffffffffffffffffffffffffffff1673ffffffffffffffffffffffffffffffffffffffff16815260200191505060405180910390f35b34801561058d57600080fd5b506105966125bf565b005b610712600480360360808110156105ae57600080fd5b81019080803573ffffffffffffffffffffffffffffffffffffffff16906020019092919080359060200190929190803590602001906401000000008111156105f557600080fd5b82018360208201111561060757600080fd5b8035906020019184600183028401116401000000008311171561062957600080fd5b91908080601f016020809104026020016040519081016040528093929190818152602001838380828437600081840152601f19601f8201169050808301925050505050505091929192908035906020019064010000000081111561068c57600080fd5b82018360208201111561069e57600080fd5b803590602001918460018302840111640100000000831117156106c057600080fd5b91908080601f016020809104026020016040519081016040528093929190818152602001838380828437600081840152601f19601f820116905080830192505050505050509192919290505050612679565b604051808215151515815260200191505060405180910390f35b34801561073857600080fd5b50610741613092565b604051808215151515815260200191505060405180910390f35b34801561076757600080fd5b506107946004803603602081101561077e57600080fd5b81019080803590602001909291905050506130a5565b005b3480156107a257600080fd5b506107ab613108565b6040518082815260200191505060405180910390f35b3480156107cd57600080fd5b506107d661310f565b005b3480156107e457600080fd5b506107ed6131cb565b604051808273ffffffffffffffffffffffffffffffffffffffff1673ffffffffffffffffffffffffffffffffffffffff16815260200191505060405180910390f35b610a50600480360360c081101561084557600080fd5b81019080803573ffffffffffffffffffffffffffffffffffffffff169060200190929190803563ffffffff169060200190929190803590602001909291908035906020019064010000000081111561089c57600080fd5b8201836020820111156108ae57600080fd5b803590602001918460018302840111640100000000831117156108d057600080fd5b91908080601f016020809104026020016040519081016040528093929190818152602001838380828437600081840152601f19601f8201169050808301925050505050505091929192908035906020019064010000000081111561093357600080fd5b82018360208201111561094557600080fd5b8035906020019184600183028401116401000000008311171561096757600080fd5b91908080601f016020809104026020016040519081016040528093929190818152602001838380828437600081840152601f19601f820116905080830192505050505050509192919290803590602001906401000000008111156109ca57600080fd5b8201836020820111156109dc57600080fd5b803590602001918460018302840111640100000000831117156109fe57600080fd5b91908080601f016020809104026020016040519081016040528093929190818152602001838380828437600081840152601f19601f8201169050808301925050505050505091929192905050506131f0565b604051808215151515815260200191505060405180910390f35b348015610a7657600080fd5b50610ab960048036036020811015610a8d57600080fd5b81019080803573ffffffffffffffffffffffffffffffffffffffff1690602001909291905050506139a2565b604051808260ff1660ff16815260200191505060405180910390f35b348015610ae157600080fd5b50610b1b60048036036040811015610af857600080fd5b8101908080359060200190929190803560ff1690602001909291905050506139c2565b6040518083815260200180602001828103825283818151815260200191508051906020019060200280838360005b83811015610b64578082015181840152602081019050610b49565b50505050905001935050505060405180910390f35b348015610b8557600080fd5b50610bb260048036036020811015610b9c57600080fd5b8101908080359060200190929190505050613add565b005b348015610bc057600080fd5b50610bc9613b40565b604051808215151515815260200191505060405180910390f35b348015610bef57600080fd5b50610c3260048036036020811015610c0657600080fd5b81019080803573ffffffffffffffffffffffffffffffffffffffff169060200190929190505050613c0f565b604051808581526020018481526020018060200180602001838103835285818151815260200191508051906020019080838360005b83811015610c82578082015181840152602081019050610c67565b50505050905090810190601f168015610caf5780820380516001836020036101000a031916815260200191505b50838103825284818151815260200191508051906020019080838360005b83811015610ce8578082015181840152602081019050610ccd565b50505050905090810190601f168015610d155780820380516001836020036101000a031916815260200191505b50965050505050505060405180910390f35b348015610d3357600080fd5b50610d7660048036036020811015610d4a57600080fd5b81019080803573ffffffffffffffffffffffffffffffffffffffff1690602001909291905050506140b4565b604051808973ffffffffffffffffffffffffffffffffffffffff1673ffffffffffffffffffffffffffffffffffffffff1681526020018863ffffffff1663ffffffff168152602001878152602001868152602001858152602001806020018060200180602001848103845287818151815260200191508051906020019080838360005b83811015610e14578082015181840152602081019050610df9565b50505050905090810190601f168015610e415780820380516001836020036101000a031916815260200191505b50848103835286818151815260200191508051906020019080838360005b83811015610e7a578082015181840152602081019050610e5f565b50505050905090810190601f168015610ea75780820380516001836020036101000a031916815260200191505b50848103825285818151815260200191508051906020019080838360005b83811015610ee0578082015181840152602081019050610ec5565b50505050905090810190601f168015610f0d5780820380516001836020036101000a031916815260200191505b509b50505050505050505050505060405180910390f35b348015610f3057600080fd5b50610f7360048036036020811015610f4757600080fd5b81019080803573ffffffffffffffffffffffffffffffffffffffff16906020019092919050505061463c565b604051808a73ffffffffffffffffffffffffffffffffffffffff1673ffffffffffffffffffffffffffffffffffffffff168152602001891515151581526020018863ffffffff1663ffffffff168152602001878152602001868152602001858152602001806020018060200180602001848103845287818151815260200191508051906020019080838360005b8381101561101b578082015181840152602081019050611000565b50505050905090810190601f1680156110485780820380516001836020036101000a031916815260200191505b50848103835286818151815260200191508051906020019080838360005b83811015611081578082015181840152602081019050611066565b50505050905090810190601f1680156110ae5780820380516001836020036101000a031916815260200191505b50848103825285818151815260200191508051906020019080838360005b838110156110e75780820151818401526020810190506110cc565b50505050905090810190601f1680156111145780820380516001836020036101000a031916815260200191505b509c5050505050505050505050505060405180910390f35b34801561113857600080fd5b5061117b6004803603602081101561114f57600080fd5b81019080803573ffffffffffffffffffffffffffffffffffffffff16906020019092919050505061488f565b005b34801561118957600080fd5b506111926149e0565b6040518082815260200191505060405180910390f35b3480156111b457600080fd5b506111f7600480360360208110156111cb57600080fd5b81019080803573ffffffffffffffffffffffffffffffffffffffff1690602001909291905050506149e6565b604051808581526020018481526020018060200180602001838103835285818151815260200191508051906020019080838360005b8381101561124757808201518184015260208101905061122c565b50505050905090810190601f1680156112745780820380516001836020036101000a031916815260200191505b50838103825284818151815260200191508051906020019080838360005b838110156112ad578082015181840152602081019050611292565b50505050905090810190601f1680156112da5780820380516001836020036101000a031916815260200191505b50965050505050505060405180910390f35b60085481565b60065481565b60055481565b60008060149054906101000a900460ff161561131957600080fd5b600073ffffffffffffffffffffffffffffffffffffffff168273ffffffffffffffffffffffffffffffffffffffff1614156113bc576040517f08c379a00000000000000000000000000000000000000000000000000000000081526004018080602001828103825260168152602001807f696e76616c69642064657669636520616464726573730000000000000000000081525060200191505060405180910390fd5b6000600260008473ffffffffffffffffffffffffffffffffffffffff1673ffffffffffffffffffffffffffffffffffffffff1681526020019081526020016000206005018054600181600116156101000203166002900490501415611489576040517f08c379a000000000000000000000000000000000000000000000000000000000815260040180806020018281038252600e8152602001807f6e6f20737563682064657669636500000000000000000000000000000000000081525060200191505060405180910390fd5b6000600260008473ffffffffffffffffffffffffffffffffffffffff1673ffffffffffffffffffffffffffffffffffffffff1681526020019081526020016000206006018054600181600116156101000203166002900490501415611556576040517f08c379a000000000000000000000000000000000000000000000000000000000815260040180806020018281038252600e8152602001807f6e6f20737563682064657669636500000000000000000000000000000000000081525060200191505060405180910390fd5b3373ffffffffffffffffffffffffffffffffffffffff16600260008473ffffffffffffffffffffffffffffffffffffffff1673ffffffffffffffffffffffffffffffffffffffff16815260200190815260200160002060000160009054906101000a900473ffffffffffffffffffffffffffffffffffffffff1673ffffffffffffffffffffffffffffffffffffffff1614611659576040517f08c379a00000000000000000000000000000000000000000000000000000000081526004018080602001828103825260098152602001807f6e6f74206f776e6572000000000000000000000000000000000000000000000081525060200191505060405180910390fd5b600260008373ffffffffffffffffffffffffffffffffffffffff1673ffffffffffffffffffffffffffffffffffffffff16815260200190815260200160002060000160149054906101000a900460ff1661171b576040517f08c379a00000000000000000000000000000000000000000000000000000000081526004018080602001828103825260198152602001807f646576696365206e6f742079657420737562736372696265640000000000000081525060200191505060405180910390fd5b43600360008473ffffffffffffffffffffffffffffffffffffffff1673ffffffffffffffffffffffffffffffffffffffff16815260200190815260200160002060010154600360008573ffffffffffffffffffffffffffffffffffffffff1673ffffffffffffffffffffffffffffffffffffffff168152602001908152602001600020600001540110611816576040517f08c379a000000000000000000000000000000000000000000000000000000000815260040180806020018281038252601d8152602001807f64657669636520696e2061637469766520737562736372697074696f6e00000081525060200191505060405180910390fd5b6000600260008473ffffffffffffffffffffffffffffffffffffffff1673ffffffffffffffffffffffffffffffffffffffff168152602001908152602001600020600301541115611987576118f8600260008473ffffffffffffffffffffffffffffffffffffffff1673ffffffffffffffffffffffffffffffffffffffff16815260200190815260200160002060030154600260008573ffffffffffffffffffffffffffffffffffffffff1673ffffffffffffffffffffffffffffffffffffffff16815260200190815260200160002060020154614b4690919063ffffffff16565b600260008473ffffffffffffffffffffffffffffffffffffffff1673ffffffffffffffffffffffffffffffffffffffff168152602001908152602001600020600201819055506000600260008473ffffffffffffffffffffffffffffffffffffffff1673ffffffffffffffffffffffffffffffffffffffff168152602001908152602001600020600301819055505b6000600260008473ffffffffffffffffffffffffffffffffffffffff1673ffffffffffffffffffffffffffffffffffffffff16815260200190815260200160002060020154905060008111611a44576040517f08c379a000000000000000000000000000000000000000000000000000000000815260040180806020018281038252600a8152602001807f6e6f2062616c616e63650000000000000000000000000000000000000000000081525060200191505060405180910390fd5b6000600260008573ffffffffffffffffffffffffffffffffffffffff1673ffffffffffffffffffffffffffffffffffffffff168152602001908152602001600020600201819055503373ffffffffffffffffffffffffffffffffffffffff166108fc829081150290604051600060405180830381858888f19350505050158015611ad2573d6000803e3d6000fd5b503373ffffffffffffffffffffffffffffffffffffffff168373ffffffffffffffffffffffffffffffffffffffff167ff7a40077ff7a04c7e61f6f26fb13774259ddf1b6bce9ecf26a8276cdd3992683836040518082815260200191505060405180910390a36001915050919050565b60008060149054906101000a900460ff1615611b5d57600080fd5b600073ffffffffffffffffffffffffffffffffffffffff168773ffffffffffffffffffffffffffffffffffffffff161415611c00576040517f08c379a00000000000000000000000000000000000000000000000000000000081526004018080602001828103825260168152602001807f696e76616c69642064657669636520616464726573730000000000000000000081525060200191505060405180910390fd5b6000600260008973ffffffffffffffffffffffffffffffffffffffff1673ffffffffffffffffffffffffffffffffffffffff1681526020019081526020016000206005018054600181600116156101000203166002900490501415611ccd576040517f08c379a00000000000000000000000000000000000000000000000000000000081526004018080602001828103825260128152602001807f6e6f74207965742072656769737465726564000000000000000000000000000081525060200191505060405180910390fd5b6000600260008973ffffffffffffffffffffffffffffffffffffffff1673ffffffffffffffffffffffffffffffffffffffff1681526020019081526020016000206006018054600181600116156101000203166002900490501415611d9a576040517f08c379a00000000000000000000000000000000000000000000000000000000081526004018080602001828103825260128152602001807f6e6f74207965742072656769737465726564000000000000000000000000000081525060200191505060405180910390fd5b3373ffffffffffffffffffffffffffffffffffffffff16600260008973ffffffffffffffffffffffffffffffffffffffff1673ffffffffffffffffffffffffffffffffffffffff16815260200190815260200160002060000160009054906101000a900473ffffffffffffffffffffffffffffffffffffffff1673ffffffffffffffffffffffffffffffffffffffff1614611e9d576040517f08c379a00000000000000000000000000000000000000000000000000000000081526004018080602001828103825260098152602001807f6e6f74206f776e6572000000000000000000000000000000000000000000000081525060200191505060405180910390fd5b600083511415611f15576040517f08c379a00000000000000000000000000000000000000000000000000000000081526004018080602001828103825260198152602001807f525341207075626c6963206b6579204e2072657175697265640000000000000081525060200191505060405180910390fd5b600082511415611f8d576040517f08c379a00000000000000000000000000000000000000000000000000000000081526004018080602001828103825260198152602001807f525341207075626c6963206b657920452072657175697265640000000000000081525060200191505060405180910390fd5b60008663ffffffff16141561200a576040517f08c379a00000000000000000000000000000000000000000000000000000000081526004018080602001828103825260188152602001807f6672657175656e63652063616e6e6f74206265207a65726f000000000000000081525060200191505060405180910390fd5b6000845111612081576040517f08c379a00000000000000000000000000000000000000000000000000000000081526004018080602001828103825260148152602001807f737065632075726c20697320726571756972656400000000000000000000000081525060200191505060405180910390fd5b600260008873ffffffffffffffffffffffffffffffffffffffff1673ffffffffffffffffffffffffffffffffffffffff16815260200190815260200160002060000160149054906101000a900460ff16156121d25743600360008973ffffffffffffffffffffffffffffffffffffffff1673ffffffffffffffffffffffffffffffffffffffff16815260200190815260200160002060010154600360008a73ffffffffffffffffffffffffffffffffffffffff1673ffffffffffffffffffffffffffffffffffffffff1681526020019081526020016000206000015401106121d1576040517f08c379a000000000000000000000000000000000000000000000000000000000815260040180806020018281038252601d8152602001807f64657669636520696e2061637469766520737562736372697074696f6e00000081525060200191505060405180910390fd5b5b85600260008973ffffffffffffffffffffffffffffffffffffffff1673ffffffffffffffffffffffffffffffffffffffff16815260200190815260200160002060000160156101000a81548163ffffffff021916908363ffffffff16021790555084600260008973ffffffffffffffffffffffffffffffffffffffff1673ffffffffffffffffffffffffffffffffffffffff1681526020019081526020016000206001018190555083600260008973ffffffffffffffffffffffffffffffffffffffff1673ffffffffffffffffffffffffffffffffffffffff16815260200190815260200160002060040190805190602001906122d0929190614bab565b5082600260008973ffffffffffffffffffffffffffffffffffffffff1673ffffffffffffffffffffffffffffffffffffffff1681526020019081526020016000206005019080519060200190612327929190614c2b565b5081600260008973ffffffffffffffffffffffffffffffffffffffff1673ffffffffffffffffffffffffffffffffffffffff168152602001908152602001600020600601908051906020019061237e929190614c2b565b503373ffffffffffffffffffffffffffffffffffffffff168773ffffffffffffffffffffffffffffffffffffffff167f993576713ea122d695df7af44f9cf0f866bcd7ea1be5049bebcce77edb9332c860405160405180910390a3600190509695505050505050565b60008060009054906101000a900473ffffffffffffffffffffffffffffffffffffffff1673ffffffffffffffffffffffffffffffffffffffff163373ffffffffffffffffffffffffffffffffffffffff161461244257600080fd5b600060149054906101000a900460ff161561245c57600080fd5b6000600460008473ffffffffffffffffffffffffffffffffffffffff1673ffffffffffffffffffffffffffffffffffffffff16815260200190815260200160002060009054906101000a900460ff1660ff1614612521576040517f08c379a00000000000000000000000000000000000000000000000000000000081526004018080602001828103825260138152602001807f616c72656164792077686974656c69737465640000000000000000000000000081525060200191505060405180910390fd5b6001600460008473ffffffffffffffffffffffffffffffffffffffff1673ffffffffffffffffffffffffffffffffffffffff16815260200190815260200160002060006101000a81548160ff021916908360ff16021790555060019050919050565b6001818154811061259057fe5b906000526020600020016000915054906101000a900473ffffffffffffffffffffffffffffffffffffffff1681565b6000809054906101000a900473ffffffffffffffffffffffffffffffffffffffff1673ffffffffffffffffffffffffffffffffffffffff163373ffffffffffffffffffffffffffffffffffffffff161461261857600080fd5b600060149054906101000a900460ff1661263157600080fd5b60008060146101000a81548160ff0219169083151502179055507f7805862f689e2f13df9f062ff482ad3ad112aca9e0847911ed832e158c525b3360405160405180910390a1565b60008060149054906101000a900460ff161561269457600080fd5b600073ffffffffffffffffffffffffffffffffffffffff168573ffffffffffffffffffffffffffffffffffffffff161415612737576040517f08c379a00000000000000000000000000000000000000000000000000000000081526004018080602001828103825260168152602001807f696e76616c69642064657669636520616464726573730000000000000000000081525060200191505060405180910390fd5b6000600260008773ffffffffffffffffffffffffffffffffffffffff1673ffffffffffffffffffffffffffffffffffffffff1681526020019081526020016000206005018054600181600116156101000203166002900490501415612804576040517f08c379a000000000000000000000000000000000000000000000000000000000815260040180806020018281038252600e8152602001807f6e6f20737563682064657669636500000000000000000000000000000000000081525060200191505060405180910390fd5b6000600260008773ffffffffffffffffffffffffffffffffffffffff1673ffffffffffffffffffffffffffffffffffffffff16815260200190815260200160002060060180546001816001161561010002031660029004905014156128d1576040517f08c379a000000000000000000000000000000000000000000000000000000000815260040180806020018281038252600e8152602001807f6e6f20737563682064657669636500000000000000000000000000000000000081525060200191505060405180910390fd5b6000835111612948576040517f08c379a00000000000000000000000000000000000000000000000000000000081526004018080602001828103825260198152602001807f73746f7261676520656e64706f696e742072657175697265640000000000000081525060200191505060405180910390fd5b60008411801561295b57506217bb008411155b6129cd576040517f08c379a00000000000000000000000000000000000000000000000000000000081526004018080602001828103825260168152602001807f696e617070726f707269617465206475726174696f6e0000000000000000000081525060200191505060405180910390fd5b612a22600260008773ffffffffffffffffffffffffffffffffffffffff1673ffffffffffffffffffffffffffffffffffffffff1681526020019081526020016000206001015485614b6090919063ffffffff16565b60065401341015612a9b576040517f08c379a000000000000000000000000000000000000000000000000000000000815260040180806020018281038252600e8152602001807f6e6f7420656e6f7567682066656500000000000000000000000000000000000081525060200191505060405180910390fd5b600260008673ffffffffffffffffffffffffffffffffffffffff1673ffffffffffffffffffffffffffffffffffffffff16815260200190815260200160002060000160149054906101000a900460ff1615612d2c5743600360008773ffffffffffffffffffffffffffffffffffffffff1673ffffffffffffffffffffffffffffffffffffffff16815260200190815260200160002060010154600360008873ffffffffffffffffffffffffffffffffffffffff1673ffffffffffffffffffffffffffffffffffffffff168152602001908152602001600020600001540110612beb576040517f08c379a000000000000000000000000000000000000000000000000000000000815260040180806020018281038252601d8152602001807f64657669636520696e2061637469766520737562736372697074696f6e00000081525060200191505060405180910390fd5b43600360008773ffffffffffffffffffffffffffffffffffffffff1673ffffffffffffffffffffffffffffffffffffffff1681526020019081526020016000206000018190555083600360008773ffffffffffffffffffffffffffffffffffffffff1673ffffffffffffffffffffffffffffffffffffffff1681526020019081526020016000206001018190555082600360008773ffffffffffffffffffffffffffffffffffffffff1673ffffffffffffffffffffffffffffffffffffffff1681526020019081526020016000206002019080519060200190612ccf929190614bab565b5081600360008773ffffffffffffffffffffffffffffffffffffffff1673ffffffffffffffffffffffffffffffffffffffff1681526020019081526020016000206003019080519060200190612d26929190614bab565b50612e39565b6001600260008773ffffffffffffffffffffffffffffffffffffffff1673ffffffffffffffffffffffffffffffffffffffff16815260200190815260200160002060000160146101000a81548160ff021916908315150217905550604051806080016040528043815260200185815260200184815260200183815250600360008773ffffffffffffffffffffffffffffffffffffffff1673ffffffffffffffffffffffffffffffffffffffff16815260200190815260200160002060008201518160000155602082015181600101556040820151816002019080519060200190612e17929190614cab565b506060820151816003019080519060200190612e34929190614cab565b509050505b6006546008600082825401925050819055506000600260008773ffffffffffffffffffffffffffffffffffffffff1673ffffffffffffffffffffffffffffffffffffffff168152602001908152602001600020600301541115612f7457612f2d600260008773ffffffffffffffffffffffffffffffffffffffff1673ffffffffffffffffffffffffffffffffffffffff16815260200190815260200160002060030154600260008873ffffffffffffffffffffffffffffffffffffffff1673ffffffffffffffffffffffffffffffffffffffff16815260200190815260200160002060020154614b4690919063ffffffff16565b600260008773ffffffffffffffffffffffffffffffffffffffff1673ffffffffffffffffffffffffffffffffffffffff168152602001908152602001600020600201819055505b612f8960065434614b9490919063ffffffff16565b600260008773ffffffffffffffffffffffffffffffffffffffff1673ffffffffffffffffffffffffffffffffffffffff168152602001908152602001600020600301819055503373ffffffffffffffffffffffffffffffffffffffff168573ffffffffffffffffffffffffffffffffffffffff167f1faf2b5a74c296487268de9f9e3ddf269ca3980197cda4ee5c927ac895aeee884387600260008b73ffffffffffffffffffffffffffffffffffffffff1673ffffffffffffffffffffffffffffffffffffffff1681526020019081526020016000206003015460405180848152602001838152602001828152602001935050505060405180910390a360019050949350505050565b600060149054906101000a900460ff1681565b6000809054906101000a900473ffffffffffffffffffffffffffffffffffffffff1673ffffffffffffffffffffffffffffffffffffffff163373ffffffffffffffffffffffffffffffffffffffff16146130fe57600080fd5b8060068190555050565b6217bb0081565b6000809054906101000a900473ffffffffffffffffffffffffffffffffffffffff1673ffffffffffffffffffffffffffffffffffffffff163373ffffffffffffffffffffffffffffffffffffffff161461316857600080fd5b600060149054906101000a900460ff161561318257600080fd5b6001600060146101000a81548160ff0219169083151502179055507f6985a02210a168e66602d3235cb6db0e70f92b3ba4d376a33c0f3d9434bff62560405160405180910390a1565b6000809054906101000a900473ffffffffffffffffffffffffffffffffffffffff1681565b60008060149054906101000a900460ff161561320b57600080fd5b6001600460008973ffffffffffffffffffffffffffffffffffffffff1673ffffffffffffffffffffffffffffffffffffffff16815260200190815260200160002060009054906101000a900460ff1660ff16146132d0576040517f08c379a000000000000000000000000000000000000000000000000000000000815260040180806020018281038252600e8152602001807f6964206e6f7420616c6c6f77656400000000000000000000000000000000000081525060200191505060405180910390fd5b6000600260008973ffffffffffffffffffffffffffffffffffffffff1673ffffffffffffffffffffffffffffffffffffffff1681526020019081526020016000206005018054600181600116156101000203166002900490501461339c576040517f08c379a00000000000000000000000000000000000000000000000000000000081526004018080602001828103825260128152602001807f616c72656164792072656769737465726564000000000000000000000000000081525060200191505060405180910390fd5b6000600260008973ffffffffffffffffffffffffffffffffffffffff1673ffffffffffffffffffffffffffffffffffffffff16815260200190815260200160002060060180546001816001161561010002031660029004905014613468576040517f08c379a00000000000000000000000000000000000000000000000000000000081526004018080602001828103825260128152602001807f616c72656164792072656769737465726564000000000000000000000000000081525060200191505060405180910390fd5b6000835114156134e0576040517f08c379a00000000000000000000000000000000000000000000000000000000081526004018080602001828103825260198152602001807f525341207075626c6963206b6579204e2072657175697265640000000000000081525060200191505060405180910390fd5b600082511415613558576040517f08c379a00000000000000000000000000000000000000000000000000000000081526004018080602001828103825260198152602001807f525341207075626c6963206b657920452072657175697265640000000000000081525060200191505060405180910390fd5b60008663ffffffff1610156135d5576040517f08c379a000000000000000000000000000000000000000000000000000000000815260040180806020018281038252601e8152602001807f6672657175656e6365206e6565647320746f20626520706f736974697665000081525060200191505060405180910390fd5b600084511161364c576040517f08c379a00000000000000000000000000000000000000000000000000000000081526004018080602001828103825260148152602001807f737065632075726c20697320726571756972656400000000000000000000000081525060200191505060405180910390fd5b6005543410156136c4576040517f08c379a000000000000000000000000000000000000000000000000000000000815260040180806020018281038252600e8152602001807f6e6f7420656e6f7567682066656500000000000000000000000000000000000081525060200191505060405180910390fd5b346007600082825401925050819055506040518061012001604052803373ffffffffffffffffffffffffffffffffffffffff1681526020016000151581526020018763ffffffff168152602001868152602001600081526020016000815260200185815260200184815260200183815250600260008973ffffffffffffffffffffffffffffffffffffffff1673ffffffffffffffffffffffffffffffffffffffff16815260200190815260200160002060008201518160000160006101000a81548173ffffffffffffffffffffffffffffffffffffffff021916908373ffffffffffffffffffffffffffffffffffffffff16021790555060208201518160000160146101000a81548160ff02191690831515021790555060408201518160000160156101000a81548163ffffffff021916908363ffffffff160217905550606082015181600101556080820151816002015560a0820151816003015560c082015181600401908051906020019061383c929190614cab565b5060e0820151816005019080519060200190613859929190614d2b565b50610100820151816006019080519060200190613877929190614d2b565b5090505060018790806001815401808255809150509060018203906000526020600020016000909192909190916101000a81548173ffffffffffffffffffffffffffffffffffffffff021916908373ffffffffffffffffffffffffffffffffffffffff160217905550506002600460008973ffffffffffffffffffffffffffffffffffffffff1673ffffffffffffffffffffffffffffffffffffffff16815260200190815260200160002060006101000a81548160ff021916908360ff1602179055503373ffffffffffffffffffffffffffffffffffffffff168773ffffffffffffffffffffffffffffffffffffffff167f0a31ee9d46a828884b81003c8498156ea6aa15b9b54bdd0ef0b533d9eba57e5560405160405180910390a3600190509695505050505050565b60046020528060005260406000206000915054906101000a900460ff1681565b60006060600180549050841080156139de575060008360ff1614155b6139e757600080fd5b8260ff16604051908082528060200260200182016040528015613a195781602001602082028038833980820191505090505b50905060008090505b8360ff16811015613ad55760018054905081860110613a4057613ad5565b600181860181548110613a4f57fe5b9060005260206000200160009054906101000a900473ffffffffffffffffffffffffffffffffffffffff16828481518110613a8657fe5b602002602001019073ffffffffffffffffffffffffffffffffffffffff16908173ffffffffffffffffffffffffffffffffffffffff168152505082806001019350508080600101915050613a22565b509250929050565b6000809054906101000a900473ffffffffffffffffffffffffffffffffffffffff1673ffffffffffffffffffffffffffffffffffffffff163373ffffffffffffffffffffffffffffffffffffffff1614613b3657600080fd5b8060058190555050565b60008060009054906101000a900473ffffffffffffffffffffffffffffffffffffffff1673ffffffffffffffffffffffffffffffffffffffff163373ffffffffffffffffffffffffffffffffffffffff1614613b9b57600080fd5b60006008546007540190506000811115613c0757600060078190555060006008819055503373ffffffffffffffffffffffffffffffffffffffff166108fc829081150290604051600060405180830381858888f19350505050158015613c05573d6000803e3d6000fd5b505b600191505090565b600080606080600073ffffffffffffffffffffffffffffffffffffffff168573ffffffffffffffffffffffffffffffffffffffff161415613cb8576040517f08c379a00000000000000000000000000000000000000000000000000000000081526004018080602001828103825260168152602001807f696e76616c69642064657669636520616464726573730000000000000000000081525060200191505060405180910390fd5b6000600260008773ffffffffffffffffffffffffffffffffffffffff1673ffffffffffffffffffffffffffffffffffffffff1681526020019081526020016000206005018054600181600116156101000203166002900490501415613d85576040517f08c379a000000000000000000000000000000000000000000000000000000000815260040180806020018281038252600e8152602001807f6e6f20737563682064657669636500000000000000000000000000000000000081525060200191505060405180910390fd5b6000600260008773ffffffffffffffffffffffffffffffffffffffff1673ffffffffffffffffffffffffffffffffffffffff1681526020019081526020016000206006018054600181600116156101000203166002900490501415613e52576040517f08c379a000000000000000000000000000000000000000000000000000000000815260040180806020018281038252600e8152602001807f6e6f20737563682064657669636500000000000000000000000000000000000081525060200191505060405180910390fd5b600260008673ffffffffffffffffffffffffffffffffffffffff1673ffffffffffffffffffffffffffffffffffffffff16815260200190815260200160002060000160149054906101000a900460ff161561407b57613eaf614dab565b600360008773ffffffffffffffffffffffffffffffffffffffff1673ffffffffffffffffffffffffffffffffffffffff1681526020019081526020016000206040518060800160405290816000820154815260200160018201548152602001600282018054600181600116156101000203166002900480601f016020809104026020016040519081016040528092919081815260200182805460018160011615610100020316600290048015613fa65780601f10613f7b57610100808354040283529160200191613fa6565b820191906000526020600020905b815481529060010190602001808311613f8957829003601f168201915b50505050508152602001600382018054600181600116156101000203166002900480601f0160208091040260200160405190810160405280929190818152602001828054600181600116156101000203166002900480156140485780601f1061401d57610100808354040283529160200191614048565b820191906000526020600020905b81548152906001019060200180831161402b57829003601f168201915b505050505081525050905080600001518160200151826040015183606001518191508090509450945094509450506140ad565b600080819150809050604051806020016040528060008152506040518060200160405280600081525093509350935093505b9193509193565b60008060008060006060806060600073ffffffffffffffffffffffffffffffffffffffff168973ffffffffffffffffffffffffffffffffffffffff161415614164576040517f08c379a00000000000000000000000000000000000000000000000000000000081526004018080602001828103825260168152602001807f696e76616c69642064657669636520616464726573730000000000000000000081525060200191505060405180910390fd5b6000600260008b73ffffffffffffffffffffffffffffffffffffffff1673ffffffffffffffffffffffffffffffffffffffff1681526020019081526020016000206005018054600181600116156101000203166002900490501415614231576040517f08c379a000000000000000000000000000000000000000000000000000000000815260040180806020018281038252600e8152602001807f6e6f20737563682064657669636500000000000000000000000000000000000081525060200191505060405180910390fd5b6000600260008b73ffffffffffffffffffffffffffffffffffffffff1673ffffffffffffffffffffffffffffffffffffffff16815260200190815260200160002060060180546001816001161561010002031660029004905014156142fe576040517f08c379a000000000000000000000000000000000000000000000000000000000815260040180806020018281038252600e8152602001807f6e6f20737563682064657669636500000000000000000000000000000000000081525060200191505060405180910390fd5b614306614dd3565b600260008b73ffffffffffffffffffffffffffffffffffffffff1673ffffffffffffffffffffffffffffffffffffffff168152602001908152602001600020604051806101200160405290816000820160009054906101000a900473ffffffffffffffffffffffffffffffffffffffff1673ffffffffffffffffffffffffffffffffffffffff1673ffffffffffffffffffffffffffffffffffffffff1681526020016000820160149054906101000a900460ff161515151581526020016000820160159054906101000a900463ffffffff1663ffffffff1663ffffffff168152602001600182015481526020016002820154815260200160038201548152602001600482018054600181600116156101000203166002900480601f01602080910402602001604051908101604052809291908181526020018280546001816001161561010002031660029004801561449f5780601f106144745761010080835404028352916020019161449f565b820191906000526020600020905b81548152906001019060200180831161448257829003601f168201915b50505050508152602001600582018054600181600116156101000203166002900480601f0160208091040260200160405190810160405280929190818152602001828054600181600116156101000203166002900480156145415780601f1061451657610100808354040283529160200191614541565b820191906000526020600020905b81548152906001019060200180831161452457829003601f168201915b50505050508152602001600682018054600181600116156101000203166002900480601f0160208091040260200160405190810160405280929190818152602001828054600181600116156101000203166002900480156145e35780601f106145b8576101008083540402835291602001916145e3565b820191906000526020600020905b8154815290600101906020018083116145c657829003601f168201915b505050505081525050905080600001518160400151826060015183608001518460a001518560c001518660e001518761010001518292508191508090509850985098509850985098509850985050919395975091939597565b60026020528060005260406000206000915090508060000160009054906101000a900473ffffffffffffffffffffffffffffffffffffffff16908060000160149054906101000a900460ff16908060000160159054906101000a900463ffffffff1690806001015490806002015490806003015490806004018054600181600116156101000203166002900480601f0160208091040260200160405190810160405280929190818152602001828054600181600116156101000203166002900480156147495780601f1061471e57610100808354040283529160200191614749565b820191906000526020600020905b81548152906001019060200180831161472c57829003601f168201915b505050505090806005018054600181600116156101000203166002900480601f0160208091040260200160405190810160405280929190818152602001828054600181600116156101000203166002900480156147e75780601f106147bc576101008083540402835291602001916147e7565b820191906000526020600020905b8154815290600101906020018083116147ca57829003601f168201915b505050505090806006018054600181600116156101000203166002900480601f0160208091040260200160405190810160405280929190818152602001828054600181600116156101000203166002900480156148855780601f1061485a57610100808354040283529160200191614885565b820191906000526020600020905b81548152906001019060200180831161486857829003601f168201915b5050505050905089565b6000809054906101000a900473ffffffffffffffffffffffffffffffffffffffff1673ffffffffffffffffffffffffffffffffffffffff163373ffffffffffffffffffffffffffffffffffffffff16146148e857600080fd5b600073ffffffffffffffffffffffffffffffffffffffff168173ffffffffffffffffffffffffffffffffffffffff16141561492257600080fd5b8073ffffffffffffffffffffffffffffffffffffffff166000809054906101000a900473ffffffffffffffffffffffffffffffffffffffff1673ffffffffffffffffffffffffffffffffffffffff167f8be0079c531659141344cd1fd0a4f28419497f9722a3daafe3b4186f6b6457e060405160405180910390a3806000806101000a81548173ffffffffffffffffffffffffffffffffffffffff021916908373ffffffffffffffffffffffffffffffffffffffff16021790555050565b60075481565b6003602052806000526040600020600091509050806000015490806001015490806002018054600181600116156101000203166002900480601f016020809104026020016040519081016040528092919081815260200182805460018160011615610100020316600290048015614a9e5780601f10614a7357610100808354040283529160200191614a9e565b820191906000526020600020905b815481529060010190602001808311614a8157829003601f168201915b505050505090806003018054600181600116156101000203166002900480601f016020809104026020016040519081016040528092919081815260200182805460018160011615610100020316600290048015614b3c5780601f10614b1157610100808354040283529160200191614b3c565b820191906000526020600020905b815481529060010190602001808311614b1f57829003601f168201915b5050505050905084565b6000818301905082811015614b5757fe5b80905092915050565b600080831415614b735760009050614b8e565b818302905081838281614b8257fe5b0414614b8a57fe5b8090505b92915050565b600082821115614ba057fe5b818303905092915050565b828054600181600116156101000203166002900490600052602060002090601f016020900481019282601f10614bec57805160ff1916838001178555614c1a565b82800160010185558215614c1a579182015b82811115614c19578251825591602001919060010190614bfe565b5b509050614c279190614e3d565b5090565b828054600181600116156101000203166002900490600052602060002090601f016020900481019282601f10614c6c57805160ff1916838001178555614c9a565b82800160010185558215614c9a579182015b82811115614c99578251825591602001919060010190614c7e565b5b509050614ca79190614e3d565b5090565b828054600181600116156101000203166002900490600052602060002090601f016020900481019282601f10614cec57805160ff1916838001178555614d1a565b82800160010185558215614d1a579182015b82811115614d19578251825591602001919060010190614cfe565b5b509050614d279190614e3d565b5090565b828054600181600116156101000203166002900490600052602060002090601f016020900481019282601f10614d6c57805160ff1916838001178555614d9a565b82800160010185558215614d9a579182015b82811115614d99578251825591602001919060010190614d7e565b5b509050614da79190614e3d565b5090565b6040518060800160405280600081526020016000815260200160608152602001606081525090565b604051806101200160405280600073ffffffffffffffffffffffffffffffffffffffff168152602001600015158152602001600063ffffffff1681526020016000815260200160008152602001600081526020016060815260200160608152602001606081525090565b614e5f91905b80821115614e5b576000816000905550600101614e43565b5090565b9056fea265627a7a7231582020472298d91d7c45ecd7317783d10985bf4dbea6238d686620983ed6769d988964736f6c634300050c0032",
  "source": "pragma solidity <6.0 >=0.4.24;\n\nimport \"./Pausable.sol\";\nimport \"./SafeMath.sol\";\n\ncontract Prophecy is Pausable {\n  using SafeMath for uint256;\n\n  event Registered(address indexed deviceID, address indexed owner); // add more details if necessary\n  event Subscribed(address indexed deviceID, address indexed subscriber, uint256 startHeight, uint256 duration, uint256 income);\n  event Claimed(address indexed deviceID, address indexed claimer, uint256 amount);\n  event Updated(address indexed deviceID, address indexed owner); // add more details if necessary\n\n  /// STORAGE MAPPINGS\n  address[] public deviceIDs;\n  mapping (address => Device) public devices;\n  mapping (address => Order) public orders;\n  mapping (address => uint8) public whitelist; // whitelisted device addresses\n\n  uint256 public registrationFee;\n  uint256 public subscriptionFee;\n  uint256 public registrationFeeTotal;\n  uint256 public subscriptionFeeTotal;\n\n  uint256 public constant maxDuration = 86400 / 5 * 90; // 90 days\n\n  /// TYPES\n  struct Device {\n      // Intrinsic properties\n      address owner;          // owner's address\n      bool    hasOrder;       // order placed\n      uint32  freq;           // how many seconds per data point\n      uint256 pricePerBlock;  // in terms of IOTX, in RAUL/Wei (which 1e-18)\n      uint256 settledBalance; // balance ready to claim\n      uint256 pendingBalance; // balance in pending\n      string  spec;           // link to the spec\n      bytes   rsaPubkeyN;     // RSA public key N\n      bytes   rsaPubkeyE;     // RSA public key E\n  }\n\n  struct Order {\n      // Order info\n      uint256 startHeight;  // the height starting from which this device's data stream is bought\n      uint256 duration;     // how many blocks this order lasts\n      string storageEPoint; // storage endpoint buyer provides\n      string storageToken;  // access token to the storage endpoint, encrypted by devicePublicKey\n  }\n\n  // CONSTRUCTOR\n  constructor () public {\n  }\n\n  // EXTERNAL FUNCTIONS\n  function setRegistrationFee(uint256 fee) public onlyOwner {\n    registrationFee = fee;\n  }\n\n  function setSubscriptionFee(uint256 fee) public onlyOwner {\n    subscriptionFee = fee;\n  }\n\n  // Populate the whitelist after manufacturing\n  function preRegisterDevice(address _deviceAddr)\n    public onlyOwner whenNotPaused returns (bool)\n    {\n      require(whitelist[_deviceAddr] == 0, \"already whitelisted\");\n\n      whitelist[_deviceAddr] = 1;\n      return true;\n    }\n\n  // Pay to Register the device\n  function registerDevice(\n    address _deviceAddr,\n    uint32 _freq,\n    uint256 _price,\n    string memory _spec,\n    bytes memory _rsaPubkeyN,\n    bytes memory _rsaPubkeyE\n    )\n    public whenNotPaused payable returns (bool)\n    {\n      //require(_ownerAddr != address(0), \"invalid owner address\");\n      require(whitelist[_deviceAddr] == 1, \"id not allowed\");\n      require(devices[_deviceAddr].rsaPubkeyN.length == 0, \"already registered\");\n      require(devices[_deviceAddr].rsaPubkeyE.length == 0, \"already registered\");\n      require(_rsaPubkeyN.length != 0, \"RSA public key N required\");\n      require(_rsaPubkeyE.length != 0, \"RSA public key E required\");\n      require(_freq >= 0, \"frequence needs to be positive\");\n      require(bytes(_spec).length > 0, \"spec url is required\");\n      require(msg.value >= registrationFee, \"not enough fee\");\n\n      registrationFeeTotal += msg.value;\n      devices[_deviceAddr] = Device(msg.sender, false, _freq, _price, 0, 0, _spec, _rsaPubkeyN, _rsaPubkeyE);\n      deviceIDs.push(_deviceAddr);\n      whitelist[_deviceAddr] = 2;\n      emit Registered(_deviceAddr, msg.sender);\n      return true;\n    }\n\n    // Update info about a registered device\n    function updateDevice(\n      address _deviceAddr,\n      uint32 _freq,\n      uint256 _price,\n      string memory _spec,\n      bytes memory _rsaPubkeyN,\n      bytes memory _rsaPubkeyE\n      )\n      public whenNotPaused returns (bool)\n      {\n        require(_deviceAddr != address(0), \"invalid device address\");\n        require(devices[_deviceAddr].rsaPubkeyN.length != 0, \"not yet registered\");\n        require(devices[_deviceAddr].rsaPubkeyE.length != 0, \"not yet registered\");\n        require(devices[_deviceAddr].owner == msg.sender, \"not owner\");\n        require(_rsaPubkeyN.length != 0, \"RSA public key N required\");\n        require(_rsaPubkeyE.length != 0, \"RSA public key E required\");\n        require(_freq != 0, \"frequence cannot be zero\");\n        require(bytes(_spec).length > 0, \"spec url is required\");\n\n        // To be on the safe side, tho we can allow change when a device is subscribed\n        if (devices[_deviceAddr].hasOrder) {\n          require(orders[_deviceAddr].startHeight + orders[_deviceAddr].duration < block.number, \"device in active subscription\");\n        }\n\n        devices[_deviceAddr].freq = _freq;\n        devices[_deviceAddr].pricePerBlock = _price;\n        devices[_deviceAddr].spec = _spec;\n        devices[_deviceAddr].rsaPubkeyN = _rsaPubkeyN;\n        devices[_deviceAddr].rsaPubkeyE = _rsaPubkeyE;\n        emit Updated(_deviceAddr, msg.sender);\n        return true;\n      }\n\n  // Pay to subscribe to the device's data stream\n  function subscribe(\n    address _deviceAddr,\n    uint256 _duration,\n    string memory _storageEPoint,\n    string memory _storageToken\n    ) public whenNotPaused payable returns (bool)\n  {\n    require(_deviceAddr != address(0), \"invalid device address\");\n    require(devices[_deviceAddr].rsaPubkeyN.length != 0, \"no such device\");\n    require(devices[_deviceAddr].rsaPubkeyE.length != 0, \"no such device\");\n    require(bytes(_storageEPoint).length > 0, \"storage endpoint required\");\n    require(_duration > 0 && _duration <= maxDuration, \"inappropriate duration\");\n    require(msg.value >= subscriptionFee + _duration.mul(devices[_deviceAddr].pricePerBlock), \"not enough fee\");\n\n    if (devices[_deviceAddr].hasOrder) {\n      require(orders[_deviceAddr].startHeight + orders[_deviceAddr].duration < block.number, \"device in active subscription\");\n      orders[_deviceAddr].startHeight = block.number;\n      orders[_deviceAddr].duration = _duration;\n      orders[_deviceAddr].storageEPoint = _storageEPoint;\n      orders[_deviceAddr].storageToken = _storageToken;\n    } else {\n      // first time subscrible\n      devices[_deviceAddr].hasOrder = true;\n      orders[_deviceAddr] = Order(block.number, _duration, _storageEPoint, _storageToken);\n    }\n\n    subscriptionFeeTotal += subscriptionFee;\n    if (devices[_deviceAddr].pendingBalance > 0) {\n      devices[_deviceAddr].settledBalance = devices[_deviceAddr].settledBalance.add(devices[_deviceAddr].pendingBalance);\n    }\n    devices[_deviceAddr].pendingBalance = msg.value.sub(subscriptionFee);\n    emit Subscribed(_deviceAddr, msg.sender, block.number, _duration, devices[_deviceAddr].pendingBalance);\n    return true;\n  }\n\n  // Device owner claims the payment after its matured\n  function claim(address _deviceAddr) public whenNotPaused returns (bool)\n  {\n    require(_deviceAddr != address(0), \"invalid device address\");\n    require(devices[_deviceAddr].rsaPubkeyN.length != 0, \"no such device\");\n    require(devices[_deviceAddr].rsaPubkeyE.length != 0, \"no such device\");\n    require(devices[_deviceAddr].owner == msg.sender, \"not owner\");\n    require(devices[_deviceAddr].hasOrder, \"device not yet subscribed\");\n    require(orders[_deviceAddr].startHeight + orders[_deviceAddr].duration < block.number, \"device in active subscription\");\n\n    if (devices[_deviceAddr].pendingBalance > 0) {\n      devices[_deviceAddr].settledBalance = devices[_deviceAddr].settledBalance.add(devices[_deviceAddr].pendingBalance);\n      devices[_deviceAddr].pendingBalance = 0;\n    }\n    uint256 balance = devices[_deviceAddr].settledBalance;\n    require(balance > 0, \"no balance\");\n\n    devices[_deviceAddr].settledBalance = 0;\n    msg.sender.transfer(balance);\n    emit Claimed(_deviceAddr, msg.sender, balance);\n    return true;\n  }\n\n  // Contract owner collect the fee\n  function collectFees() onlyOwner public returns (bool) {\n    uint256 total = registrationFeeTotal + subscriptionFeeTotal;\n    if (total > 0) {\n      registrationFeeTotal = 0;\n      subscriptionFeeTotal = 0;\n      msg.sender.transfer(total);\n    }\n    return true;\n  }\n\n  // Get device addrs with pagination\n  function getDeviceAddrs(uint256 _offset, uint8 limit)\n    public view returns (uint256 count, address[] memory ids) {\n      require(_offset < deviceIDs.length && limit != 0);\n\n      ids = new address[](limit);\n      for (uint256 i = 0; i < limit; i++) {\n          if (_offset + i >= deviceIDs.length) {\n              break;\n          }\n          ids[count] = deviceIDs[_offset + i];\n          count++;\n      }\n  }\n\n  // Get device info by addr\n  function getDeviceInfoByAddr(\n    address _deviceAddr\n  ) public view returns (address, uint32, uint256, uint256, uint256, string memory, bytes memory, bytes memory) {\n    require(_deviceAddr != address(0), \"invalid device address\");\n    require(devices[_deviceAddr].rsaPubkeyN.length != 0, \"no such device\");\n    require(devices[_deviceAddr].rsaPubkeyE.length != 0, \"no such device\");\n\n    Device memory d = devices[_deviceAddr];\n    return (d.owner, d.freq, d.pricePerBlock, d.settledBalance, d.pendingBalance, d.spec, d.rsaPubkeyN, d.rsaPubkeyE);\n  }\n\n  // Get device order by addr\n  function getDeviceOrderByAddr(\n      address _deviceAddr\n    ) public view returns (uint256, uint256, string memory, string memory) {\n      require(_deviceAddr != address(0), \"invalid device address\");\n      require(devices[_deviceAddr].rsaPubkeyN.length != 0, \"no such device\");\n      require(devices[_deviceAddr].rsaPubkeyE.length != 0, \"no such device\");\n\n      if (devices[_deviceAddr].hasOrder) {\n        Order memory o = orders[_deviceAddr];\n        return (o.startHeight, o.duration, o.storageEPoint, o.storageToken);\n      }\n      return (0, 0, \"\", \"\");\n    }\n}\n",
  "sourcePath": "/Users/dustin/iotexproject/pebble-prophecy/contracts/contracts/Prophecy.sol",
  "compiler": {
    "name": "solc",
    "version": "0.5.12+commit.7709ece9.Emscripten.clang"
  },
  "schemaVersion": "3.3.1",
  "updatedAt": "2021-03-18T22:10:01.962Z",
  "devdoc": {
    "methods": {
      "pause()": {
        "details": "called by the owner to pause, triggers stopped state"
      },
      "transferOwnership(address)": {
        "details": "Allows the current owner to transfer control of the contract to a newOwner.",
        "params": {
          "newOwner": "The address to transfer ownership to."
        }
      },
      "unpause()": {
        "details": "called by the owner to unpause, returns to normal state"
      }
    }
  },
  "userdoc": {
    "methods": {}
  }
}