{
  "contractName": "Prophecy",
  "abi": [
    {
      "inputs": [],
      "payable": false,
      "stateMutability": "nonpayable",
      "type": "constructor"
    },
    {
      "anonymous": false,
      "inputs": [
        {
          "indexed": true,
          "internalType": "bytes32",
          "name": "deviceID",
          "type": "bytes32"
        },
        {
          "indexed": true,
          "internalType": "address",
          "name": "claimer",
          "type": "address"
        },
        {
          "indexed": false,
          "internalType": "uint256",
          "name": "amount",
          "type": "uint256"
        }
      ],
      "name": "Claimed",
      "type": "event"
    },
    {
      "anonymous": false,
      "inputs": [
        {
          "indexed": true,
          "internalType": "address",
          "name": "previousOwner",
          "type": "address"
        },
        {
          "indexed": true,
          "internalType": "address",
          "name": "newOwner",
          "type": "address"
        }
      ],
      "name": "OwnershipTransferred",
      "type": "event"
    },
    {
      "anonymous": false,
      "inputs": [],
      "name": "Pause",
      "type": "event"
    },
    {
      "anonymous": false,
      "inputs": [
        {
          "indexed": true,
          "internalType": "bytes32",
          "name": "deviceID",
          "type": "bytes32"
        },
        {
          "indexed": true,
          "internalType": "address",
          "name": "owner",
          "type": "address"
        }
      ],
      "name": "Registered",
      "type": "event"
    },
    {
      "anonymous": false,
      "inputs": [
        {
          "indexed": true,
          "internalType": "bytes32",
          "name": "deviceID",
          "type": "bytes32"
        },
        {
          "indexed": true,
          "internalType": "address",
          "name": "subscriber",
          "type": "address"
        },
        {
          "indexed": false,
          "internalType": "uint256",
          "name": "startHeight",
          "type": "uint256"
        },
        {
          "indexed": false,
          "internalType": "uint256",
          "name": "duration",
          "type": "uint256"
        },
        {
          "indexed": false,
          "internalType": "uint256",
          "name": "income",
          "type": "uint256"
        }
      ],
      "name": "Subscribed",
      "type": "event"
    },
    {
      "anonymous": false,
      "inputs": [],
      "name": "Unpause",
      "type": "event"
    },
    {
      "anonymous": false,
      "inputs": [
        {
          "indexed": true,
          "internalType": "bytes32",
          "name": "deviceID",
          "type": "bytes32"
        },
        {
          "indexed": true,
          "internalType": "address",
          "name": "owner",
          "type": "address"
        }
      ],
      "name": "Updated",
      "type": "event"
    },
    {
      "constant": true,
      "inputs": [
        {
          "internalType": "bytes32",
          "name": "",
          "type": "bytes32"
        }
      ],
      "name": "allowedIDHashes",
      "outputs": [
        {
          "internalType": "bool",
          "name": "",
          "type": "bool"
        }
      ],
      "payable": false,
      "stateMutability": "view",
      "type": "function"
    },
    {
      "constant": true,
      "inputs": [
        {
          "internalType": "uint256",
          "name": "",
          "type": "uint256"
        }
      ],
      "name": "deviceIDs",
      "outputs": [
        {
          "internalType": "bytes32",
          "name": "",
          "type": "bytes32"
        }
      ],
      "payable": false,
      "stateMutability": "view",
      "type": "function"
    },
    {
      "constant": true,
      "inputs": [
        {
          "internalType": "bytes32",
          "name": "",
          "type": "bytes32"
        }
      ],
      "name": "devices",
      "outputs": [
        {
          "internalType": "bytes32",
          "name": "devicePubKeyX",
          "type": "bytes32"
        },
        {
          "internalType": "bytes32",
          "name": "devicePubKeyY",
          "type": "bytes32"
        },
        {
          "internalType": "address",
          "name": "owner",
          "type": "address"
        },
        {
          "internalType": "uint256",
          "name": "freq",
          "type": "uint256"
        },
        {
          "internalType": "uint256",
          "name": "pricePerBlock",
          "type": "uint256"
        },
        {
          "internalType": "uint256",
          "name": "settledBalance",
          "type": "uint256"
        },
        {
          "internalType": "uint256",
          "name": "pendingBalance",
          "type": "uint256"
        },
        {
          "internalType": "string",
          "name": "spec",
          "type": "string"
        },
        {
          "internalType": "uint256",
          "name": "startHeight",
          "type": "uint256"
        },
        {
          "internalType": "uint256",
          "name": "duration",
          "type": "uint256"
        },
        {
          "internalType": "string",
          "name": "storageEPoint",
          "type": "string"
        },
        {
          "internalType": "string",
          "name": "storageToken",
          "type": "string"
        }
      ],
      "payable": false,
      "stateMutability": "view",
      "type": "function"
    },
    {
      "constant": true,
      "inputs": [],
      "name": "maxDuration",
      "outputs": [
        {
          "internalType": "uint256",
          "name": "",
          "type": "uint256"
        }
      ],
      "payable": false,
      "stateMutability": "view",
      "type": "function"
    },
    {
      "constant": true,
      "inputs": [],
      "name": "owner",
      "outputs": [
        {
          "internalType": "address",
          "name": "",
          "type": "address"
        }
      ],
      "payable": false,
      "stateMutability": "view",
      "type": "function"
    },
    {
      "constant": false,
      "inputs": [],
      "name": "pause",
      "outputs": [],
      "payable": false,
      "stateMutability": "nonpayable",
      "type": "function"
    },
    {
      "constant": true,
      "inputs": [],
      "name": "paused",
      "outputs": [
        {
          "internalType": "bool",
          "name": "",
          "type": "bool"
        }
      ],
      "payable": false,
      "stateMutability": "view",
      "type": "function"
    },
    {
      "constant": true,
      "inputs": [],
      "name": "registrationFee",
      "outputs": [
        {
          "internalType": "uint256",
          "name": "",
          "type": "uint256"
        }
      ],
      "payable": false,
      "stateMutability": "view",
      "type": "function"
    },
    {
      "constant": true,
      "inputs": [],
      "name": "registrationFeeTotal",
      "outputs": [
        {
          "internalType": "uint256",
          "name": "",
          "type": "uint256"
        }
      ],
      "payable": false,
      "stateMutability": "view",
      "type": "function"
    },
    {
      "constant": true,
      "inputs": [],
      "name": "subscriptionFee",
      "outputs": [
        {
          "internalType": "uint256",
          "name": "",
          "type": "uint256"
        }
      ],
      "payable": false,
      "stateMutability": "view",
      "type": "function"
    },
    {
      "constant": true,
      "inputs": [],
      "name": "subscriptionFeeTotal",
      "outputs": [
        {
          "internalType": "uint256",
          "name": "",
          "type": "uint256"
        }
      ],
      "payable": false,
      "stateMutability": "view",
      "type": "function"
    },
    {
      "constant": false,
      "inputs": [
        {
          "internalType": "address",
          "name": "newOwner",
          "type": "address"
        }
      ],
      "name": "transferOwnership",
      "outputs": [],
      "payable": false,
      "stateMutability": "nonpayable",
      "type": "function"
    },
    {
      "constant": false,
      "inputs": [],
      "name": "unpause",
      "outputs": [],
      "payable": false,
      "stateMutability": "nonpayable",
      "type": "function"
    },
    {
      "constant": false,
      "inputs": [
        {
          "internalType": "uint256",
          "name": "fee",
          "type": "uint256"
        }
      ],
      "name": "setRegistrationFee",
      "outputs": [],
      "payable": false,
      "stateMutability": "nonpayable",
      "type": "function"
    },
    {
      "constant": false,
      "inputs": [
        {
          "internalType": "uint256",
          "name": "fee",
          "type": "uint256"
        }
      ],
      "name": "setSubscriptionFee",
      "outputs": [],
      "payable": false,
      "stateMutability": "nonpayable",
      "type": "function"
    },
    {
      "constant": false,
      "inputs": [
        {
          "internalType": "bytes32",
          "name": "_deviceIdHash",
          "type": "bytes32"
        }
      ],
      "name": "preRegisterDevice",
      "outputs": [
        {
          "internalType": "bool",
          "name": "",
          "type": "bool"
        }
      ],
      "payable": false,
      "stateMutability": "nonpayable",
      "type": "function"
    },
    {
      "constant": false,
      "inputs": [
        {
          "internalType": "bytes32",
          "name": "_deviceId",
          "type": "bytes32"
        },
        {
          "internalType": "bytes32",
          "name": "_devicePubKeyX",
          "type": "bytes32"
        },
        {
          "internalType": "bytes32",
          "name": "_devicePubKeyY",
          "type": "bytes32"
        },
        {
          "internalType": "uint256",
          "name": "_freq",
          "type": "uint256"
        },
        {
          "internalType": "string",
          "name": "_spec",
          "type": "string"
        },
        {
          "internalType": "uint256",
          "name": "_price",
          "type": "uint256"
        }
      ],
      "name": "registerDevice",
      "outputs": [
        {
          "internalType": "bool",
          "name": "",
          "type": "bool"
        }
      ],
      "payable": true,
      "stateMutability": "payable",
      "type": "function"
    },
    {
      "constant": false,
      "inputs": [
        {
          "internalType": "bytes32",
          "name": "_deviceId",
          "type": "bytes32"
        },
        {
          "internalType": "bytes32",
          "name": "_devicePubKeyX",
          "type": "bytes32"
        },
        {
          "internalType": "bytes32",
          "name": "_devicePubKeyY",
          "type": "bytes32"
        },
        {
          "internalType": "uint256",
          "name": "_freq",
          "type": "uint256"
        },
        {
          "internalType": "string",
          "name": "_spec",
          "type": "string"
        },
        {
          "internalType": "uint256",
          "name": "_price",
          "type": "uint256"
        }
      ],
      "name": "updateDevice",
      "outputs": [
        {
          "internalType": "bool",
          "name": "",
          "type": "bool"
        }
      ],
      "payable": false,
      "stateMutability": "nonpayable",
      "type": "function"
    },
    {
      "constant": false,
      "inputs": [
        {
          "internalType": "bytes32",
          "name": "_deviceId",
          "type": "bytes32"
        },
        {
          "internalType": "string",
          "name": "_storageEPoint",
          "type": "string"
        },
        {
          "internalType": "string",
          "name": "_storageToken",
          "type": "string"
        },
        {
          "internalType": "uint256",
          "name": "_duration",
          "type": "uint256"
        }
      ],
      "name": "subscribe",
      "outputs": [
        {
          "internalType": "bool",
          "name": "",
          "type": "bool"
        }
      ],
      "payable": true,
      "stateMutability": "payable",
      "type": "function"
    },
    {
      "constant": false,
      "inputs": [
        {
          "internalType": "bytes32",
          "name": "_deviceId",
          "type": "bytes32"
        }
      ],
      "name": "claim",
      "outputs": [
        {
          "internalType": "bool",
          "name": "",
          "type": "bool"
        }
      ],
      "payable": false,
      "stateMutability": "nonpayable",
      "type": "function"
    },
    {
      "constant": false,
      "inputs": [],
      "name": "collectFees",
      "outputs": [
        {
          "internalType": "bool",
          "name": "",
          "type": "bool"
        }
      ],
      "payable": false,
      "stateMutability": "nonpayable",
      "type": "function"
    },
    {
      "constant": true,
      "inputs": [
        {
          "internalType": "uint256",
          "name": "_offset",
          "type": "uint256"
        },
        {
          "internalType": "uint8",
          "name": "limit",
          "type": "uint8"
        }
      ],
      "name": "getDeviceIDs",
      "outputs": [
        {
          "internalType": "uint256",
          "name": "count",
          "type": "uint256"
        },
        {
          "internalType": "bytes32[]",
          "name": "ids",
          "type": "bytes32[]"
        }
      ],
      "payable": false,
      "stateMutability": "view",
      "type": "function"
    },
    {
      "constant": true,
      "inputs": [
        {
          "internalType": "bytes32",
          "name": "_deviceId",
          "type": "bytes32"
        }
      ],
      "name": "getDeviceInfoByID",
      "outputs": [
        {
          "internalType": "bytes32",
          "name": "",
          "type": "bytes32"
        },
        {
          "internalType": "bytes32",
          "name": "",
          "type": "bytes32"
        },
        {
          "internalType": "address",
          "name": "",
          "type": "address"
        },
        {
          "internalType": "uint256",
          "name": "",
          "type": "uint256"
        },
        {
          "internalType": "uint256",
          "name": "",
          "type": "uint256"
        },
        {
          "internalType": "uint256",
          "name": "",
          "type": "uint256"
        },
        {
          "internalType": "uint256",
          "name": "",
          "type": "uint256"
        },
        {
          "internalType": "string",
          "name": "",
          "type": "string"
        }
      ],
      "payable": false,
      "stateMutability": "view",
      "type": "function"
    },
    {
      "constant": true,
      "inputs": [
        {
          "internalType": "bytes32",
          "name": "_deviceId",
          "type": "bytes32"
        }
      ],
      "name": "getDeviceOrderByID",
      "outputs": [
        {
          "internalType": "uint256",
          "name": "",
          "type": "uint256"
        },
        {
          "internalType": "uint256",
          "name": "",
          "type": "uint256"
        },
        {
          "internalType": "string",
          "name": "",
          "type": "string"
        },
        {
          "internalType": "string",
          "name": "",
          "type": "string"
        }
      ],
      "payable": false,
      "stateMutability": "view",
      "type": "function"
    }
  ],
  "bytecode": "0x608060405260008060146101000a81548160ff02191690831515021790555034801561002a57600080fd5b50336000806101000a81548173ffffffffffffffffffffffffffffffffffffffff021916908373ffffffffffffffffffffffffffffffffffffffff160217905550613ae78061007a6000396000f3fe60806040526004361061014b5760003560e01c80638217b2d7116100b6578063c5c400de1161006f578063c5c400de14610915578063c879657214610b0c578063cc9e7d7714610b3b578063cd1c336a14610b8e578063f2fde38b14610d0c578063f3d728f114610d5d5761014b565b80638217b2d7146105da5780638456cb59146106eb5780638da5cb5b14610702578063bd66528a14610759578063c320c727146107ac578063c5934222146107e75761014b565b80633f4ba83a116101085780633f4ba83a146103d65780635c975abb146103ed5780636ac849561461041c5780636db5c8fd146104575780637ca4d12414610482578063807ceaae146104d55761014b565b80630a00eba8146101505780630aa0a1751461017b57806314c44e09146101a657806324f979bc146101d15780632a610840146102e357806330425cc414610387575b600080fd5b34801561015c57600080fd5b50610165610d88565b6040518082815260200191505060405180910390f35b34801561018757600080fd5b50610190610d8e565b6040518082815260200191505060405180910390f35b3480156101b257600080fd5b506101bb610d94565b6040518082815260200191505060405180910390f35b3480156101dd57600080fd5b506102c9600480360360c08110156101f457600080fd5b81019080803590602001909291908035906020019092919080359060200190929190803590602001909291908035906020019064010000000081111561023957600080fd5b82018360208201111561024b57600080fd5b8035906020019184600183028401116401000000008311171561026d57600080fd5b91908080601f016020809104026020016040519081016040528093929190818152602001838380828437600081840152601f19601f82011690508083019250505050505050919291929080359060200190929190505050610d9a565b604051808215151515815260200191505060405180910390f35b3480156102ef57600080fd5b506103296004803603604081101561030657600080fd5b8101908080359060200190929190803560ff1690602001909291905050506115b4565b6040518083815260200180602001828103825283818151815260200191508051906020019060200280838360005b83811015610372578082015181840152602081019050610357565b50505050905001935050505060405180910390f35b34801561039357600080fd5b506103c0600480360360208110156103aa57600080fd5b8101908080359060200190929190505050611681565b6040518082815260200191505060405180910390f35b3480156103e257600080fd5b506103eb6116a2565b005b3480156103f957600080fd5b5061040261175c565b604051808215151515815260200191505060405180910390f35b34801561042857600080fd5b506104556004803603602081101561043f57600080fd5b810190808035906020019092919050505061176f565b005b34801561046357600080fd5b5061046c6117d2565b6040518082815260200191505060405180910390f35b34801561048e57600080fd5b506104bb600480360360208110156104a557600080fd5b81019080803590602001909291905050506117d9565b604051808215151515815260200191505060405180910390f35b6105c0600480360360c08110156104eb57600080fd5b81019080803590602001909291908035906020019092919080359060200190929190803590602001909291908035906020019064010000000081111561053057600080fd5b82018360208201111561054257600080fd5b8035906020019184600183028401116401000000008311171561056457600080fd5b91908080601f016020809104026020016040519081016040528093929190818152602001838380828437600081840152601f19601f82011690508083019250505050505050919291929080359060200190929190505050611917565b604051808215151515815260200191505060405180910390f35b3480156105e657600080fd5b50610613600480360360208110156105fd57600080fd5b8101908080359060200190929190505050611fd1565b604051808981526020018881526020018773ffffffffffffffffffffffffffffffffffffffff1673ffffffffffffffffffffffffffffffffffffffff16815260200186815260200185815260200184815260200183815260200180602001828103825283818151815260200191508051906020019080838360005b838110156106a957808201518184015260208101905061068e565b50505050905090810190601f1680156106d65780820380516001836020036101000a031916815260200191505b50995050505050505050505060405180910390f35b3480156106f757600080fd5b506107006123f8565b005b34801561070e57600080fd5b506107176124b4565b604051808273ffffffffffffffffffffffffffffffffffffffff1673ffffffffffffffffffffffffffffffffffffffff16815260200191505060405180910390f35b34801561076557600080fd5b506107926004803603602081101561077c57600080fd5b81019080803590602001909291905050506124d9565b604051808215151515815260200191505060405180910390f35b3480156107b857600080fd5b506107e5600480360360208110156107cf57600080fd5b81019080803590602001909291905050506129ea565b005b3480156107f357600080fd5b506108206004803603602081101561080a57600080fd5b8101908080359060200190929190505050612a4d565b604051808581526020018481526020018060200180602001838103835285818151815260200191508051906020019080838360005b83811015610870578082015181840152602081019050610855565b50505050905090810190601f16801561089d5780820380516001836020036101000a031916815260200191505b50838103825284818151815260200191508051906020019080838360005b838110156108d65780820151818401526020810190506108bb565b50505050905090810190601f1680156109035780820380516001836020036101000a031916815260200191505b50965050505050505060405180910390f35b34801561092157600080fd5b5061094e6004803603602081101561093857600080fd5b8101908080359060200190929190505050612e54565b604051808d81526020018c81526020018b73ffffffffffffffffffffffffffffffffffffffff1673ffffffffffffffffffffffffffffffffffffffff1681526020018a8152602001898152602001888152602001878152602001806020018681526020018581526020018060200180602001848103845289818151815260200191508051906020019080838360005b838110156109f85780820151818401526020810190506109dd565b50505050905090810190601f168015610a255780820380516001836020036101000a031916815260200191505b50848103835286818151815260200191508051906020019080838360005b83811015610a5e578082015181840152602081019050610a43565b50505050905090810190601f168015610a8b5780820380516001836020036101000a031916815260200191505b50848103825285818151815260200191508051906020019080838360005b83811015610ac4578082015181840152602081019050610aa9565b50505050905090810190601f168015610af15780820380516001836020036101000a031916815260200191505b509f5050505050505050505050505050505060405180910390f35b348015610b1857600080fd5b50610b2161309c565b604051808215151515815260200191505060405180910390f35b348015610b4757600080fd5b50610b7460048036036020811015610b5e57600080fd5b810190808035906020019092919050505061316b565b604051808215151515815260200191505060405180910390f35b610cf260048036036080811015610ba457600080fd5b810190808035906020019092919080359060200190640100000000811115610bcb57600080fd5b820183602082011115610bdd57600080fd5b80359060200191846001830284011164010000000083111715610bff57600080fd5b91908080601f016020809104026020016040519081016040528093929190818152602001838380828437600081840152601f19601f82011690508083019250505050505050919291929080359060200190640100000000811115610c6257600080fd5b820183602082011115610c7457600080fd5b80359060200191846001830284011164010000000083111715610c9657600080fd5b91908080601f016020809104026020016040519081016040528093929190818152602001838380828437600081840152601f19601f8201169050808301925050505050505091929192908035906020019092919050505061318b565b604051808215151515815260200191505060405180910390f35b348015610d1857600080fd5b50610d5b60048036036020811015610d2f57600080fd5b81019080803573ffffffffffffffffffffffffffffffffffffffff169060200190929190505050613754565b005b348015610d6957600080fd5b50610d726138a5565b6040518082815260200191505060405180910390f35b60075481565b60055481565b60045481565b60008060149054906101000a900460ff1615610db557600080fd5b6000801b60026000898152602001908152602001600020600001541415610e44576040517f08c379a00000000000000000000000000000000000000000000000000000000081526004018080602001828103825260128152602001807f6e6f74207965742072656769737465726564000000000000000000000000000081525060200191505060405180910390fd5b6000801b60026000898152602001908152602001600020600101541415610ed3576040517f08c379a00000000000000000000000000000000000000000000000000000000081526004018080602001828103825260128152602001807f6e6f74207965742072656769737465726564000000000000000000000000000081525060200191505060405180910390fd5b3373ffffffffffffffffffffffffffffffffffffffff166002600089815260200190815260200160002060020160009054906101000a900473ffffffffffffffffffffffffffffffffffffffff1673ffffffffffffffffffffffffffffffffffffffff1614610faa576040517f08c379a00000000000000000000000000000000000000000000000000000000081526004018080602001828103825260098152602001807f6e6f74206f776e6572000000000000000000000000000000000000000000000081525060200191505060405180910390fd5b6000801b861415611023576040517f08c379a000000000000000000000000000000000000000000000000000000000815260040180806020018281038252601c8152602001807f646576696365207075626c6963206b657920582072657175697265640000000081525060200191505060405180910390fd5b6000801b85141561109c576040517f08c379a000000000000000000000000000000000000000000000000000000000815260040180806020018281038252601c8152602001807f646576696365207075626c6963206b657920592072657175697265640000000081525060200191505060405180910390fd5b6000841015611113576040517f08c379a000000000000000000000000000000000000000000000000000000000815260040180806020018281038252601e8152602001807f6672657175656e6365206e6565647320746f20626520706f736974697665000081525060200191505060405180910390fd5b600083511161118a576040517f08c379a00000000000000000000000000000000000000000000000000000000081526004018080602001828103825260148152602001807f737065632075726c20697320726571756972656400000000000000000000000081525060200191505060405180910390fd5b60006002600089815260200190815260200160002060090154600260008a81526020019081526020016000206008015401905060008114806111cb57504381105b61123d576040517f08c379a000000000000000000000000000000000000000000000000000000000815260040180806020018281038252601d8152602001807f64657669636520696e2061637469766520737562736372697074696f6e00000081525060200191505060405180910390fd5b6040518061018001604052808881526020018781526020013373ffffffffffffffffffffffffffffffffffffffff168152602001868152602001848152602001600260008b8152602001908152602001600020600501548152602001600260008b8152602001908152602001600020600601548152602001858152602001600260008b8152602001908152602001600020600801548152602001600260008b8152602001908152602001600020600901548152602001600260008b8152602001908152602001600020600a018054600181600116156101000203166002900480601f01602080910402602001604051908101604052809291908181526020018280546001816001161561010002031660029004801561139d5780601f106113725761010080835404028352916020019161139d565b820191906000526020600020905b81548152906001019060200180831161138057829003601f168201915b50505050508152602001600260008b8152602001908152602001600020600b018054600181600116156101000203166002900480601f0160208091040260200160405190810160405280929190818152602001828054600181600116156101000203166002900480156114515780601f1061142657610100808354040283529160200191611451565b820191906000526020600020905b81548152906001019060200180831161143457829003601f168201915b5050505050815250600260008a8152602001908152602001600020600082015181600001556020820151816001015560408201518160020160006101000a81548173ffffffffffffffffffffffffffffffffffffffff021916908373ffffffffffffffffffffffffffffffffffffffff160217905550606082015181600301556080820151816004015560a0820151816005015560c0820151816006015560e082015181600701908051906020019061150b929190613910565b506101008201518160080155610120820151816009015561014082015181600a01908051906020019061153f929190613910565b5061016082015181600b01908051906020019061155d929190613910565b509050503373ffffffffffffffffffffffffffffffffffffffff16887fcb7d4455895001415186ba044ea427ef1c6519bc61551c1c4aafb423828a5e0460405160405180910390a360019150509695505050505050565b60006060600180549050841080156115d0575060008360ff1614155b6115d957600080fd5b8260ff1660405190808252806020026020018201604052801561160b5781602001602082028038833980820191505090505b50905060008090505b8360ff16811015611679576001805490508186011061163257611679565b60018186018154811061164157fe5b906000526020600020015482848151811061165857fe5b60200260200101818152505082806001019350508080600101915050611614565b509250929050565b6001818154811061168e57fe5b906000526020600020016000915090505481565b6000809054906101000a900473ffffffffffffffffffffffffffffffffffffffff1673ffffffffffffffffffffffffffffffffffffffff163373ffffffffffffffffffffffffffffffffffffffff16146116fb57600080fd5b600060149054906101000a900460ff1661171457600080fd5b60008060146101000a81548160ff0219169083151502179055507f7805862f689e2f13df9f062ff482ad3ad112aca9e0847911ed832e158c525b3360405160405180910390a1565b600060149054906101000a900460ff1681565b6000809054906101000a900473ffffffffffffffffffffffffffffffffffffffff1673ffffffffffffffffffffffffffffffffffffffff163373ffffffffffffffffffffffffffffffffffffffff16146117c857600080fd5b8060058190555050565b6217bb0081565b60008060009054906101000a900473ffffffffffffffffffffffffffffffffffffffff1673ffffffffffffffffffffffffffffffffffffffff163373ffffffffffffffffffffffffffffffffffffffff161461183457600080fd5b600060149054906101000a900460ff161561184e57600080fd5b6003600083815260200190815260200160002060009054906101000a900460ff16156118e2576040517f08c379a00000000000000000000000000000000000000000000000000000000081526004018080602001828103825260138152602001807f616c72656164792077686974656c69737465640000000000000000000000000081525060200191505060405180910390fd5b60016003600084815260200190815260200160002060006101000a81548160ff02191690831515021790555060019050919050565b60008060149054906101000a900460ff161561193257600080fd5b60036000886040516020018082815260200191505060405160208183030381529060405280519060200120815260200190815260200160002060009054906101000a900460ff166119eb576040517f08c379a000000000000000000000000000000000000000000000000000000000815260040180806020018281038252600e8152602001807f6964206e6f7420616c6c6f77656400000000000000000000000000000000000081525060200191505060405180910390fd5b6000801b600260008981526020019081526020016000206000015414611a79576040517f08c379a00000000000000000000000000000000000000000000000000000000081526004018080602001828103825260128152602001807f616c72656164792072656769737465726564000000000000000000000000000081525060200191505060405180910390fd5b6000801b600260008981526020019081526020016000206001015414611b07576040517f08c379a00000000000000000000000000000000000000000000000000000000081526004018080602001828103825260128152602001807f616c72656164792072656769737465726564000000000000000000000000000081525060200191505060405180910390fd5b6000801b861415611b80576040517f08c379a000000000000000000000000000000000000000000000000000000000815260040180806020018281038252601c8152602001807f646576696365207075626c6963206b657920582072657175697265640000000081525060200191505060405180910390fd5b6000801b851415611bf9576040517f08c379a000000000000000000000000000000000000000000000000000000000815260040180806020018281038252601c8152602001807f646576696365207075626c6963206b657920592072657175697265640000000081525060200191505060405180910390fd5b6000841015611c70576040517f08c379a000000000000000000000000000000000000000000000000000000000815260040180806020018281038252601e8152602001807f6672657175656e6365206e6565647320746f20626520706f736974697665000081525060200191505060405180910390fd5b6000835111611ce7576040517f08c379a00000000000000000000000000000000000000000000000000000000081526004018080602001828103825260148152602001807f737065632075726c20697320726571756972656400000000000000000000000081525060200191505060405180910390fd5b600454341015611d5f576040517f08c379a000000000000000000000000000000000000000000000000000000000815260040180806020018281038252600e8152602001807f6e6f7420656e6f7567682066656500000000000000000000000000000000000081525060200191505060405180910390fd5b34600660008282540192505081905550600060036000896040516020018082815260200191505060405160208183030381529060405280519060200120815260200190815260200160002060006101000a81548160ff0219169083151502179055506040518061018001604052808781526020018681526020013373ffffffffffffffffffffffffffffffffffffffff168152602001858152602001838152602001600081526020016000815260200184815260200160008152602001600081526020016040518060200160405280600081525081526020016040518060200160405280600081525081525060026000898152602001908152602001600020600082015181600001556020820151816001015560408201518160020160006101000a81548173ffffffffffffffffffffffffffffffffffffffff021916908373ffffffffffffffffffffffffffffffffffffffff160217905550606082015181600301556080820151816004015560a0820151816005015560c0820151816006015560e0820151816007019080519060200190611efd929190613910565b506101008201518160080155610120820151816009015561014082015181600a019080519060200190611f31929190613910565b5061016082015181600b019080519060200190611f4f929190613910565b5090505060018790806001815401808255809150509060018203906000526020600020016000909192909190915055503373ffffffffffffffffffffffffffffffffffffffff16877f7d917fcbc9a29a9705ff9936ffa599500e4fd902e4486bae317414fe967b307c60405160405180910390a3600190509695505050505050565b600080600080600080600060606000801b600260008b815260200190815260200160002060000154141561206d576040517f08c379a000000000000000000000000000000000000000000000000000000000815260040180806020018281038252600e8152602001807f6e6f20737563682064657669636500000000000000000000000000000000000081525060200191505060405180910390fd5b6000801b600260008b81526020019081526020016000206001015414156120fc576040517f08c379a000000000000000000000000000000000000000000000000000000000815260040180806020018281038252600e8152602001807f6e6f20737563682064657669636500000000000000000000000000000000000081525060200191505060405180910390fd5b612104613990565b600260008b81526020019081526020016000206040518061018001604052908160008201548152602001600182015481526020016002820160009054906101000a900473ffffffffffffffffffffffffffffffffffffffff1673ffffffffffffffffffffffffffffffffffffffff1673ffffffffffffffffffffffffffffffffffffffff16815260200160038201548152602001600482015481526020016005820154815260200160068201548152602001600782018054600181600116156101000203166002900480601f01602080910402602001604051908101604052809291908181526020018280546001816001161561010002031660029004801561224e5780601f106122235761010080835404028352916020019161224e565b820191906000526020600020905b81548152906001019060200180831161223157829003601f168201915b505050505081526020016008820154815260200160098201548152602001600a82018054600181600116156101000203166002900480601f0160208091040260200160405190810160405280929190818152602001828054600181600116156101000203166002900480156123045780601f106122d957610100808354040283529160200191612304565b820191906000526020600020905b8154815290600101906020018083116122e757829003601f168201915b50505050508152602001600b82018054600181600116156101000203166002900480601f0160208091040260200160405190810160405280929190818152602001828054600181600116156101000203166002900480156123a65780601f1061237b576101008083540402835291602001916123a6565b820191906000526020600020905b81548152906001019060200180831161238957829003601f168201915b5050505050815250509050806000015181602001518260400151836060015184608001518560a001518660c001518760e001518090509850985098509850985098509850985050919395975091939597565b6000809054906101000a900473ffffffffffffffffffffffffffffffffffffffff1673ffffffffffffffffffffffffffffffffffffffff163373ffffffffffffffffffffffffffffffffffffffff161461245157600080fd5b600060149054906101000a900460ff161561246b57600080fd5b6001600060146101000a81548160ff0219169083151502179055507f6985a02210a168e66602d3235cb6db0e70f92b3ba4d376a33c0f3d9434bff62560405160405180910390a1565b6000809054906101000a900473ffffffffffffffffffffffffffffffffffffffff1681565b60008060149054906101000a900460ff16156124f457600080fd5b3373ffffffffffffffffffffffffffffffffffffffff166002600084815260200190815260200160002060020160009054906101000a900473ffffffffffffffffffffffffffffffffffffffff1673ffffffffffffffffffffffffffffffffffffffff16146125cb576040517f08c379a00000000000000000000000000000000000000000000000000000000081526004018080602001828103825260098152602001807f6e6f74206f776e6572000000000000000000000000000000000000000000000081525060200191505060405180910390fd5b6000801b6002600084815260200190815260200160002060000154141561265a576040517f08c379a000000000000000000000000000000000000000000000000000000000815260040180806020018281038252600e8152602001807f6e6f20737563682064657669636500000000000000000000000000000000000081525060200191505060405180910390fd5b6000801b600260008481526020019081526020016000206001015414156126e9576040517f08c379a000000000000000000000000000000000000000000000000000000000815260040180806020018281038252600e8152602001807f6e6f20737563682064657669636500000000000000000000000000000000000081525060200191505060405180910390fd5b60006002600084815260200190815260200160002060090154600260008581526020019081526020016000206008015401905060008111612792576040517f08c379a00000000000000000000000000000000000000000000000000000000081526004018080602001828103825260198152602001807f646576696365206e6f742079657420737562736372696265640000000000000081525060200191505060405180910390fd5b438110612807576040517f08c379a000000000000000000000000000000000000000000000000000000000815260040180806020018281038252601d8152602001807f64657669636520696e2061637469766520737562736372697074696f6e00000081525060200191505060405180910390fd5b60006002600085815260200190815260200160002060060154111561289c57612865600260008581526020019081526020016000206006015460026000868152602001908152602001600020600501546138ab90919063ffffffff16565b6002600085815260200190815260200160002060050181905550600060026000858152602001908152602001600020600601819055505b6000600260008581526020019081526020016000206005015490506000811161292d576040517f08c379a000000000000000000000000000000000000000000000000000000000815260040180806020018281038252600a8152602001807f6e6f2062616c616e63650000000000000000000000000000000000000000000081525060200191505060405180910390fd5b600060026000868152602001908152602001600020600501819055503373ffffffffffffffffffffffffffffffffffffffff166108fc829081150290604051600060405180830381858888f1935050505015801561298f573d6000803e3d6000fd5b503373ffffffffffffffffffffffffffffffffffffffff16847f0508a8b4117d9a7b3d8f5895f6413e61b4f9a2df35afbfb41e78d0ecfff1843f836040518082815260200191505060405180910390a3600192505050919050565b6000809054906101000a900473ffffffffffffffffffffffffffffffffffffffff1673ffffffffffffffffffffffffffffffffffffffff163373ffffffffffffffffffffffffffffffffffffffff1614612a4357600080fd5b8060048190555050565b6000806060806000801b60026000878152602001908152602001600020600001541415612ae2576040517f08c379a000000000000000000000000000000000000000000000000000000000815260040180806020018281038252600e8152602001807f6e6f20737563682064657669636500000000000000000000000000000000000081525060200191505060405180910390fd5b6000801b60026000878152602001908152602001600020600101541415612b71576040517f08c379a000000000000000000000000000000000000000000000000000000000815260040180806020018281038252600e8152602001807f6e6f20737563682064657669636500000000000000000000000000000000000081525060200191505060405180910390fd5b612b79613990565b600260008781526020019081526020016000206040518061018001604052908160008201548152602001600182015481526020016002820160009054906101000a900473ffffffffffffffffffffffffffffffffffffffff1673ffffffffffffffffffffffffffffffffffffffff1673ffffffffffffffffffffffffffffffffffffffff16815260200160038201548152602001600482015481526020016005820154815260200160068201548152602001600782018054600181600116156101000203166002900480601f016020809104026020016040519081016040528092919081815260200182805460018160011615610100020316600290048015612cc35780601f10612c9857610100808354040283529160200191612cc3565b820191906000526020600020905b815481529060010190602001808311612ca657829003601f168201915b505050505081526020016008820154815260200160098201548152602001600a82018054600181600116156101000203166002900480601f016020809104026020016040519081016040528092919081815260200182805460018160011615610100020316600290048015612d795780601f10612d4e57610100808354040283529160200191612d79565b820191906000526020600020905b815481529060010190602001808311612d5c57829003601f168201915b50505050508152602001600b82018054600181600116156101000203166002900480601f016020809104026020016040519081016040528092919081815260200182805460018160011615610100020316600290048015612e1b5780601f10612df057610100808354040283529160200191612e1b565b820191906000526020600020905b815481529060010190602001808311612dfe57829003601f168201915b50505050508152505090508061010001518161012001518261014001518361016001518191508090509450945094509450509193509193565b60026020528060005260406000206000915090508060000154908060010154908060020160009054906101000a900473ffffffffffffffffffffffffffffffffffffffff1690806003015490806004015490806005015490806006015490806007018054600181600116156101000203166002900480601f016020809104026020016040519081016040528092919081815260200182805460018160011615610100020316600290048015612f4a5780601f10612f1f57610100808354040283529160200191612f4a565b820191906000526020600020905b815481529060010190602001808311612f2d57829003601f168201915b50505050509080600801549080600901549080600a018054600181600116156101000203166002900480601f016020809104026020016040519081016040528092919081815260200182805460018160011615610100020316600290048015612ff45780601f10612fc957610100808354040283529160200191612ff4565b820191906000526020600020905b815481529060010190602001808311612fd757829003601f168201915b50505050509080600b018054600181600116156101000203166002900480601f0160208091040260200160405190810160405280929190818152602001828054600181600116156101000203166002900480156130925780601f1061306757610100808354040283529160200191613092565b820191906000526020600020905b81548152906001019060200180831161307557829003601f168201915b505050505090508c565b60008060009054906101000a900473ffffffffffffffffffffffffffffffffffffffff1673ffffffffffffffffffffffffffffffffffffffff163373ffffffffffffffffffffffffffffffffffffffff16146130f757600080fd5b6000600754600654019050600081111561316357600060068190555060006007819055503373ffffffffffffffffffffffffffffffffffffffff166108fc829081150290604051600060405180830381858888f19350505050158015613161573d6000803e3d6000fd5b505b600191505090565b60036020528060005260406000206000915054906101000a900460ff1681565b60008060149054906101000a900460ff16156131a657600080fd5b6000801b60026000878152602001908152602001600020600001541415613235576040517f08c379a000000000000000000000000000000000000000000000000000000000815260040180806020018281038252600e8152602001807f6e6f20737563682064657669636500000000000000000000000000000000000081525060200191505060405180910390fd5b6000801b600260008781526020019081526020016000206001015414156132c4576040517f08c379a000000000000000000000000000000000000000000000000000000000815260040180806020018281038252600e8152602001807f6e6f20737563682064657669636500000000000000000000000000000000000081525060200191505060405180910390fd5b600084511161333b576040517f08c379a00000000000000000000000000000000000000000000000000000000081526004018080602001828103825260198152602001807f73746f7261676520656e64706f696e742072657175697265640000000000000081525060200191505060405180910390fd5b60008351116133b2576040517f08c379a000000000000000000000000000000000000000000000000000000000815260040180806020018281038252601d8152602001807f73746f726167652061636365737320746f6b656e20726571756972656400000081525060200191505060405180910390fd5b6000821180156133c557506217bb008211155b613437576040517f08c379a00000000000000000000000000000000000000000000000000000000081526004018080602001828103825260168152602001807f696e617070726f707269617465206475726174696f6e0000000000000000000081525060200191505060405180910390fd5b6134606002600087815260200190815260200160002060040154836138c590919063ffffffff16565b600554013410156134d9576040517f08c379a000000000000000000000000000000000000000000000000000000000815260040180806020018281038252600e8152602001807f6e6f7420656e6f7567682066656500000000000000000000000000000000000081525060200191505060405180910390fd5b600060026000878152602001908152602001600020600901546002600088815260200190815260200160002060080154019050600081148061351a57504381105b61358c576040517f08c379a000000000000000000000000000000000000000000000000000000000815260040180806020018281038252601d8152602001807f64657669636520696e2061637469766520737562736372697074696f6e00000081525060200191505060405180910390fd5b6005546007600082825401925050819055504360026000888152602001908152602001600020600801819055508460026000888152602001908152602001600020600a0190805190602001906135e3929190613a0d565b508360026000888152602001908152602001600020600b01908051906020019061360e929190613a0d565b508260026000888152602001908152602001600020600901819055506000600260008881526020019081526020016000206006015411156136a357613688600260008881526020019081526020016000206006015460026000898152602001908152602001600020600501546138ab90919063ffffffff16565b60026000888152602001908152602001600020600501819055505b6136b8600554346138f990919063ffffffff16565b60026000888152602001908152602001600020600601819055503373ffffffffffffffffffffffffffffffffffffffff16867f14eb24fb455e757cfe06ef6ececd72db9ba42266bf8e62d0fd7b639bf1d52a104386600260008c81526020019081526020016000206006015460405180848152602001838152602001828152602001935050505060405180910390a36001915050949350505050565b6000809054906101000a900473ffffffffffffffffffffffffffffffffffffffff1673ffffffffffffffffffffffffffffffffffffffff163373ffffffffffffffffffffffffffffffffffffffff16146137ad57600080fd5b600073ffffffffffffffffffffffffffffffffffffffff168173ffffffffffffffffffffffffffffffffffffffff1614156137e757600080fd5b8073ffffffffffffffffffffffffffffffffffffffff166000809054906101000a900473ffffffffffffffffffffffffffffffffffffffff1673ffffffffffffffffffffffffffffffffffffffff167f8be0079c531659141344cd1fd0a4f28419497f9722a3daafe3b4186f6b6457e060405160405180910390a3806000806101000a81548173ffffffffffffffffffffffffffffffffffffffff021916908373ffffffffffffffffffffffffffffffffffffffff16021790555050565b60065481565b60008183019050828110156138bc57fe5b80905092915050565b6000808314156138d857600090506138f3565b8183029050818382816138e757fe5b04146138ef57fe5b8090505b92915050565b60008282111561390557fe5b818303905092915050565b828054600181600116156101000203166002900490600052602060002090601f016020900481019282601f1061395157805160ff191683800117855561397f565b8280016001018555821561397f579182015b8281111561397e578251825591602001919060010190613963565b5b50905061398c9190613a8d565b5090565b6040518061018001604052806000801916815260200160008019168152602001600073ffffffffffffffffffffffffffffffffffffffff1681526020016000815260200160008152602001600081526020016000815260200160608152602001600081526020016000815260200160608152602001606081525090565b828054600181600116156101000203166002900490600052602060002090601f016020900481019282601f10613a4e57805160ff1916838001178555613a7c565b82800160010185558215613a7c579182015b82811115613a7b578251825591602001919060010190613a60565b5b509050613a899190613a8d565b5090565b613aaf91905b80821115613aab576000816000905550600101613a93565b5090565b9056fea265627a7a72315820032de052337c186106bc903490c31f611e5312f5e0b9887116880e00aa73b74464736f6c634300050c0032",
  "source": "pragma solidity <6.0 >=0.4.24;\n\nimport \"./Pausable.sol\";\nimport \"./SafeMath.sol\";\n\ncontract Prophecy is Pausable {\n  using SafeMath for uint256;\n\n  event Registered(bytes32 indexed deviceID, address indexed owner); // add more details if necessary\n  event Subscribed(bytes32 indexed deviceID, address indexed subscriber, uint256 startHeight, uint256 duration, uint256 income);\n  event Claimed(bytes32 indexed deviceID, address indexed claimer, uint256 amount);\n  event Updated(bytes32 indexed deviceID, address indexed owner); // add more details if necessary\n\n  /// STORAGE MAPPINGS\n  bytes32[] public deviceIDs;\n  mapping (bytes32 => Device) public devices;\n  mapping (bytes32 => bool) public allowedIDHashes; // allowed hashes of IDs\n\n  uint256 public registrationFee;\n  uint256 public subscriptionFee;\n  uint256 public registrationFeeTotal;\n  uint256 public subscriptionFeeTotal;\n\n  uint256 public constant maxDuration = 86400 / 5 * 90; // 90 days\n\n  /// TYPES\n  struct Device {\n      // Intrinsic properties\n      bytes32 devicePubKeyX; // device public key X co-ordinate\n      bytes32 devicePubKeyY; // device public key Y co-ordinate\n      address owner;        // owner's address\n      uint256 freq;         // how many seconds per data point\n      uint256 pricePerBlock; // in terms of IOTX\n      uint256 settledBalance; // balance ready to claim\n      uint256 pendingBalance; // balance in pending\n      string  spec;         // link to the spec\n\n      // Order info\n      uint256 startHeight;    // the height starting from which this device's data stream is bought\n      uint256 duration;       // how many blocks this order lasts\n      string storageEPoint;  // storage endpoint buyer provides\n      string storageToken;   // access token to the storage endpoint, encrypted by devicePublicKey\n  }\n\n  // CONSTRUCTOR\n  constructor () public {\n  }\n\n  // EXTERNAL FUNCTIONS\n  function setRegistrationFee(uint256 fee) public onlyOwner {\n    registrationFee = fee;\n  }\n\n  function setSubscriptionFee(uint256 fee) public onlyOwner {\n    subscriptionFee = fee;\n  }\n\n  // Populate the whitelist after manufacturing\n  function preRegisterDevice(bytes32 _deviceIdHash)\n    public onlyOwner whenNotPaused returns (bool)\n    {\n      require(!allowedIDHashes[_deviceIdHash], \"already whitelisted\");\n\n      allowedIDHashes[_deviceIdHash] = true;\n      return true;\n    }\n\n  // Pay to Register the device\n  function registerDevice(\n    bytes32 _deviceId,\n    bytes32 _devicePubKeyX,\n    bytes32 _devicePubKeyY,\n    uint256 _freq,\n    string memory _spec,\n    uint256 _price\n    )\n    public whenNotPaused payable returns (bool)\n    {\n      require(allowedIDHashes[keccak256(abi.encodePacked(_deviceId))], \"id not allowed\");\n      require(devices[_deviceId].devicePubKeyX == 0, \"already registered\");\n      require(devices[_deviceId].devicePubKeyY == 0, \"already registered\");\n      require(_devicePubKeyX != 0, \"device public key X required\");\n      require(_devicePubKeyY != 0, \"device public key Y required\");\n      require(_freq >= 0, \"frequence needs to be positive\");\n      require(bytes(_spec).length > 0, \"spec url is required\");\n      require(msg.value >= registrationFee, \"not enough fee\");\n\n      registrationFeeTotal += msg.value;\n      allowedIDHashes[keccak256(abi.encodePacked(_deviceId))] = false;\n      devices[_deviceId] = Device(_devicePubKeyX, _devicePubKeyY, msg.sender, _freq,\n        _price, 0, 0, _spec, 0, 0, \"\", \"\");\n      deviceIDs.push(_deviceId);\n      emit Registered(_deviceId, msg.sender);\n      return true;\n    }\n\n    // Update info about a registered device\n    function updateDevice(\n      bytes32 _deviceId,\n      bytes32 _devicePubKeyX,\n      bytes32 _devicePubKeyY,\n      uint256 _freq,\n      string memory _spec,\n      uint256 _price\n      )\n      public whenNotPaused returns (bool)\n      {\n        require(devices[_deviceId].devicePubKeyX != 0, \"not yet registered\");\n        require(devices[_deviceId].devicePubKeyY != 0, \"not yet registered\");\n        require(devices[_deviceId].owner == msg.sender, \"not owner\");\n        require(_devicePubKeyX != 0, \"device public key X required\");\n        require(_devicePubKeyY != 0, \"device public key Y required\");\n        require(_freq >= 0, \"frequence needs to be positive\");\n        require(bytes(_spec).length > 0, \"spec url is required\");\n\n        // To be on the safe side, tho we can allow change when a device is subscribed\n        uint256 endHeight = devices[_deviceId].startHeight + devices[_deviceId].duration;\n        require(endHeight == 0 || endHeight < block.number, \"device in active subscription\");\n\n        devices[_deviceId] = Device(_devicePubKeyX, _devicePubKeyY, msg.sender, _freq, _price,\n          devices[_deviceId].settledBalance, devices[_deviceId].pendingBalance, _spec,\n          devices[_deviceId].startHeight, devices[_deviceId].duration,\n          devices[_deviceId].storageEPoint, devices[_deviceId].storageToken);\n\n        emit Updated(_deviceId, msg.sender);\n        return true;\n      }\n\n  // Pay to subscribe to the device's data stream\n  function subscribe(\n    bytes32 _deviceId,\n    string memory _storageEPoint,\n    string memory _storageToken,\n    uint256 _duration\n    ) public whenNotPaused payable returns (bool)\n  {\n    require(devices[_deviceId].devicePubKeyX != 0, \"no such device\");\n    require(devices[_deviceId].devicePubKeyY != 0, \"no such device\");\n    require(bytes(_storageEPoint).length > 0, \"storage endpoint required\");\n    require(bytes(_storageToken).length > 0, \"storage access token required\");\n    require(_duration > 0 && _duration <= maxDuration, \"inappropriate duration\");\n    require(msg.value >= subscriptionFee + _duration.mul(devices[_deviceId].pricePerBlock), \"not enough fee\");\n    uint256 endHeight = devices[_deviceId].startHeight + devices[_deviceId].duration;\n    require(endHeight == 0 || endHeight < block.number, \"device in active subscription\");\n\n    subscriptionFeeTotal += subscriptionFee;\n    devices[_deviceId].startHeight = block.number;\n    devices[_deviceId].storageEPoint = _storageEPoint;\n    devices[_deviceId].storageToken = _storageToken;\n    devices[_deviceId].duration = _duration;\n    if (devices[_deviceId].pendingBalance > 0) {\n      devices[_deviceId].settledBalance = devices[_deviceId].settledBalance.add(devices[_deviceId].pendingBalance);\n    }\n    devices[_deviceId].pendingBalance = msg.value.sub(subscriptionFee);\n    emit Subscribed(_deviceId, msg.sender, block.number, _duration, devices[_deviceId].pendingBalance);\n    return true;\n  }\n\n  // Device owner claims the payment after its matured\n  function claim(bytes32 _deviceId) public whenNotPaused returns (bool)\n  {\n    require(devices[_deviceId].owner == msg.sender, \"not owner\");\n    require(devices[_deviceId].devicePubKeyX != 0, \"no such device\");\n    require(devices[_deviceId].devicePubKeyY != 0, \"no such device\");\n    uint256 endHeight = devices[_deviceId].startHeight + devices[_deviceId].duration;\n    require(endHeight > 0, \"device not yet subscribed\");\n    require(endHeight < block.number, \"device in active subscription\");\n    if (devices[_deviceId].pendingBalance > 0) {\n      devices[_deviceId].settledBalance = devices[_deviceId].settledBalance.add(devices[_deviceId].pendingBalance);\n      devices[_deviceId].pendingBalance = 0;\n    }\n    uint256 balance = devices[_deviceId].settledBalance;\n    require(balance > 0, \"no balance\");\n\n    devices[_deviceId].settledBalance = 0;\n    msg.sender.transfer(balance);\n    emit Claimed(_deviceId, msg.sender, balance);\n    return true;\n  }\n\n  // Contract owner collect the fee\n  function collectFees() onlyOwner public returns (bool) {\n    uint256 total = registrationFeeTotal + subscriptionFeeTotal;\n    if (total > 0) {\n      registrationFeeTotal = 0;\n      subscriptionFeeTotal = 0;\n      msg.sender.transfer(total);\n    }\n    return true;\n  }\n\n  // Get device IDs with pagination\n  function getDeviceIDs(uint256 _offset, uint8 limit)\n    public view returns (uint256 count, bytes32[] memory ids) {\n      require(_offset < deviceIDs.length && limit != 0);\n\n      ids = new bytes32[](limit);\n      for (uint256 i = 0; i < limit; i++) {\n          if (_offset + i >= deviceIDs.length) {\n              break;\n          }\n          ids[count] = deviceIDs[_offset + i];\n          count++;\n      }\n  }\n\n  // Get device info by ID\n  function getDeviceInfoByID(\n    bytes32 _deviceId\n  ) public view returns (bytes32, bytes32, address, uint256, uint256, uint256, uint256, string memory) {\n    require(devices[_deviceId].devicePubKeyX != 0, \"no such device\");\n    require(devices[_deviceId].devicePubKeyY != 0, \"no such device\");\n\n    Device memory d = devices[_deviceId];\n    return (d.devicePubKeyX, d.devicePubKeyY, d.owner, d.freq, d.pricePerBlock,\n      d.settledBalance, d.pendingBalance, d.spec);\n  }\n\n  // Get device order by ID\n  function getDeviceOrderByID(\n      bytes32 _deviceId\n    ) public view returns (uint256, uint256, string memory, string memory) {\n      require(devices[_deviceId].devicePubKeyX != 0, \"no such device\");\n      require(devices[_deviceId].devicePubKeyY != 0, \"no such device\");\n\n      Device memory d = devices[_deviceId];\n      return (d.startHeight, d.duration, d.storageEPoint, d.storageToken);\n    }\n}\n",
  "sourcePath": "/Users/dustin/iotexproject/prophecy/contracts/contracts/Prophecy.sol",
  "compiler": {
    "name": "solc",
    "version": "0.5.12+commit.7709ece9.Emscripten.clang"
  },
  "schemaVersion": "3.3.1",
  "updatedAt": "2020-10-30T21:59:16.585Z",
  "devdoc": {
    "methods": {
      "pause()": {
        "details": "called by the owner to pause, triggers stopped state"
      },
      "transferOwnership(address)": {
        "details": "Allows the current owner to transfer control of the contract to a newOwner.",
        "params": {
          "newOwner": "The address to transfer ownership to."
        }
      },
      "unpause()": {
        "details": "called by the owner to unpause, returns to normal state"
      }
    }
  },
  "userdoc": {
    "methods": {}
  }
}