{
  "contractName": "Prophecy",
  "abi": [
    {
      "inputs": [],
      "payable": false,
      "stateMutability": "nonpayable",
      "type": "constructor"
    },
    {
      "anonymous": false,
      "inputs": [
        {
          "indexed": true,
          "internalType": "bytes32",
          "name": "deviceID",
          "type": "bytes32"
        },
        {
          "indexed": true,
          "internalType": "address",
          "name": "claimer",
          "type": "address"
        },
        {
          "indexed": false,
          "internalType": "uint256",
          "name": "amount",
          "type": "uint256"
        }
      ],
      "name": "Claimed",
      "type": "event"
    },
    {
      "anonymous": false,
      "inputs": [
        {
          "indexed": true,
          "internalType": "address",
          "name": "previousOwner",
          "type": "address"
        },
        {
          "indexed": true,
          "internalType": "address",
          "name": "newOwner",
          "type": "address"
        }
      ],
      "name": "OwnershipTransferred",
      "type": "event"
    },
    {
      "anonymous": false,
      "inputs": [],
      "name": "Pause",
      "type": "event"
    },
    {
      "anonymous": false,
      "inputs": [
        {
          "indexed": true,
          "internalType": "bytes32",
          "name": "deviceID",
          "type": "bytes32"
        },
        {
          "indexed": true,
          "internalType": "address",
          "name": "owner",
          "type": "address"
        }
      ],
      "name": "Registered",
      "type": "event"
    },
    {
      "anonymous": false,
      "inputs": [
        {
          "indexed": true,
          "internalType": "bytes32",
          "name": "deviceID",
          "type": "bytes32"
        },
        {
          "indexed": true,
          "internalType": "address",
          "name": "subscriber",
          "type": "address"
        },
        {
          "indexed": false,
          "internalType": "uint256",
          "name": "startHeight",
          "type": "uint256"
        },
        {
          "indexed": false,
          "internalType": "uint256",
          "name": "duration",
          "type": "uint256"
        },
        {
          "indexed": false,
          "internalType": "uint256",
          "name": "income",
          "type": "uint256"
        }
      ],
      "name": "Subscribed",
      "type": "event"
    },
    {
      "anonymous": false,
      "inputs": [],
      "name": "Unpause",
      "type": "event"
    },
    {
      "anonymous": false,
      "inputs": [
        {
          "indexed": true,
          "internalType": "bytes32",
          "name": "deviceID",
          "type": "bytes32"
        },
        {
          "indexed": true,
          "internalType": "address",
          "name": "owner",
          "type": "address"
        }
      ],
      "name": "Updated",
      "type": "event"
    },
    {
      "constant": true,
      "inputs": [
        {
          "internalType": "bytes32",
          "name": "",
          "type": "bytes32"
        }
      ],
      "name": "allowedIDHashes",
      "outputs": [
        {
          "internalType": "bool",
          "name": "",
          "type": "bool"
        }
      ],
      "payable": false,
      "stateMutability": "view",
      "type": "function"
    },
    {
      "constant": true,
      "inputs": [
        {
          "internalType": "uint256",
          "name": "",
          "type": "uint256"
        }
      ],
      "name": "deviceIDs",
      "outputs": [
        {
          "internalType": "bytes32",
          "name": "",
          "type": "bytes32"
        }
      ],
      "payable": false,
      "stateMutability": "view",
      "type": "function"
    },
    {
      "constant": true,
      "inputs": [
        {
          "internalType": "bytes32",
          "name": "",
          "type": "bytes32"
        }
      ],
      "name": "devices",
      "outputs": [
        {
          "internalType": "address",
          "name": "owner",
          "type": "address"
        },
        {
          "internalType": "bool",
          "name": "hasOrder",
          "type": "bool"
        },
        {
          "internalType": "uint32",
          "name": "freq",
          "type": "uint32"
        },
        {
          "internalType": "uint32",
          "name": "pricePerBlock",
          "type": "uint32"
        },
        {
          "internalType": "uint256",
          "name": "settledBalance",
          "type": "uint256"
        },
        {
          "internalType": "uint256",
          "name": "pendingBalance",
          "type": "uint256"
        },
        {
          "internalType": "string",
          "name": "spec",
          "type": "string"
        },
        {
          "internalType": "bytes",
          "name": "rsaPubkeyN",
          "type": "bytes"
        },
        {
          "internalType": "bytes",
          "name": "rsaPubkeyE",
          "type": "bytes"
        }
      ],
      "payable": false,
      "stateMutability": "view",
      "type": "function"
    },
    {
      "constant": true,
      "inputs": [],
      "name": "maxDuration",
      "outputs": [
        {
          "internalType": "uint256",
          "name": "",
          "type": "uint256"
        }
      ],
      "payable": false,
      "stateMutability": "view",
      "type": "function"
    },
    {
      "constant": true,
      "inputs": [
        {
          "internalType": "bytes32",
          "name": "",
          "type": "bytes32"
        }
      ],
      "name": "orders",
      "outputs": [
        {
          "internalType": "uint256",
          "name": "startHeight",
          "type": "uint256"
        },
        {
          "internalType": "uint256",
          "name": "duration",
          "type": "uint256"
        },
        {
          "internalType": "string",
          "name": "storageEPoint",
          "type": "string"
        },
        {
          "internalType": "string",
          "name": "storageToken",
          "type": "string"
        }
      ],
      "payable": false,
      "stateMutability": "view",
      "type": "function"
    },
    {
      "constant": true,
      "inputs": [],
      "name": "owner",
      "outputs": [
        {
          "internalType": "address",
          "name": "",
          "type": "address"
        }
      ],
      "payable": false,
      "stateMutability": "view",
      "type": "function"
    },
    {
      "constant": false,
      "inputs": [],
      "name": "pause",
      "outputs": [],
      "payable": false,
      "stateMutability": "nonpayable",
      "type": "function"
    },
    {
      "constant": true,
      "inputs": [],
      "name": "paused",
      "outputs": [
        {
          "internalType": "bool",
          "name": "",
          "type": "bool"
        }
      ],
      "payable": false,
      "stateMutability": "view",
      "type": "function"
    },
    {
      "constant": true,
      "inputs": [],
      "name": "registrationFee",
      "outputs": [
        {
          "internalType": "uint256",
          "name": "",
          "type": "uint256"
        }
      ],
      "payable": false,
      "stateMutability": "view",
      "type": "function"
    },
    {
      "constant": true,
      "inputs": [],
      "name": "registrationFeeTotal",
      "outputs": [
        {
          "internalType": "uint256",
          "name": "",
          "type": "uint256"
        }
      ],
      "payable": false,
      "stateMutability": "view",
      "type": "function"
    },
    {
      "constant": true,
      "inputs": [],
      "name": "subscriptionFee",
      "outputs": [
        {
          "internalType": "uint256",
          "name": "",
          "type": "uint256"
        }
      ],
      "payable": false,
      "stateMutability": "view",
      "type": "function"
    },
    {
      "constant": true,
      "inputs": [],
      "name": "subscriptionFeeTotal",
      "outputs": [
        {
          "internalType": "uint256",
          "name": "",
          "type": "uint256"
        }
      ],
      "payable": false,
      "stateMutability": "view",
      "type": "function"
    },
    {
      "constant": false,
      "inputs": [
        {
          "internalType": "address",
          "name": "newOwner",
          "type": "address"
        }
      ],
      "name": "transferOwnership",
      "outputs": [],
      "payable": false,
      "stateMutability": "nonpayable",
      "type": "function"
    },
    {
      "constant": false,
      "inputs": [],
      "name": "unpause",
      "outputs": [],
      "payable": false,
      "stateMutability": "nonpayable",
      "type": "function"
    },
    {
      "constant": false,
      "inputs": [
        {
          "internalType": "uint256",
          "name": "fee",
          "type": "uint256"
        }
      ],
      "name": "setRegistrationFee",
      "outputs": [],
      "payable": false,
      "stateMutability": "nonpayable",
      "type": "function"
    },
    {
      "constant": false,
      "inputs": [
        {
          "internalType": "uint256",
          "name": "fee",
          "type": "uint256"
        }
      ],
      "name": "setSubscriptionFee",
      "outputs": [],
      "payable": false,
      "stateMutability": "nonpayable",
      "type": "function"
    },
    {
      "constant": false,
      "inputs": [
        {
          "internalType": "bytes32",
          "name": "_deviceIdHash",
          "type": "bytes32"
        }
      ],
      "name": "preRegisterDevice",
      "outputs": [
        {
          "internalType": "bool",
          "name": "",
          "type": "bool"
        }
      ],
      "payable": false,
      "stateMutability": "nonpayable",
      "type": "function"
    },
    {
      "constant": false,
      "inputs": [
        {
          "internalType": "bytes32",
          "name": "_deviceId",
          "type": "bytes32"
        },
        {
          "internalType": "uint32",
          "name": "_freq",
          "type": "uint32"
        },
        {
          "internalType": "uint32",
          "name": "_price",
          "type": "uint32"
        },
        {
          "internalType": "string",
          "name": "_spec",
          "type": "string"
        },
        {
          "internalType": "bytes",
          "name": "_rsaPubkeyN",
          "type": "bytes"
        },
        {
          "internalType": "bytes",
          "name": "_rsaPubkeyE",
          "type": "bytes"
        }
      ],
      "name": "registerDevice",
      "outputs": [
        {
          "internalType": "bool",
          "name": "",
          "type": "bool"
        }
      ],
      "payable": true,
      "stateMutability": "payable",
      "type": "function"
    },
    {
      "constant": false,
      "inputs": [
        {
          "internalType": "bytes32",
          "name": "_deviceId",
          "type": "bytes32"
        },
        {
          "internalType": "uint32",
          "name": "_freq",
          "type": "uint32"
        },
        {
          "internalType": "uint32",
          "name": "_price",
          "type": "uint32"
        },
        {
          "internalType": "string",
          "name": "_spec",
          "type": "string"
        },
        {
          "internalType": "bytes",
          "name": "_rsaPubkeyN",
          "type": "bytes"
        },
        {
          "internalType": "bytes",
          "name": "_rsaPubkeyE",
          "type": "bytes"
        }
      ],
      "name": "updateDevice",
      "outputs": [
        {
          "internalType": "bool",
          "name": "",
          "type": "bool"
        }
      ],
      "payable": false,
      "stateMutability": "nonpayable",
      "type": "function"
    },
    {
      "constant": false,
      "inputs": [
        {
          "internalType": "bytes32",
          "name": "_deviceId",
          "type": "bytes32"
        },
        {
          "internalType": "uint256",
          "name": "_duration",
          "type": "uint256"
        },
        {
          "internalType": "string",
          "name": "_storageEPoint",
          "type": "string"
        },
        {
          "internalType": "string",
          "name": "_storageToken",
          "type": "string"
        }
      ],
      "name": "subscribe",
      "outputs": [
        {
          "internalType": "bool",
          "name": "",
          "type": "bool"
        }
      ],
      "payable": true,
      "stateMutability": "payable",
      "type": "function"
    },
    {
      "constant": false,
      "inputs": [
        {
          "internalType": "bytes32",
          "name": "_deviceId",
          "type": "bytes32"
        }
      ],
      "name": "claim",
      "outputs": [
        {
          "internalType": "bool",
          "name": "",
          "type": "bool"
        }
      ],
      "payable": false,
      "stateMutability": "nonpayable",
      "type": "function"
    },
    {
      "constant": false,
      "inputs": [],
      "name": "collectFees",
      "outputs": [
        {
          "internalType": "bool",
          "name": "",
          "type": "bool"
        }
      ],
      "payable": false,
      "stateMutability": "nonpayable",
      "type": "function"
    },
    {
      "constant": true,
      "inputs": [
        {
          "internalType": "uint256",
          "name": "_offset",
          "type": "uint256"
        },
        {
          "internalType": "uint8",
          "name": "limit",
          "type": "uint8"
        }
      ],
      "name": "getDeviceIDs",
      "outputs": [
        {
          "internalType": "uint256",
          "name": "count",
          "type": "uint256"
        },
        {
          "internalType": "bytes32[]",
          "name": "ids",
          "type": "bytes32[]"
        }
      ],
      "payable": false,
      "stateMutability": "view",
      "type": "function"
    },
    {
      "constant": true,
      "inputs": [
        {
          "internalType": "bytes32",
          "name": "_deviceId",
          "type": "bytes32"
        }
      ],
      "name": "getDeviceInfoByID",
      "outputs": [
        {
          "internalType": "address",
          "name": "",
          "type": "address"
        },
        {
          "internalType": "uint32",
          "name": "",
          "type": "uint32"
        },
        {
          "internalType": "uint32",
          "name": "",
          "type": "uint32"
        },
        {
          "internalType": "uint256",
          "name": "",
          "type": "uint256"
        },
        {
          "internalType": "uint256",
          "name": "",
          "type": "uint256"
        },
        {
          "internalType": "string",
          "name": "",
          "type": "string"
        },
        {
          "internalType": "bytes",
          "name": "",
          "type": "bytes"
        },
        {
          "internalType": "bytes",
          "name": "",
          "type": "bytes"
        }
      ],
      "payable": false,
      "stateMutability": "view",
      "type": "function"
    },
    {
      "constant": true,
      "inputs": [
        {
          "internalType": "bytes32",
          "name": "_deviceId",
          "type": "bytes32"
        }
      ],
      "name": "getDeviceOrderByID",
      "outputs": [
        {
          "internalType": "uint256",
          "name": "",
          "type": "uint256"
        },
        {
          "internalType": "uint256",
          "name": "",
          "type": "uint256"
        },
        {
          "internalType": "string",
          "name": "",
          "type": "string"
        },
        {
          "internalType": "string",
          "name": "",
          "type": "string"
        }
      ],
      "payable": false,
      "stateMutability": "view",
      "type": "function"
    }
  ],
  "bytecode": "0x608060405260008060146101000a81548160ff02191690831515021790555034801561002a57600080fd5b50336000806101000a81548173ffffffffffffffffffffffffffffffffffffffff021916908373ffffffffffffffffffffffffffffffffffffffff1602179055506141d58061007a6000396000f3fe6080604052600436106101665760003560e01c80637ca4d124116100d1578063c320c7271161008a578063c879657211610064578063c879657214611108578063cc9e7d7714611137578063f2fde38b1461118a578063f3d728f1146111db57610166565b8063c320c72714610da1578063c593422214610ddc578063c5c400de14610f0a57610166565b80637ca4d1241461096c5780638217b2d7146109bf5780638456cb5914610bb25780638da5cb5b14610bc95780639c3f1e9014610c20578063bd66528a14610d4e57610166565b80633f4ba83a116101235780633f4ba83a14610517578063507a43cb1461052e578063582c1e8b146107595780635c975abb146108d75780636ac84956146109065780636db5c8fd1461094157610166565b80630a00eba81461016b5780630aa0a1751461019657806314c44e09146101c15780632a610840146101ec57806330425cc4146102905780633a1b70c0146102df575b600080fd5b34801561017757600080fd5b50610180611206565b6040518082815260200191505060405180910390f35b3480156101a257600080fd5b506101ab61120c565b6040518082815260200191505060405180910390f35b3480156101cd57600080fd5b506101d6611212565b6040518082815260200191505060405180910390f35b3480156101f857600080fd5b506102326004803603604081101561020f57600080fd5b8101908080359060200190929190803560ff169060200190929190505050611218565b6040518083815260200180602001828103825283818151815260200191508051906020019060200280838360005b8381101561027b578082015181840152602081019050610260565b50505050905001935050505060405180910390f35b34801561029c57600080fd5b506102c9600480360360208110156102b357600080fd5b81019080803590602001909291905050506112e5565b6040518082815260200191505060405180910390f35b3480156102eb57600080fd5b506104fd600480360360c081101561030257600080fd5b8101908080359060200190929190803563ffffffff169060200190929190803563ffffffff1690602001909291908035906020019064010000000081111561034957600080fd5b82018360208201111561035b57600080fd5b8035906020019184600183028401116401000000008311171561037d57600080fd5b91908080601f016020809104026020016040519081016040528093929190818152602001838380828437600081840152601f19601f820116905080830192505050505050509192919290803590602001906401000000008111156103e057600080fd5b8201836020820111156103f257600080fd5b8035906020019184600183028401116401000000008311171561041457600080fd5b91908080601f016020809104026020016040519081016040528093929190818152602001838380828437600081840152601f19601f8201169050808301925050505050505091929192908035906020019064010000000081111561047757600080fd5b82018360208201111561048957600080fd5b803590602001918460018302840111640100000000831117156104ab57600080fd5b91908080601f016020809104026020016040519081016040528093929190818152602001838380828437600081840152601f19601f820116905080830192505050505050509192919290505050611306565b604051808215151515815260200191505060405180910390f35b34801561052357600080fd5b5061052c6119a5565b005b61073f600480360360c081101561054457600080fd5b8101908080359060200190929190803563ffffffff169060200190929190803563ffffffff1690602001909291908035906020019064010000000081111561058b57600080fd5b82018360208201111561059d57600080fd5b803590602001918460018302840111640100000000831117156105bf57600080fd5b91908080601f016020809104026020016040519081016040528093929190818152602001838380828437600081840152601f19601f8201169050808301925050505050505091929192908035906020019064010000000081111561062257600080fd5b82018360208201111561063457600080fd5b8035906020019184600183028401116401000000008311171561065657600080fd5b91908080601f016020809104026020016040519081016040528093929190818152602001838380828437600081840152601f19601f820116905080830192505050505050509192919290803590602001906401000000008111156106b957600080fd5b8201836020820111156106cb57600080fd5b803590602001918460018302840111640100000000831117156106ed57600080fd5b91908080601f016020809104026020016040519081016040528093929190818152602001838380828437600081840152601f19601f820116905080830192505050505050509192919290505050611a5f565b604051808215151515815260200191505060405180910390f35b6108bd6004803603608081101561076f57600080fd5b810190808035906020019092919080359060200190929190803590602001906401000000008111156107a057600080fd5b8201836020820111156107b257600080fd5b803590602001918460018302840111640100000000831117156107d457600080fd5b91908080601f016020809104026020016040519081016040528093929190818152602001838380828437600081840152601f19601f8201169050808301925050505050505091929192908035906020019064010000000081111561083757600080fd5b82018360208201111561084957600080fd5b8035906020019184600183028401116401000000008311171561086b57600080fd5b91908080601f016020809104026020016040519081016040528093929190818152602001838380828437600081840152601f19601f82011690508083019250505050505050919291929050505061214d565b604051808215151515815260200191505060405180910390f35b3480156108e357600080fd5b506108ec612822565b604051808215151515815260200191505060405180910390f35b34801561091257600080fd5b5061093f6004803603602081101561092957600080fd5b8101908080359060200190929190505050612835565b005b34801561094d57600080fd5b50610956612898565b6040518082815260200191505060405180910390f35b34801561097857600080fd5b506109a56004803603602081101561098f57600080fd5b810190808035906020019092919050505061289f565b604051808215151515815260200191505060405180910390f35b3480156109cb57600080fd5b506109f8600480360360208110156109e257600080fd5b81019080803590602001909291905050506129dd565b604051808973ffffffffffffffffffffffffffffffffffffffff1673ffffffffffffffffffffffffffffffffffffffff1681526020018863ffffffff1663ffffffff1681526020018763ffffffff1663ffffffff168152602001868152602001858152602001806020018060200180602001848103845287818151815260200191508051906020019080838360005b83811015610aa2578082015181840152602081019050610a87565b50505050905090810190601f168015610acf5780820380516001836020036101000a031916815260200191505b50848103835286818151815260200191508051906020019080838360005b83811015610b08578082015181840152602081019050610aed565b50505050905090810190601f168015610b355780820380516001836020036101000a031916815260200191505b50848103825285818151815260200191508051906020019080838360005b83811015610b6e578082015181840152602081019050610b53565b50505050905090810190601f168015610b9b5780820380516001836020036101000a031916815260200191505b509b50505050505050505050505060405180910390f35b348015610bbe57600080fd5b50610bc7612e5a565b005b348015610bd557600080fd5b50610bde612f16565b604051808273ffffffffffffffffffffffffffffffffffffffff1673ffffffffffffffffffffffffffffffffffffffff16815260200191505060405180910390f35b348015610c2c57600080fd5b50610c5960048036036020811015610c4357600080fd5b8101908080359060200190929190505050612f3b565b604051808581526020018481526020018060200180602001838103835285818151815260200191508051906020019080838360005b83811015610ca9578082015181840152602081019050610c8e565b50505050905090810190601f168015610cd65780820380516001836020036101000a031916815260200191505b50838103825284818151815260200191508051906020019080838360005b83811015610d0f578082015181840152602081019050610cf4565b50505050905090810190601f168015610d3c5780820380516001836020036101000a031916815260200191505b50965050505050505060405180910390f35b348015610d5a57600080fd5b50610d8760048036036020811015610d7157600080fd5b810190808035906020019092919050505061309b565b604051808215151515815260200191505060405180910390f35b348015610dad57600080fd5b50610dda60048036036020811015610dc457600080fd5b81019080803590602001909291905050506135ea565b005b348015610de857600080fd5b50610e1560048036036020811015610dff57600080fd5b810190808035906020019092919050505061364d565b604051808581526020018481526020018060200180602001838103835285818151815260200191508051906020019080838360005b83811015610e65578082015181840152602081019050610e4a565b50505050905090810190601f168015610e925780820380516001836020036101000a031916815260200191505b50838103825284818151815260200191508051906020019080838360005b83811015610ecb578082015181840152602081019050610eb0565b50505050905090810190601f168015610ef85780820380516001836020036101000a031916815260200191505b50965050505050505060405180910390f35b348015610f1657600080fd5b50610f4360048036036020811015610f2d57600080fd5b81019080803590602001909291905050506139d5565b604051808a73ffffffffffffffffffffffffffffffffffffffff1673ffffffffffffffffffffffffffffffffffffffff168152602001891515151581526020018863ffffffff1663ffffffff1681526020018763ffffffff1663ffffffff168152602001868152602001858152602001806020018060200180602001848103845287818151815260200191508051906020019080838360005b83811015610ff7578082015181840152602081019050610fdc565b50505050905090810190601f1680156110245780820380516001836020036101000a031916815260200191505b50848103835286818151815260200191508051906020019080838360005b8381101561105d578082015181840152602081019050611042565b50505050905090810190601f16801561108a5780820380516001836020036101000a031916815260200191505b50848103825285818151815260200191508051906020019080838360005b838110156110c35780820151818401526020810190506110a8565b50505050905090810190601f1680156110f05780820380516001836020036101000a031916815260200191505b509c5050505050505050505050505060405180910390f35b34801561111457600080fd5b5061111d613c38565b604051808215151515815260200191505060405180910390f35b34801561114357600080fd5b506111706004803603602081101561115a57600080fd5b8101908080359060200190929190505050613d07565b604051808215151515815260200191505060405180910390f35b34801561119657600080fd5b506111d9600480360360208110156111ad57600080fd5b81019080803573ffffffffffffffffffffffffffffffffffffffff169060200190929190505050613d27565b005b3480156111e757600080fd5b506111f0613e78565b6040518082815260200191505060405180910390f35b60085481565b60065481565b60055481565b6000606060018054905084108015611234575060008360ff1614155b61123d57600080fd5b8260ff1660405190808252806020026020018201604052801561126f5781602001602082028038833980820191505090505b50905060008090505b8360ff168110156112dd5760018054905081860110611296576112dd565b6001818601815481106112a557fe5b90600052602060002001548284815181106112bc57fe5b60200260200101818152505082806001019350508080600101915050611278565b509250929050565b600181815481106112f257fe5b906000526020600020016000915090505481565b60008060149054906101000a900460ff161561132157600080fd5b60006002600089815260200190815260200160002060040180546001816001161561010002031660029004905014156113c2576040517f08c379a00000000000000000000000000000000000000000000000000000000081526004018080602001828103825260128152602001807f6e6f74207965742072656769737465726564000000000000000000000000000081525060200191505060405180910390fd5b6000600260008981526020019081526020016000206005018054600181600116156101000203166002900490501415611463576040517f08c379a00000000000000000000000000000000000000000000000000000000081526004018080602001828103825260128152602001807f6e6f74207965742072656769737465726564000000000000000000000000000081525060200191505060405180910390fd5b3373ffffffffffffffffffffffffffffffffffffffff166002600089815260200190815260200160002060000160009054906101000a900473ffffffffffffffffffffffffffffffffffffffff1673ffffffffffffffffffffffffffffffffffffffff161461153a576040517f08c379a00000000000000000000000000000000000000000000000000000000081526004018080602001828103825260098152602001807f6e6f74206f776e6572000000000000000000000000000000000000000000000081525060200191505060405180910390fd5b6000835114156115b2576040517f08c379a00000000000000000000000000000000000000000000000000000000081526004018080602001828103825260198152602001807f525341207075626c6963206b6579204e2072657175697265640000000000000081525060200191505060405180910390fd5b60008251141561162a576040517f08c379a00000000000000000000000000000000000000000000000000000000081526004018080602001828103825260198152602001807f525341207075626c6963206b657920452072657175697265640000000000000081525060200191505060405180910390fd5b60008663ffffffff1614156116a7576040517f08c379a00000000000000000000000000000000000000000000000000000000081526004018080602001828103825260188152602001807f6672657175656e63652063616e6e6f74206265207a65726f000000000000000081525060200191505060405180910390fd5b60008563ffffffff161415611724576040517f08c379a00000000000000000000000000000000000000000000000000000000081526004018080602001828103825260148152602001807f70726963652063616e6e6f74206265207a65726f00000000000000000000000081525060200191505060405180910390fd5b600084511161179b576040517f08c379a00000000000000000000000000000000000000000000000000000000081526004018080602001828103825260148152602001807f737065632075726c20697320726571756972656400000000000000000000000081525060200191505060405180910390fd5b6002600088815260200190815260200160002060000160149054906101000a900460ff161561186857436003600089815260200190815260200160002060010154600360008a8152602001908152602001600020600001540110611867576040517f08c379a000000000000000000000000000000000000000000000000000000000815260040180806020018281038252601d8152602001807f64657669636520696e2061637469766520737562736372697074696f6e00000081525060200191505060405180910390fd5b5b856002600089815260200190815260200160002060000160156101000a81548163ffffffff021916908363ffffffff160217905550846002600089815260200190815260200160002060000160196101000a81548163ffffffff021916908363ffffffff160217905550836002600089815260200190815260200160002060030190805190602001906118fc929190613ee3565b5082600260008981526020019081526020016000206004019080519060200190611927929190613f63565b5081600260008981526020019081526020016000206005019080519060200190611952929190613f63565b503373ffffffffffffffffffffffffffffffffffffffff16877fcb7d4455895001415186ba044ea427ef1c6519bc61551c1c4aafb423828a5e0460405160405180910390a3600190509695505050505050565b6000809054906101000a900473ffffffffffffffffffffffffffffffffffffffff1673ffffffffffffffffffffffffffffffffffffffff163373ffffffffffffffffffffffffffffffffffffffff16146119fe57600080fd5b600060149054906101000a900460ff16611a1757600080fd5b60008060146101000a81548160ff0219169083151502179055507f7805862f689e2f13df9f062ff482ad3ad112aca9e0847911ed832e158c525b3360405160405180910390a1565b60008060149054906101000a900460ff1615611a7a57600080fd5b60046000886040516020018082815260200191505060405160208183030381529060405280519060200120815260200190815260200160002060009054906101000a900460ff16611b33576040517f08c379a000000000000000000000000000000000000000000000000000000000815260040180806020018281038252600e8152602001807f6964206e6f7420616c6c6f77656400000000000000000000000000000000000081525060200191505060405180910390fd5b60006002600089815260200190815260200160002060040180546001816001161561010002031660029004905014611bd3576040517f08c379a00000000000000000000000000000000000000000000000000000000081526004018080602001828103825260128152602001807f616c72656164792072656769737465726564000000000000000000000000000081525060200191505060405180910390fd5b60006002600089815260200190815260200160002060050180546001816001161561010002031660029004905014611c73576040517f08c379a00000000000000000000000000000000000000000000000000000000081526004018080602001828103825260128152602001807f616c72656164792072656769737465726564000000000000000000000000000081525060200191505060405180910390fd5b600083511415611ceb576040517f08c379a00000000000000000000000000000000000000000000000000000000081526004018080602001828103825260198152602001807f525341207075626c6963206b6579204e2072657175697265640000000000000081525060200191505060405180910390fd5b600082511415611d63576040517f08c379a00000000000000000000000000000000000000000000000000000000081526004018080602001828103825260198152602001807f525341207075626c6963206b657920452072657175697265640000000000000081525060200191505060405180910390fd5b60008663ffffffff161015611de0576040517f08c379a000000000000000000000000000000000000000000000000000000000815260040180806020018281038252601e8152602001807f6672657175656e6365206e6565647320746f20626520706f736974697665000081525060200191505060405180910390fd5b6000845111611e57576040517f08c379a00000000000000000000000000000000000000000000000000000000081526004018080602001828103825260148152602001807f737065632075726c20697320726571756972656400000000000000000000000081525060200191505060405180910390fd5b600554341015611ecf576040517f08c379a000000000000000000000000000000000000000000000000000000000815260040180806020018281038252600e8152602001807f6e6f7420656e6f7567682066656500000000000000000000000000000000000081525060200191505060405180910390fd5b34600760008282540192505081905550600060046000896040516020018082815260200191505060405160208183030381529060405280519060200120815260200190815260200160002060006101000a81548160ff0219169083151502179055506040518061012001604052803373ffffffffffffffffffffffffffffffffffffffff1681526020016000151581526020018763ffffffff1681526020018663ffffffff1681526020016000815260200160008152602001858152602001848152602001838152506002600089815260200190815260200160002060008201518160000160006101000a81548173ffffffffffffffffffffffffffffffffffffffff021916908373ffffffffffffffffffffffffffffffffffffffff16021790555060208201518160000160146101000a81548160ff02191690831515021790555060408201518160000160156101000a81548163ffffffff021916908363ffffffff16021790555060608201518160000160196101000a81548163ffffffff021916908363ffffffff1602179055506080820151816001015560a0820151816002015560c0820151816003019080519060200190612090929190613fe3565b5060e08201518160040190805190602001906120ad929190614063565b506101008201518160050190805190602001906120cb929190614063565b5090505060018790806001815401808255809150509060018203906000526020600020016000909192909190915055503373ffffffffffffffffffffffffffffffffffffffff16877f7d917fcbc9a29a9705ff9936ffa599500e4fd902e4486bae317414fe967b307c60405160405180910390a3600190509695505050505050565b60008060149054906101000a900460ff161561216857600080fd5b6000600260008781526020019081526020016000206004018054600181600116156101000203166002900490501415612209576040517f08c379a000000000000000000000000000000000000000000000000000000000815260040180806020018281038252600e8152602001807f6e6f20737563682064657669636500000000000000000000000000000000000081525060200191505060405180910390fd5b60006002600087815260200190815260200160002060050180546001816001161561010002031660029004905014156122aa576040517f08c379a000000000000000000000000000000000000000000000000000000000815260040180806020018281038252600e8152602001807f6e6f20737563682064657669636500000000000000000000000000000000000081525060200191505060405180910390fd5b6000835111612321576040517f08c379a00000000000000000000000000000000000000000000000000000000081526004018080602001828103825260198152602001807f73746f7261676520656e64706f696e742072657175697265640000000000000081525060200191505060405180910390fd5b6000825111612398576040517f08c379a000000000000000000000000000000000000000000000000000000000815260040180806020018281038252601d8152602001807f73746f726167652061636365737320746f6b656e20726571756972656400000081525060200191505060405180910390fd5b6000841180156123ab57506217bb008411155b61241d576040517f08c379a00000000000000000000000000000000000000000000000000000000081526004018080602001828103825260168152602001807f696e617070726f707269617465206475726174696f6e0000000000000000000081525060200191505060405180910390fd5b61245c6002600087815260200190815260200160002060000160199054906101000a900463ffffffff1663ffffffff1685613e7e90919063ffffffff16565b600654013410156124d5576040517f08c379a000000000000000000000000000000000000000000000000000000000815260040180806020018281038252600e8152602001807f6e6f7420656e6f7567682066656500000000000000000000000000000000000081525060200191505060405180910390fd5b6002600086815260200190815260200160002060000160149054906101000a900460ff161561263257436003600087815260200190815260200160002060010154600360008881526020019081526020016000206000015401106125a1576040517f08c379a000000000000000000000000000000000000000000000000000000000815260040180806020018281038252601d8152602001807f64657669636520696e2061637469766520737562736372697074696f6e00000081525060200191505060405180910390fd5b43600360008781526020019081526020016000206000018190555083600360008781526020019081526020016000206001018190555082600360008781526020019081526020016000206002019080519060200190612601929190613ee3565b508160036000878152602001908152602001600020600301908051906020019061262c929190613ee3565b506126e7565b60016002600087815260200190815260200160002060000160146101000a81548160ff02191690831515021790555060405180608001604052804381526020018581526020018481526020018381525060036000878152602001908152602001600020600082015181600001556020820151816001015560408201518160020190805190602001906126c5929190613fe3565b5060608201518160030190805190602001906126e2929190613fe3565b509050505b6006546008600082825401925050819055506000600260008781526020019081526020016000206002015411156127725761275760026000878152602001908152602001600020600201546002600088815260200190815260200160002060010154613eb290919063ffffffff16565b60026000878152602001908152602001600020600101819055505b61278760065434613ecc90919063ffffffff16565b60026000878152602001908152602001600020600201819055503373ffffffffffffffffffffffffffffffffffffffff16857f14eb24fb455e757cfe06ef6ececd72db9ba42266bf8e62d0fd7b639bf1d52a104387600260008b81526020019081526020016000206002015460405180848152602001838152602001828152602001935050505060405180910390a360019050949350505050565b600060149054906101000a900460ff1681565b6000809054906101000a900473ffffffffffffffffffffffffffffffffffffffff1673ffffffffffffffffffffffffffffffffffffffff163373ffffffffffffffffffffffffffffffffffffffff161461288e57600080fd5b8060068190555050565b6217bb0081565b60008060009054906101000a900473ffffffffffffffffffffffffffffffffffffffff1673ffffffffffffffffffffffffffffffffffffffff163373ffffffffffffffffffffffffffffffffffffffff16146128fa57600080fd5b600060149054906101000a900460ff161561291457600080fd5b6004600083815260200190815260200160002060009054906101000a900460ff16156129a8576040517f08c379a00000000000000000000000000000000000000000000000000000000081526004018080602001828103825260138152602001807f616c72656164792077686974656c69737465640000000000000000000000000081525060200191505060405180910390fd5b60016004600084815260200190815260200160002060006101000a81548160ff02191690831515021790555060019050919050565b600080600080600060608060606000600260008b81526020019081526020016000206004018054600181600116156101000203166002900490501415612a8b576040517f08c379a000000000000000000000000000000000000000000000000000000000815260040180806020018281038252600e8152602001807f6e6f20737563682064657669636500000000000000000000000000000000000081525060200191505060405180910390fd5b6000600260008b81526020019081526020016000206005018054600181600116156101000203166002900490501415612b2c576040517f08c379a000000000000000000000000000000000000000000000000000000000815260040180806020018281038252600e8152602001807f6e6f20737563682064657669636500000000000000000000000000000000000081525060200191505060405180910390fd5b612b346140e3565b600260008b8152602001908152602001600020604051806101200160405290816000820160009054906101000a900473ffffffffffffffffffffffffffffffffffffffff1673ffffffffffffffffffffffffffffffffffffffff1673ffffffffffffffffffffffffffffffffffffffff1681526020016000820160149054906101000a900460ff161515151581526020016000820160159054906101000a900463ffffffff1663ffffffff1663ffffffff1681526020016000820160199054906101000a900463ffffffff1663ffffffff1663ffffffff1681526020016001820154815260200160028201548152602001600382018054600181600116156101000203166002900480601f016020809104026020016040519081016040528092919081815260200182805460018160011615610100020316600290048015612cbd5780601f10612c9257610100808354040283529160200191612cbd565b820191906000526020600020905b815481529060010190602001808311612ca057829003601f168201915b50505050508152602001600482018054600181600116156101000203166002900480601f016020809104026020016040519081016040528092919081815260200182805460018160011615610100020316600290048015612d5f5780601f10612d3457610100808354040283529160200191612d5f565b820191906000526020600020905b815481529060010190602001808311612d4257829003601f168201915b50505050508152602001600582018054600181600116156101000203166002900480601f016020809104026020016040519081016040528092919081815260200182805460018160011615610100020316600290048015612e015780601f10612dd657610100808354040283529160200191612e01565b820191906000526020600020905b815481529060010190602001808311612de457829003601f168201915b505050505081525050905080600001518160400151826060015183608001518460a001518560c001518660e001518761010001518292508191508090509850985098509850985098509850985050919395975091939597565b6000809054906101000a900473ffffffffffffffffffffffffffffffffffffffff1673ffffffffffffffffffffffffffffffffffffffff163373ffffffffffffffffffffffffffffffffffffffff1614612eb357600080fd5b600060149054906101000a900460ff1615612ecd57600080fd5b6001600060146101000a81548160ff0219169083151502179055507f6985a02210a168e66602d3235cb6db0e70f92b3ba4d376a33c0f3d9434bff62560405160405180910390a1565b6000809054906101000a900473ffffffffffffffffffffffffffffffffffffffff1681565b6003602052806000526040600020600091509050806000015490806001015490806002018054600181600116156101000203166002900480601f016020809104026020016040519081016040528092919081815260200182805460018160011615610100020316600290048015612ff35780601f10612fc857610100808354040283529160200191612ff3565b820191906000526020600020905b815481529060010190602001808311612fd657829003601f168201915b505050505090806003018054600181600116156101000203166002900480601f0160208091040260200160405190810160405280929190818152602001828054600181600116156101000203166002900480156130915780601f1061306657610100808354040283529160200191613091565b820191906000526020600020905b81548152906001019060200180831161307457829003601f168201915b5050505050905084565b60008060149054906101000a900460ff16156130b657600080fd5b6000600260008481526020019081526020016000206004018054600181600116156101000203166002900490501415613157576040517f08c379a000000000000000000000000000000000000000000000000000000000815260040180806020018281038252600e8152602001807f6e6f20737563682064657669636500000000000000000000000000000000000081525060200191505060405180910390fd5b60006002600084815260200190815260200160002060050180546001816001161561010002031660029004905014156131f8576040517f08c379a000000000000000000000000000000000000000000000000000000000815260040180806020018281038252600e8152602001807f6e6f20737563682064657669636500000000000000000000000000000000000081525060200191505060405180910390fd5b3373ffffffffffffffffffffffffffffffffffffffff166002600084815260200190815260200160002060000160009054906101000a900473ffffffffffffffffffffffffffffffffffffffff1673ffffffffffffffffffffffffffffffffffffffff16146132cf576040517f08c379a00000000000000000000000000000000000000000000000000000000081526004018080602001828103825260098152602001807f6e6f74206f776e6572000000000000000000000000000000000000000000000081525060200191505060405180910390fd5b6002600083815260200190815260200160002060000160149054906101000a900460ff16613365576040517f08c379a00000000000000000000000000000000000000000000000000000000081526004018080602001828103825260198152602001807f646576696365206e6f742079657420737562736372696265640000000000000081525060200191505060405180910390fd5b43600360008481526020019081526020016000206001015460036000858152602001908152602001600020600001540110613408576040517f08c379a000000000000000000000000000000000000000000000000000000000815260040180806020018281038252601d8152602001807f64657669636520696e2061637469766520737562736372697074696f6e00000081525060200191505060405180910390fd5b60006002600084815260200190815260200160002060020154111561349d5761346660026000848152602001908152602001600020600201546002600085815260200190815260200160002060010154613eb290919063ffffffff16565b6002600084815260200190815260200160002060010181905550600060026000848152602001908152602001600020600201819055505b6000600260008481526020019081526020016000206001015490506000811161352e576040517f08c379a000000000000000000000000000000000000000000000000000000000815260040180806020018281038252600a8152602001807f6e6f2062616c616e63650000000000000000000000000000000000000000000081525060200191505060405180910390fd5b600060026000858152602001908152602001600020600101819055503373ffffffffffffffffffffffffffffffffffffffff166108fc829081150290604051600060405180830381858888f19350505050158015613590573d6000803e3d6000fd5b503373ffffffffffffffffffffffffffffffffffffffff16837f0508a8b4117d9a7b3d8f5895f6413e61b4f9a2df35afbfb41e78d0ecfff1843f836040518082815260200191505060405180910390a36001915050919050565b6000809054906101000a900473ffffffffffffffffffffffffffffffffffffffff1673ffffffffffffffffffffffffffffffffffffffff163373ffffffffffffffffffffffffffffffffffffffff161461364357600080fd5b8060058190555050565b60008060608060006002600087815260200190815260200160002060040180546001816001161561010002031660029004905014156136f4576040517f08c379a000000000000000000000000000000000000000000000000000000000815260040180806020018281038252600e8152602001807f6e6f20737563682064657669636500000000000000000000000000000000000081525060200191505060405180910390fd5b6000600260008781526020019081526020016000206005018054600181600116156101000203166002900490501415613795576040517f08c379a000000000000000000000000000000000000000000000000000000000815260040180806020018281038252600e8152602001807f6e6f20737563682064657669636500000000000000000000000000000000000081525060200191505060405180910390fd5b6002600086815260200190815260200160002060000160149054906101000a900460ff1661382b576040517f08c379a000000000000000000000000000000000000000000000000000000000815260040180806020018281038252600c8152602001807f6e6f206f7264657220796574000000000000000000000000000000000000000081525060200191505060405180910390fd5b613833614153565b600360008781526020019081526020016000206040518060800160405290816000820154815260200160018201548152602001600282018054600181600116156101000203166002900480601f0160208091040260200160405190810160405280929190818152602001828054600181600116156101000203166002900480156138fe5780601f106138d3576101008083540402835291602001916138fe565b820191906000526020600020905b8154815290600101906020018083116138e157829003601f168201915b50505050508152602001600382018054600181600116156101000203166002900480601f0160208091040260200160405190810160405280929190818152602001828054600181600116156101000203166002900480156139a05780601f10613975576101008083540402835291602001916139a0565b820191906000526020600020905b81548152906001019060200180831161398357829003601f168201915b505050505081525050905080600001518160200151826040015183606001518191508090509450945094509450509193509193565b60026020528060005260406000206000915090508060000160009054906101000a900473ffffffffffffffffffffffffffffffffffffffff16908060000160149054906101000a900460ff16908060000160159054906101000a900463ffffffff16908060000160199054906101000a900463ffffffff1690806001015490806002015490806003018054600181600116156101000203166002900480601f016020809104026020016040519081016040528092919081815260200182805460018160011615610100020316600290048015613af25780601f10613ac757610100808354040283529160200191613af2565b820191906000526020600020905b815481529060010190602001808311613ad557829003601f168201915b505050505090806004018054600181600116156101000203166002900480601f016020809104026020016040519081016040528092919081815260200182805460018160011615610100020316600290048015613b905780601f10613b6557610100808354040283529160200191613b90565b820191906000526020600020905b815481529060010190602001808311613b7357829003601f168201915b505050505090806005018054600181600116156101000203166002900480601f016020809104026020016040519081016040528092919081815260200182805460018160011615610100020316600290048015613c2e5780601f10613c0357610100808354040283529160200191613c2e565b820191906000526020600020905b815481529060010190602001808311613c1157829003601f168201915b5050505050905089565b60008060009054906101000a900473ffffffffffffffffffffffffffffffffffffffff1673ffffffffffffffffffffffffffffffffffffffff163373ffffffffffffffffffffffffffffffffffffffff1614613c9357600080fd5b60006008546007540190506000811115613cff57600060078190555060006008819055503373ffffffffffffffffffffffffffffffffffffffff166108fc829081150290604051600060405180830381858888f19350505050158015613cfd573d6000803e3d6000fd5b505b600191505090565b60046020528060005260406000206000915054906101000a900460ff1681565b6000809054906101000a900473ffffffffffffffffffffffffffffffffffffffff1673ffffffffffffffffffffffffffffffffffffffff163373ffffffffffffffffffffffffffffffffffffffff1614613d8057600080fd5b600073ffffffffffffffffffffffffffffffffffffffff168173ffffffffffffffffffffffffffffffffffffffff161415613dba57600080fd5b8073ffffffffffffffffffffffffffffffffffffffff166000809054906101000a900473ffffffffffffffffffffffffffffffffffffffff1673ffffffffffffffffffffffffffffffffffffffff167f8be0079c531659141344cd1fd0a4f28419497f9722a3daafe3b4186f6b6457e060405160405180910390a3806000806101000a81548173ffffffffffffffffffffffffffffffffffffffff021916908373ffffffffffffffffffffffffffffffffffffffff16021790555050565b60075481565b600080831415613e915760009050613eac565b818302905081838281613ea057fe5b0414613ea857fe5b8090505b92915050565b6000818301905082811015613ec357fe5b80905092915050565b600082821115613ed857fe5b818303905092915050565b828054600181600116156101000203166002900490600052602060002090601f016020900481019282601f10613f2457805160ff1916838001178555613f52565b82800160010185558215613f52579182015b82811115613f51578251825591602001919060010190613f36565b5b509050613f5f919061417b565b5090565b828054600181600116156101000203166002900490600052602060002090601f016020900481019282601f10613fa457805160ff1916838001178555613fd2565b82800160010185558215613fd2579182015b82811115613fd1578251825591602001919060010190613fb6565b5b509050613fdf919061417b565b5090565b828054600181600116156101000203166002900490600052602060002090601f016020900481019282601f1061402457805160ff1916838001178555614052565b82800160010185558215614052579182015b82811115614051578251825591602001919060010190614036565b5b50905061405f919061417b565b5090565b828054600181600116156101000203166002900490600052602060002090601f016020900481019282601f106140a457805160ff19168380011785556140d2565b828001600101855582156140d2579182015b828111156140d15782518255916020019190600101906140b6565b5b5090506140df919061417b565b5090565b604051806101200160405280600073ffffffffffffffffffffffffffffffffffffffff168152602001600015158152602001600063ffffffff168152602001600063ffffffff16815260200160008152602001600081526020016060815260200160608152602001606081525090565b6040518060800160405280600081526020016000815260200160608152602001606081525090565b61419d91905b80821115614199576000816000905550600101614181565b5090565b9056fea265627a7a72315820989f3dcc6799a32033459e183d54bc1ab5acee15061b6dfc0af3efd5688c7fbc64736f6c634300050c0032",
  "source": "pragma solidity <6.0 >=0.4.24;\n\nimport \"./Pausable.sol\";\nimport \"./SafeMath.sol\";\n\ncontract Prophecy is Pausable {\n  using SafeMath for uint256;\n\n  event Registered(bytes32 indexed deviceID, address indexed owner); // add more details if necessary\n  event Subscribed(bytes32 indexed deviceID, address indexed subscriber, uint256 startHeight, uint256 duration, uint256 income);\n  event Claimed(bytes32 indexed deviceID, address indexed claimer, uint256 amount);\n  event Updated(bytes32 indexed deviceID, address indexed owner); // add more details if necessary\n\n  /// STORAGE MAPPINGS\n  bytes32[] public deviceIDs;\n  mapping (bytes32 => Device) public devices;\n  mapping (bytes32 => Order) public orders;\n  mapping (bytes32 => bool) public allowedIDHashes; // allowed hashes of IDs\n\n  uint256 public registrationFee;\n  uint256 public subscriptionFee;\n  uint256 public registrationFeeTotal;\n  uint256 public subscriptionFeeTotal;\n\n  uint256 public constant maxDuration = 86400 / 5 * 90; // 90 days\n\n  /// TYPES\n  struct Device {\n      // Intrinsic properties\n      address owner;          // owner's address\n      bool    hasOrder;       // order placed\n      uint32  freq;           // how many seconds per data point\n      uint32  pricePerBlock;  // in terms of IOTX\n      uint256 settledBalance; // balance ready to claim\n      uint256 pendingBalance; // balance in pending\n      string  spec;           // link to the spec\n      bytes   rsaPubkeyN;     // RSA public key N\n      bytes   rsaPubkeyE;     // RSA public key E\n  }\n\n  struct Order {\n      // Order info\n      uint256 startHeight;  // the height starting from which this device's data stream is bought\n      uint256 duration;     // how many blocks this order lasts\n      string storageEPoint; // storage endpoint buyer provides\n      string storageToken;  // access token to the storage endpoint, encrypted by devicePublicKey\n  }\n\n  // CONSTRUCTOR\n  constructor () public {\n  }\n\n  // EXTERNAL FUNCTIONS\n  function setRegistrationFee(uint256 fee) public onlyOwner {\n    registrationFee = fee;\n  }\n\n  function setSubscriptionFee(uint256 fee) public onlyOwner {\n    subscriptionFee = fee;\n  }\n\n  // Populate the whitelist after manufacturing\n  function preRegisterDevice(bytes32 _deviceIdHash)\n    public onlyOwner whenNotPaused returns (bool)\n    {\n      require(!allowedIDHashes[_deviceIdHash], \"already whitelisted\");\n\n      allowedIDHashes[_deviceIdHash] = true;\n      return true;\n    }\n\n  // Pay to Register the device\n  function registerDevice(\n    bytes32 _deviceId,\n    uint32 _freq,\n    uint32 _price,\n    string memory _spec,\n    bytes memory _rsaPubkeyN,\n    bytes memory _rsaPubkeyE\n    )\n    public whenNotPaused payable returns (bool)\n    {\n      require(allowedIDHashes[keccak256(abi.encodePacked(_deviceId))], \"id not allowed\");\n      require(devices[_deviceId].rsaPubkeyN.length == 0, \"already registered\");\n      require(devices[_deviceId].rsaPubkeyE.length == 0, \"already registered\");\n      require(_rsaPubkeyN.length != 0, \"RSA public key N required\");\n      require(_rsaPubkeyE.length != 0, \"RSA public key E required\");\n      require(_freq >= 0, \"frequence needs to be positive\");\n      require(bytes(_spec).length > 0, \"spec url is required\");\n      require(msg.value >= registrationFee, \"not enough fee\");\n\n      registrationFeeTotal += msg.value;\n      allowedIDHashes[keccak256(abi.encodePacked(_deviceId))] = false;\n      devices[_deviceId] = Device(msg.sender, false, _freq, _price, 0, 0, _spec, _rsaPubkeyN, _rsaPubkeyE);\n      deviceIDs.push(_deviceId);\n      emit Registered(_deviceId, msg.sender);\n      return true;\n    }\n\n    // Update info about a registered device\n    function updateDevice(\n      bytes32 _deviceId,\n      uint32 _freq,\n      uint32 _price,\n      string memory _spec,\n      bytes memory _rsaPubkeyN,\n      bytes memory _rsaPubkeyE\n      )\n      public whenNotPaused returns (bool)\n      {\n        require(devices[_deviceId].rsaPubkeyN.length != 0, \"not yet registered\");\n        require(devices[_deviceId].rsaPubkeyE.length != 0, \"not yet registered\");\n        require(devices[_deviceId].owner == msg.sender, \"not owner\");\n        require(_rsaPubkeyN.length != 0, \"RSA public key N required\");\n        require(_rsaPubkeyE.length != 0, \"RSA public key E required\");\n        require(_freq != 0, \"frequence cannot be zero\");\n        require(_price != 0, \"price cannot be zero\");\n        require(bytes(_spec).length > 0, \"spec url is required\");\n\n        // To be on the safe side, tho we can allow change when a device is subscribed\n        if (devices[_deviceId].hasOrder) {\n          require(orders[_deviceId].startHeight + orders[_deviceId].duration < block.number, \"device in active subscription\");\n        }\n\n        devices[_deviceId].freq = _freq;\n        devices[_deviceId].pricePerBlock = _price;\n        devices[_deviceId].spec = _spec;\n        devices[_deviceId].rsaPubkeyN = _rsaPubkeyN;\n        devices[_deviceId].rsaPubkeyE = _rsaPubkeyE;\n        emit Updated(_deviceId, msg.sender);\n        return true;\n      }\n\n  // Pay to subscribe to the device's data stream\n  function subscribe(\n    bytes32 _deviceId,\n    uint256 _duration,\n    string memory _storageEPoint,\n    string memory _storageToken\n    ) public whenNotPaused payable returns (bool)\n  {\n    require(devices[_deviceId].rsaPubkeyN.length != 0, \"no such device\");\n    require(devices[_deviceId].rsaPubkeyE.length != 0, \"no such device\");\n    require(bytes(_storageEPoint).length > 0, \"storage endpoint required\");\n    require(bytes(_storageToken).length > 0, \"storage access token required\");\n    require(_duration > 0 && _duration <= maxDuration, \"inappropriate duration\");\n    require(msg.value >= subscriptionFee + _duration.mul(devices[_deviceId].pricePerBlock), \"not enough fee\");\n\n    if (devices[_deviceId].hasOrder) {\n      require(orders[_deviceId].startHeight + orders[_deviceId].duration < block.number, \"device in active subscription\");\n      orders[_deviceId].startHeight = block.number;\n      orders[_deviceId].duration = _duration;\n      orders[_deviceId].storageEPoint = _storageEPoint;\n      orders[_deviceId].storageToken = _storageToken;\n    } else {\n      // first time subscrible\n      devices[_deviceId].hasOrder = true;\n      orders[_deviceId] = Order(block.number, _duration, _storageEPoint, _storageToken);\n    }\n\n    subscriptionFeeTotal += subscriptionFee;\n    if (devices[_deviceId].pendingBalance > 0) {\n      devices[_deviceId].settledBalance = devices[_deviceId].settledBalance.add(devices[_deviceId].pendingBalance);\n    }\n    devices[_deviceId].pendingBalance = msg.value.sub(subscriptionFee);\n    emit Subscribed(_deviceId, msg.sender, block.number, _duration, devices[_deviceId].pendingBalance);\n    return true;\n  }\n\n  // Device owner claims the payment after its matured\n  function claim(bytes32 _deviceId) public whenNotPaused returns (bool)\n  {\n    require(devices[_deviceId].rsaPubkeyN.length != 0, \"no such device\");\n    require(devices[_deviceId].rsaPubkeyE.length != 0, \"no such device\");\n    require(devices[_deviceId].owner == msg.sender, \"not owner\");\n    require(devices[_deviceId].hasOrder, \"device not yet subscribed\");\n    require(orders[_deviceId].startHeight + orders[_deviceId].duration < block.number, \"device in active subscription\");\n\n    if (devices[_deviceId].pendingBalance > 0) {\n      devices[_deviceId].settledBalance = devices[_deviceId].settledBalance.add(devices[_deviceId].pendingBalance);\n      devices[_deviceId].pendingBalance = 0;\n    }\n    uint256 balance = devices[_deviceId].settledBalance;\n    require(balance > 0, \"no balance\");\n\n    devices[_deviceId].settledBalance = 0;\n    msg.sender.transfer(balance);\n    emit Claimed(_deviceId, msg.sender, balance);\n    return true;\n  }\n\n  // Contract owner collect the fee\n  function collectFees() onlyOwner public returns (bool) {\n    uint256 total = registrationFeeTotal + subscriptionFeeTotal;\n    if (total > 0) {\n      registrationFeeTotal = 0;\n      subscriptionFeeTotal = 0;\n      msg.sender.transfer(total);\n    }\n    return true;\n  }\n\n  // Get device IDs with pagination\n  function getDeviceIDs(uint256 _offset, uint8 limit)\n    public view returns (uint256 count, bytes32[] memory ids) {\n      require(_offset < deviceIDs.length && limit != 0);\n\n      ids = new bytes32[](limit);\n      for (uint256 i = 0; i < limit; i++) {\n          if (_offset + i >= deviceIDs.length) {\n              break;\n          }\n          ids[count] = deviceIDs[_offset + i];\n          count++;\n      }\n  }\n\n  // Get device info by ID\n  function getDeviceInfoByID(\n    bytes32 _deviceId\n  ) public view returns (address, uint32, uint32, uint256, uint256, string memory, bytes memory, bytes memory) {\n    require(devices[_deviceId].rsaPubkeyN.length != 0, \"no such device\");\n    require(devices[_deviceId].rsaPubkeyE.length != 0, \"no such device\");\n\n    Device memory d = devices[_deviceId];\n    return (d.owner, d.freq, d.pricePerBlock, d.settledBalance, d.pendingBalance, d.spec, d.rsaPubkeyN, d.rsaPubkeyE);\n  }\n\n  // Get device order by ID\n  function getDeviceOrderByID(\n      bytes32 _deviceId\n    ) public view returns (uint256, uint256, string memory, string memory) {\n      require(devices[_deviceId].rsaPubkeyN.length != 0, \"no such device\");\n      require(devices[_deviceId].rsaPubkeyE.length != 0, \"no such device\");\n      require(devices[_deviceId].hasOrder, \"no order yet\");\n\n      Order memory o = orders[_deviceId];\n      return (o.startHeight, o.duration, o.storageEPoint, o.storageToken);\n    }\n}\n",
  "sourcePath": "/Users/dustin/iotexproject/pebble-prophecy/contracts/contracts/Prophecy.sol",
  "compiler": {
    "name": "solc",
    "version": "0.5.12+commit.7709ece9.Emscripten.clang"
  },
  "schemaVersion": "3.3.1",
  "updatedAt": "2020-11-24T23:21:09.368Z",
  "devdoc": {
    "methods": {
      "pause()": {
        "details": "called by the owner to pause, triggers stopped state"
      },
      "transferOwnership(address)": {
        "details": "Allows the current owner to transfer control of the contract to a newOwner.",
        "params": {
          "newOwner": "The address to transfer ownership to."
        }
      },
      "unpause()": {
        "details": "called by the owner to unpause, returns to normal state"
      }
    }
  },
  "userdoc": {
    "methods": {}
  }
}