{
  "contractName": "Prophecy",
  "abi": [
    {
      "inputs": [],
      "payable": false,
      "stateMutability": "nonpayable",
      "type": "constructor"
    },
    {
      "anonymous": false,
      "inputs": [
        {
          "indexed": true,
          "internalType": "bytes32",
          "name": "deviceID",
          "type": "bytes32"
        },
        {
          "indexed": true,
          "internalType": "address",
          "name": "claimer",
          "type": "address"
        },
        {
          "indexed": false,
          "internalType": "uint256",
          "name": "amount",
          "type": "uint256"
        }
      ],
      "name": "Claimed",
      "type": "event"
    },
    {
      "anonymous": false,
      "inputs": [
        {
          "indexed": true,
          "internalType": "address",
          "name": "previousOwner",
          "type": "address"
        },
        {
          "indexed": true,
          "internalType": "address",
          "name": "newOwner",
          "type": "address"
        }
      ],
      "name": "OwnershipTransferred",
      "type": "event"
    },
    {
      "anonymous": false,
      "inputs": [],
      "name": "Pause",
      "type": "event"
    },
    {
      "anonymous": false,
      "inputs": [
        {
          "indexed": true,
          "internalType": "bytes32",
          "name": "deviceID",
          "type": "bytes32"
        },
        {
          "indexed": true,
          "internalType": "address",
          "name": "owner",
          "type": "address"
        }
      ],
      "name": "Registered",
      "type": "event"
    },
    {
      "anonymous": false,
      "inputs": [
        {
          "indexed": true,
          "internalType": "bytes32",
          "name": "deviceID",
          "type": "bytes32"
        },
        {
          "indexed": true,
          "internalType": "address",
          "name": "subscriber",
          "type": "address"
        },
        {
          "indexed": false,
          "internalType": "uint256",
          "name": "startHeight",
          "type": "uint256"
        },
        {
          "indexed": false,
          "internalType": "uint256",
          "name": "duration",
          "type": "uint256"
        },
        {
          "indexed": false,
          "internalType": "uint256",
          "name": "income",
          "type": "uint256"
        }
      ],
      "name": "Subscribed",
      "type": "event"
    },
    {
      "anonymous": false,
      "inputs": [],
      "name": "Unpause",
      "type": "event"
    },
    {
      "anonymous": false,
      "inputs": [
        {
          "indexed": true,
          "internalType": "bytes32",
          "name": "deviceID",
          "type": "bytes32"
        },
        {
          "indexed": true,
          "internalType": "address",
          "name": "owner",
          "type": "address"
        }
      ],
      "name": "Updated",
      "type": "event"
    },
    {
      "constant": true,
      "inputs": [
        {
          "internalType": "bytes32",
          "name": "",
          "type": "bytes32"
        }
      ],
      "name": "allowedIDHashes",
      "outputs": [
        {
          "internalType": "bool",
          "name": "",
          "type": "bool"
        }
      ],
      "payable": false,
      "stateMutability": "view",
      "type": "function"
    },
    {
      "constant": true,
      "inputs": [
        {
          "internalType": "uint256",
          "name": "",
          "type": "uint256"
        }
      ],
      "name": "deviceIDs",
      "outputs": [
        {
          "internalType": "bytes32",
          "name": "",
          "type": "bytes32"
        }
      ],
      "payable": false,
      "stateMutability": "view",
      "type": "function"
    },
    {
      "constant": true,
      "inputs": [
        {
          "internalType": "bytes32",
          "name": "",
          "type": "bytes32"
        }
      ],
      "name": "devices",
      "outputs": [
        {
          "internalType": "address",
          "name": "owner",
          "type": "address"
        },
        {
          "internalType": "bool",
          "name": "hasOrder",
          "type": "bool"
        },
        {
          "internalType": "uint32",
          "name": "freq",
          "type": "uint32"
        },
        {
          "internalType": "uint256",
          "name": "pricePerBlock",
          "type": "uint256"
        },
        {
          "internalType": "uint256",
          "name": "settledBalance",
          "type": "uint256"
        },
        {
          "internalType": "uint256",
          "name": "pendingBalance",
          "type": "uint256"
        },
        {
          "internalType": "string",
          "name": "spec",
          "type": "string"
        },
        {
          "internalType": "bytes",
          "name": "rsaPubkeyN",
          "type": "bytes"
        },
        {
          "internalType": "bytes",
          "name": "rsaPubkeyE",
          "type": "bytes"
        }
      ],
      "payable": false,
      "stateMutability": "view",
      "type": "function"
    },
    {
      "constant": true,
      "inputs": [],
      "name": "maxDuration",
      "outputs": [
        {
          "internalType": "uint256",
          "name": "",
          "type": "uint256"
        }
      ],
      "payable": false,
      "stateMutability": "view",
      "type": "function"
    },
    {
      "constant": true,
      "inputs": [
        {
          "internalType": "bytes32",
          "name": "",
          "type": "bytes32"
        }
      ],
      "name": "orders",
      "outputs": [
        {
          "internalType": "uint256",
          "name": "startHeight",
          "type": "uint256"
        },
        {
          "internalType": "uint256",
          "name": "duration",
          "type": "uint256"
        },
        {
          "internalType": "string",
          "name": "storageEPoint",
          "type": "string"
        },
        {
          "internalType": "string",
          "name": "storageToken",
          "type": "string"
        }
      ],
      "payable": false,
      "stateMutability": "view",
      "type": "function"
    },
    {
      "constant": true,
      "inputs": [],
      "name": "owner",
      "outputs": [
        {
          "internalType": "address",
          "name": "",
          "type": "address"
        }
      ],
      "payable": false,
      "stateMutability": "view",
      "type": "function"
    },
    {
      "constant": false,
      "inputs": [],
      "name": "pause",
      "outputs": [],
      "payable": false,
      "stateMutability": "nonpayable",
      "type": "function"
    },
    {
      "constant": true,
      "inputs": [],
      "name": "paused",
      "outputs": [
        {
          "internalType": "bool",
          "name": "",
          "type": "bool"
        }
      ],
      "payable": false,
      "stateMutability": "view",
      "type": "function"
    },
    {
      "constant": true,
      "inputs": [],
      "name": "registrationFee",
      "outputs": [
        {
          "internalType": "uint256",
          "name": "",
          "type": "uint256"
        }
      ],
      "payable": false,
      "stateMutability": "view",
      "type": "function"
    },
    {
      "constant": true,
      "inputs": [],
      "name": "registrationFeeTotal",
      "outputs": [
        {
          "internalType": "uint256",
          "name": "",
          "type": "uint256"
        }
      ],
      "payable": false,
      "stateMutability": "view",
      "type": "function"
    },
    {
      "constant": true,
      "inputs": [],
      "name": "subscriptionFee",
      "outputs": [
        {
          "internalType": "uint256",
          "name": "",
          "type": "uint256"
        }
      ],
      "payable": false,
      "stateMutability": "view",
      "type": "function"
    },
    {
      "constant": true,
      "inputs": [],
      "name": "subscriptionFeeTotal",
      "outputs": [
        {
          "internalType": "uint256",
          "name": "",
          "type": "uint256"
        }
      ],
      "payable": false,
      "stateMutability": "view",
      "type": "function"
    },
    {
      "constant": false,
      "inputs": [
        {
          "internalType": "address",
          "name": "newOwner",
          "type": "address"
        }
      ],
      "name": "transferOwnership",
      "outputs": [],
      "payable": false,
      "stateMutability": "nonpayable",
      "type": "function"
    },
    {
      "constant": false,
      "inputs": [],
      "name": "unpause",
      "outputs": [],
      "payable": false,
      "stateMutability": "nonpayable",
      "type": "function"
    },
    {
      "constant": false,
      "inputs": [
        {
          "internalType": "uint256",
          "name": "fee",
          "type": "uint256"
        }
      ],
      "name": "setRegistrationFee",
      "outputs": [],
      "payable": false,
      "stateMutability": "nonpayable",
      "type": "function"
    },
    {
      "constant": false,
      "inputs": [
        {
          "internalType": "uint256",
          "name": "fee",
          "type": "uint256"
        }
      ],
      "name": "setSubscriptionFee",
      "outputs": [],
      "payable": false,
      "stateMutability": "nonpayable",
      "type": "function"
    },
    {
      "constant": false,
      "inputs": [
        {
          "internalType": "bytes32",
          "name": "_deviceIdHash",
          "type": "bytes32"
        }
      ],
      "name": "preRegisterDevice",
      "outputs": [
        {
          "internalType": "bool",
          "name": "",
          "type": "bool"
        }
      ],
      "payable": false,
      "stateMutability": "nonpayable",
      "type": "function"
    },
    {
      "constant": false,
      "inputs": [
        {
          "internalType": "bytes32",
          "name": "_deviceId",
          "type": "bytes32"
        },
        {
          "internalType": "uint32",
          "name": "_freq",
          "type": "uint32"
        },
        {
          "internalType": "uint32",
          "name": "_price",
          "type": "uint32"
        },
        {
          "internalType": "string",
          "name": "_spec",
          "type": "string"
        },
        {
          "internalType": "bytes",
          "name": "_rsaPubkeyN",
          "type": "bytes"
        },
        {
          "internalType": "bytes",
          "name": "_rsaPubkeyE",
          "type": "bytes"
        }
      ],
      "name": "registerDevice",
      "outputs": [
        {
          "internalType": "bool",
          "name": "",
          "type": "bool"
        }
      ],
      "payable": true,
      "stateMutability": "payable",
      "type": "function"
    },
    {
      "constant": false,
      "inputs": [
        {
          "internalType": "bytes32",
          "name": "_deviceId",
          "type": "bytes32"
        },
        {
          "internalType": "uint32",
          "name": "_freq",
          "type": "uint32"
        },
        {
          "internalType": "uint256",
          "name": "_price",
          "type": "uint256"
        },
        {
          "internalType": "string",
          "name": "_spec",
          "type": "string"
        },
        {
          "internalType": "bytes",
          "name": "_rsaPubkeyN",
          "type": "bytes"
        },
        {
          "internalType": "bytes",
          "name": "_rsaPubkeyE",
          "type": "bytes"
        }
      ],
      "name": "updateDevice",
      "outputs": [
        {
          "internalType": "bool",
          "name": "",
          "type": "bool"
        }
      ],
      "payable": false,
      "stateMutability": "nonpayable",
      "type": "function"
    },
    {
      "constant": false,
      "inputs": [
        {
          "internalType": "bytes32",
          "name": "_deviceId",
          "type": "bytes32"
        },
        {
          "internalType": "uint256",
          "name": "_duration",
          "type": "uint256"
        },
        {
          "internalType": "string",
          "name": "_storageEPoint",
          "type": "string"
        },
        {
          "internalType": "string",
          "name": "_storageToken",
          "type": "string"
        }
      ],
      "name": "subscribe",
      "outputs": [
        {
          "internalType": "bool",
          "name": "",
          "type": "bool"
        }
      ],
      "payable": true,
      "stateMutability": "payable",
      "type": "function"
    },
    {
      "constant": false,
      "inputs": [
        {
          "internalType": "bytes32",
          "name": "_deviceId",
          "type": "bytes32"
        }
      ],
      "name": "claim",
      "outputs": [
        {
          "internalType": "bool",
          "name": "",
          "type": "bool"
        }
      ],
      "payable": false,
      "stateMutability": "nonpayable",
      "type": "function"
    },
    {
      "constant": false,
      "inputs": [],
      "name": "collectFees",
      "outputs": [
        {
          "internalType": "bool",
          "name": "",
          "type": "bool"
        }
      ],
      "payable": false,
      "stateMutability": "nonpayable",
      "type": "function"
    },
    {
      "constant": true,
      "inputs": [
        {
          "internalType": "uint256",
          "name": "_offset",
          "type": "uint256"
        },
        {
          "internalType": "uint8",
          "name": "limit",
          "type": "uint8"
        }
      ],
      "name": "getDeviceIDs",
      "outputs": [
        {
          "internalType": "uint256",
          "name": "count",
          "type": "uint256"
        },
        {
          "internalType": "bytes32[]",
          "name": "ids",
          "type": "bytes32[]"
        }
      ],
      "payable": false,
      "stateMutability": "view",
      "type": "function"
    },
    {
      "constant": true,
      "inputs": [
        {
          "internalType": "bytes32",
          "name": "_deviceId",
          "type": "bytes32"
        }
      ],
      "name": "getDeviceInfoByID",
      "outputs": [
        {
          "internalType": "address",
          "name": "",
          "type": "address"
        },
        {
          "internalType": "uint32",
          "name": "",
          "type": "uint32"
        },
        {
          "internalType": "uint256",
          "name": "",
          "type": "uint256"
        },
        {
          "internalType": "uint256",
          "name": "",
          "type": "uint256"
        },
        {
          "internalType": "uint256",
          "name": "",
          "type": "uint256"
        },
        {
          "internalType": "string",
          "name": "",
          "type": "string"
        },
        {
          "internalType": "bytes",
          "name": "",
          "type": "bytes"
        },
        {
          "internalType": "bytes",
          "name": "",
          "type": "bytes"
        }
      ],
      "payable": false,
      "stateMutability": "view",
      "type": "function"
    },
    {
      "constant": true,
      "inputs": [
        {
          "internalType": "bytes32",
          "name": "_deviceId",
          "type": "bytes32"
        }
      ],
      "name": "getDeviceOrderByID",
      "outputs": [
        {
          "internalType": "uint256",
          "name": "",
          "type": "uint256"
        },
        {
          "internalType": "uint256",
          "name": "",
          "type": "uint256"
        },
        {
          "internalType": "string",
          "name": "",
          "type": "string"
        },
        {
          "internalType": "string",
          "name": "",
          "type": "string"
        }
      ],
      "payable": false,
      "stateMutability": "view",
      "type": "function"
    }
  ],
  "bytecode": "0x608060405260008060146101000a81548160ff02191690831515021790555034801561002a57600080fd5b50336000806101000a81548173ffffffffffffffffffffffffffffffffffffffff021916908373ffffffffffffffffffffffffffffffffffffffff16021790555061400e8061007a6000396000f3fe6080604052600436106101665760003560e01c80638217b2d7116100d1578063c320c7271161008a578063c879657211610064578063c8796572146110ea578063cc9e7d7714611119578063f2fde38b1461116c578063f3d728f1146111bd57610166565b8063c320c72714610d8f578063c593422214610dca578063c5c400de14610ef857610166565b80638217b2d7146107875780638456cb591461096e5780638da5cb5b146109855780639c3f1e90146109dc578063a104c2e414610b0a578063bd66528a14610d3c57610166565b8063507a43cb11610123578063507a43cb146102f6578063582c1e8b146105215780635c975abb1461069f5780636ac84956146106ce5780636db5c8fd146107095780637ca4d1241461073457610166565b80630a00eba81461016b5780630aa0a1751461019657806314c44e09146101c15780632a610840146101ec57806330425cc4146102905780633f4ba83a146102df575b600080fd5b34801561017757600080fd5b506101806111e8565b6040518082815260200191505060405180910390f35b3480156101a257600080fd5b506101ab6111ee565b6040518082815260200191505060405180910390f35b3480156101cd57600080fd5b506101d66111f4565b6040518082815260200191505060405180910390f35b3480156101f857600080fd5b506102326004803603604081101561020f57600080fd5b8101908080359060200190929190803560ff1690602001909291905050506111fa565b6040518083815260200180602001828103825283818151815260200191508051906020019060200280838360005b8381101561027b578082015181840152602081019050610260565b50505050905001935050505060405180910390f35b34801561029c57600080fd5b506102c9600480360360208110156102b357600080fd5b81019080803590602001909291905050506112c7565b6040518082815260200191505060405180910390f35b3480156102eb57600080fd5b506102f46112e8565b005b610507600480360360c081101561030c57600080fd5b8101908080359060200190929190803563ffffffff169060200190929190803563ffffffff1690602001909291908035906020019064010000000081111561035357600080fd5b82018360208201111561036557600080fd5b8035906020019184600183028401116401000000008311171561038757600080fd5b91908080601f016020809104026020016040519081016040528093929190818152602001838380828437600081840152601f19601f820116905080830192505050505050509192919290803590602001906401000000008111156103ea57600080fd5b8201836020820111156103fc57600080fd5b8035906020019184600183028401116401000000008311171561041e57600080fd5b91908080601f016020809104026020016040519081016040528093929190818152602001838380828437600081840152601f19601f8201169050808301925050505050505091929192908035906020019064010000000081111561048157600080fd5b82018360208201111561049357600080fd5b803590602001918460018302840111640100000000831117156104b557600080fd5b91908080601f016020809104026020016040519081016040528093929190818152602001838380828437600081840152601f19601f8201169050808301925050505050505091929192905050506113a2565b604051808215151515815260200191505060405180910390f35b6106856004803603608081101561053757600080fd5b8101908080359060200190929190803590602001909291908035906020019064010000000081111561056857600080fd5b82018360208201111561057a57600080fd5b8035906020019184600183028401116401000000008311171561059c57600080fd5b91908080601f016020809104026020016040519081016040528093929190818152602001838380828437600081840152601f19601f820116905080830192505050505050509192919290803590602001906401000000008111156105ff57600080fd5b82018360208201111561061157600080fd5b8035906020019184600183028401116401000000008311171561063357600080fd5b91908080601f016020809104026020016040519081016040528093929190818152602001838380828437600081840152601f19601f820116905080830192505050505050509192919290505050611a73565b604051808215151515815260200191505060405180910390f35b3480156106ab57600080fd5b506106b46120bb565b604051808215151515815260200191505060405180910390f35b3480156106da57600080fd5b50610707600480360360208110156106f157600080fd5b81019080803590602001909291905050506120ce565b005b34801561071557600080fd5b5061071e612131565b6040518082815260200191505060405180910390f35b34801561074057600080fd5b5061076d6004803603602081101561075757600080fd5b8101908080359060200190929190505050612138565b604051808215151515815260200191505060405180910390f35b34801561079357600080fd5b506107c0600480360360208110156107aa57600080fd5b8101908080359060200190929190505050612276565b604051808973ffffffffffffffffffffffffffffffffffffffff1673ffffffffffffffffffffffffffffffffffffffff1681526020018863ffffffff1663ffffffff168152602001878152602001868152602001858152602001806020018060200180602001848103845287818151815260200191508051906020019080838360005b8381101561085e578082015181840152602081019050610843565b50505050905090810190601f16801561088b5780820380516001836020036101000a031916815260200191505b50848103835286818151815260200191508051906020019080838360005b838110156108c45780820151818401526020810190506108a9565b50505050905090810190601f1680156108f15780820380516001836020036101000a031916815260200191505b50848103825285818151815260200191508051906020019080838360005b8381101561092a57808201518184015260208101905061090f565b50505050905090810190601f1680156109575780820380516001836020036101000a031916815260200191505b509b50505050505050505050505060405180910390f35b34801561097a57600080fd5b506109836126d7565b005b34801561099157600080fd5b5061099a612793565b604051808273ffffffffffffffffffffffffffffffffffffffff1673ffffffffffffffffffffffffffffffffffffffff16815260200191505060405180910390f35b3480156109e857600080fd5b50610a15600480360360208110156109ff57600080fd5b81019080803590602001909291905050506127b8565b604051808581526020018481526020018060200180602001838103835285818151815260200191508051906020019080838360005b83811015610a65578082015181840152602081019050610a4a565b50505050905090810190601f168015610a925780820380516001836020036101000a031916815260200191505b50838103825284818151815260200191508051906020019080838360005b83811015610acb578082015181840152602081019050610ab0565b50505050905090810190601f168015610af85780820380516001836020036101000a031916815260200191505b50965050505050505060405180910390f35b348015610b1657600080fd5b50610d22600480360360c0811015610b2d57600080fd5b8101908080359060200190929190803563ffffffff1690602001909291908035906020019092919080359060200190640100000000811115610b6e57600080fd5b820183602082011115610b8057600080fd5b80359060200191846001830284011164010000000083111715610ba257600080fd5b91908080601f016020809104026020016040519081016040528093929190818152602001838380828437600081840152601f19601f82011690508083019250505050505050919291929080359060200190640100000000811115610c0557600080fd5b820183602082011115610c1757600080fd5b80359060200191846001830284011164010000000083111715610c3957600080fd5b91908080601f016020809104026020016040519081016040528093929190818152602001838380828437600081840152601f19601f82011690508083019250505050505050919291929080359060200190640100000000811115610c9c57600080fd5b820183602082011115610cae57600080fd5b80359060200191846001830284011164010000000083111715610cd057600080fd5b91908080601f016020809104026020016040519081016040528093929190818152602001838380828437600081840152601f19601f820116905080830192505050505050509192919290505050612918565b604051808215151515815260200191505060405180910390f35b348015610d4857600080fd5b50610d7560048036036020811015610d5f57600080fd5b8101908080359060200190929190505050612f20565b604051808215151515815260200191505060405180910390f35b348015610d9b57600080fd5b50610dc860048036036020811015610db257600080fd5b810190808035906020019092919050505061346f565b005b348015610dd657600080fd5b50610e0360048036036020811015610ded57600080fd5b81019080803590602001909291905050506134d2565b604051808581526020018481526020018060200180602001838103835285818151815260200191508051906020019080838360005b83811015610e53578082015181840152602081019050610e38565b50505050905090810190601f168015610e805780820380516001836020036101000a031916815260200191505b50838103825284818151815260200191508051906020019080838360005b83811015610eb9578082015181840152602081019050610e9e565b50505050905090810190601f168015610ee65780820380516001836020036101000a031916815260200191505b50965050505050505060405180910390f35b348015610f0457600080fd5b50610f3160048036036020811015610f1b57600080fd5b8101908080359060200190929190505050613824565b604051808a73ffffffffffffffffffffffffffffffffffffffff1673ffffffffffffffffffffffffffffffffffffffff168152602001891515151581526020018863ffffffff1663ffffffff168152602001878152602001868152602001858152602001806020018060200180602001848103845287818151815260200191508051906020019080838360005b83811015610fd9578082015181840152602081019050610fbe565b50505050905090810190601f1680156110065780820380516001836020036101000a031916815260200191505b50848103835286818151815260200191508051906020019080838360005b8381101561103f578082015181840152602081019050611024565b50505050905090810190601f16801561106c5780820380516001836020036101000a031916815260200191505b50848103825285818151815260200191508051906020019080838360005b838110156110a557808201518184015260208101905061108a565b50505050905090810190601f1680156110d25780820380516001836020036101000a031916815260200191505b509c5050505050505050505050505060405180910390f35b3480156110f657600080fd5b506110ff613a77565b604051808215151515815260200191505060405180910390f35b34801561112557600080fd5b506111526004803603602081101561113c57600080fd5b8101908080359060200190929190505050613b46565b604051808215151515815260200191505060405180910390f35b34801561117857600080fd5b506111bb6004803603602081101561118f57600080fd5b81019080803573ffffffffffffffffffffffffffffffffffffffff169060200190929190505050613b66565b005b3480156111c957600080fd5b506111d2613cb7565b6040518082815260200191505060405180910390f35b60085481565b60065481565b60055481565b6000606060018054905084108015611216575060008360ff1614155b61121f57600080fd5b8260ff166040519080825280602002602001820160405280156112515781602001602082028038833980820191505090505b50905060008090505b8360ff168110156112bf5760018054905081860110611278576112bf565b60018186018154811061128757fe5b906000526020600020015482848151811061129e57fe5b6020026020010181815250508280600101935050808060010191505061125a565b509250929050565b600181815481106112d457fe5b906000526020600020016000915090505481565b6000809054906101000a900473ffffffffffffffffffffffffffffffffffffffff1673ffffffffffffffffffffffffffffffffffffffff163373ffffffffffffffffffffffffffffffffffffffff161461134157600080fd5b600060149054906101000a900460ff1661135a57600080fd5b60008060146101000a81548160ff0219169083151502179055507f7805862f689e2f13df9f062ff482ad3ad112aca9e0847911ed832e158c525b3360405160405180910390a1565b60008060149054906101000a900460ff16156113bd57600080fd5b60046000886040516020018082815260200191505060405160208183030381529060405280519060200120815260200190815260200160002060009054906101000a900460ff16611476576040517f08c379a000000000000000000000000000000000000000000000000000000000815260040180806020018281038252600e8152602001807f6964206e6f7420616c6c6f77656400000000000000000000000000000000000081525060200191505060405180910390fd5b60006002600089815260200190815260200160002060050180546001816001161561010002031660029004905014611516576040517f08c379a00000000000000000000000000000000000000000000000000000000081526004018080602001828103825260128152602001807f616c72656164792072656769737465726564000000000000000000000000000081525060200191505060405180910390fd5b600060026000898152602001908152602001600020600601805460018160011615610100020316600290049050146115b6576040517f08c379a00000000000000000000000000000000000000000000000000000000081526004018080602001828103825260128152602001807f616c72656164792072656769737465726564000000000000000000000000000081525060200191505060405180910390fd5b60008351141561162e576040517f08c379a00000000000000000000000000000000000000000000000000000000081526004018080602001828103825260198152602001807f525341207075626c6963206b6579204e2072657175697265640000000000000081525060200191505060405180910390fd5b6000825114156116a6576040517f08c379a00000000000000000000000000000000000000000000000000000000081526004018080602001828103825260198152602001807f525341207075626c6963206b657920452072657175697265640000000000000081525060200191505060405180910390fd5b60008663ffffffff161015611723576040517f08c379a000000000000000000000000000000000000000000000000000000000815260040180806020018281038252601e8152602001807f6672657175656e6365206e6565647320746f20626520706f736974697665000081525060200191505060405180910390fd5b600084511161179a576040517f08c379a00000000000000000000000000000000000000000000000000000000081526004018080602001828103825260148152602001807f737065632075726c20697320726571756972656400000000000000000000000081525060200191505060405180910390fd5b600554341015611812576040517f08c379a000000000000000000000000000000000000000000000000000000000815260040180806020018281038252600e8152602001807f6e6f7420656e6f7567682066656500000000000000000000000000000000000081525060200191505060405180910390fd5b34600760008282540192505081905550600060046000896040516020018082815260200191505060405160208183030381529060405280519060200120815260200190815260200160002060006101000a81548160ff0219169083151502179055506040518061012001604052803373ffffffffffffffffffffffffffffffffffffffff1681526020016000151581526020018763ffffffff1681526020018663ffffffff1681526020016000815260200160008152602001858152602001848152602001838152506002600089815260200190815260200160002060008201518160000160006101000a81548173ffffffffffffffffffffffffffffffffffffffff021916908373ffffffffffffffffffffffffffffffffffffffff16021790555060208201518160000160146101000a81548160ff02191690831515021790555060408201518160000160156101000a81548163ffffffff021916908363ffffffff160217905550606082015181600101556080820151816002015560a0820151816003015560c08201518160040190805190602001906119b6929190613d22565b5060e08201518160050190805190602001906119d3929190613da2565b506101008201518160060190805190602001906119f1929190613da2565b5090505060018790806001815401808255809150509060018203906000526020600020016000909192909190915055503373ffffffffffffffffffffffffffffffffffffffff16877f7d917fcbc9a29a9705ff9936ffa599500e4fd902e4486bae317414fe967b307c60405160405180910390a3600190509695505050505050565b60008060149054906101000a900460ff1615611a8e57600080fd5b6000600260008781526020019081526020016000206005018054600181600116156101000203166002900490501415611b2f576040517f08c379a000000000000000000000000000000000000000000000000000000000815260040180806020018281038252600e8152602001807f6e6f20737563682064657669636500000000000000000000000000000000000081525060200191505060405180910390fd5b6000600260008781526020019081526020016000206006018054600181600116156101000203166002900490501415611bd0576040517f08c379a000000000000000000000000000000000000000000000000000000000815260040180806020018281038252600e8152602001807f6e6f20737563682064657669636500000000000000000000000000000000000081525060200191505060405180910390fd5b6000835111611c47576040517f08c379a00000000000000000000000000000000000000000000000000000000081526004018080602001828103825260198152602001807f73746f7261676520656e64706f696e742072657175697265640000000000000081525060200191505060405180910390fd5b600084118015611c5a57506217bb008411155b611ccc576040517f08c379a00000000000000000000000000000000000000000000000000000000081526004018080602001828103825260168152602001807f696e617070726f707269617465206475726174696f6e0000000000000000000081525060200191505060405180910390fd5b611cf5600260008781526020019081526020016000206001015485613cbd90919063ffffffff16565b60065401341015611d6e576040517f08c379a000000000000000000000000000000000000000000000000000000000815260040180806020018281038252600e8152602001807f6e6f7420656e6f7567682066656500000000000000000000000000000000000081525060200191505060405180910390fd5b6002600086815260200190815260200160002060000160149054906101000a900460ff1615611ecb5743600360008781526020019081526020016000206001015460036000888152602001908152602001600020600001540110611e3a576040517f08c379a000000000000000000000000000000000000000000000000000000000815260040180806020018281038252601d8152602001807f64657669636520696e2061637469766520737562736372697074696f6e00000081525060200191505060405180910390fd5b43600360008781526020019081526020016000206000018190555083600360008781526020019081526020016000206001018190555082600360008781526020019081526020016000206002019080519060200190611e9a929190613e22565b5081600360008781526020019081526020016000206003019080519060200190611ec5929190613e22565b50611f80565b60016002600087815260200190815260200160002060000160146101000a81548160ff0219169083151502179055506040518060800160405280438152602001858152602001848152602001838152506003600087815260200190815260200160002060008201518160000155602082015181600101556040820151816002019080519060200190611f5e929190613d22565b506060820151816003019080519060200190611f7b929190613d22565b509050505b60065460086000828254019250508190555060006002600087815260200190815260200160002060030154111561200b57611ff060026000878152602001908152602001600020600301546002600088815260200190815260200160002060020154613cf190919063ffffffff16565b60026000878152602001908152602001600020600201819055505b61202060065434613d0b90919063ffffffff16565b60026000878152602001908152602001600020600301819055503373ffffffffffffffffffffffffffffffffffffffff16857f14eb24fb455e757cfe06ef6ececd72db9ba42266bf8e62d0fd7b639bf1d52a104387600260008b81526020019081526020016000206003015460405180848152602001838152602001828152602001935050505060405180910390a360019050949350505050565b600060149054906101000a900460ff1681565b6000809054906101000a900473ffffffffffffffffffffffffffffffffffffffff1673ffffffffffffffffffffffffffffffffffffffff163373ffffffffffffffffffffffffffffffffffffffff161461212757600080fd5b8060068190555050565b6217bb0081565b60008060009054906101000a900473ffffffffffffffffffffffffffffffffffffffff1673ffffffffffffffffffffffffffffffffffffffff163373ffffffffffffffffffffffffffffffffffffffff161461219357600080fd5b600060149054906101000a900460ff16156121ad57600080fd5b6004600083815260200190815260200160002060009054906101000a900460ff1615612241576040517f08c379a00000000000000000000000000000000000000000000000000000000081526004018080602001828103825260138152602001807f616c72656164792077686974656c69737465640000000000000000000000000081525060200191505060405180910390fd5b60016004600084815260200190815260200160002060006101000a81548160ff02191690831515021790555060019050919050565b600080600080600060608060606000600260008b81526020019081526020016000206005018054600181600116156101000203166002900490501415612324576040517f08c379a000000000000000000000000000000000000000000000000000000000815260040180806020018281038252600e8152602001807f6e6f20737563682064657669636500000000000000000000000000000000000081525060200191505060405180910390fd5b6000600260008b815260200190815260200160002060060180546001816001161561010002031660029004905014156123c5576040517f08c379a000000000000000000000000000000000000000000000000000000000815260040180806020018281038252600e8152602001807f6e6f20737563682064657669636500000000000000000000000000000000000081525060200191505060405180910390fd5b6123cd613ea2565b600260008b8152602001908152602001600020604051806101200160405290816000820160009054906101000a900473ffffffffffffffffffffffffffffffffffffffff1673ffffffffffffffffffffffffffffffffffffffff1673ffffffffffffffffffffffffffffffffffffffff1681526020016000820160149054906101000a900460ff161515151581526020016000820160159054906101000a900463ffffffff1663ffffffff1663ffffffff168152602001600182015481526020016002820154815260200160038201548152602001600482018054600181600116156101000203166002900480601f01602080910402602001604051908101604052809291908181526020018280546001816001161561010002031660029004801561253a5780601f1061250f5761010080835404028352916020019161253a565b820191906000526020600020905b81548152906001019060200180831161251d57829003601f168201915b50505050508152602001600582018054600181600116156101000203166002900480601f0160208091040260200160405190810160405280929190818152602001828054600181600116156101000203166002900480156125dc5780601f106125b1576101008083540402835291602001916125dc565b820191906000526020600020905b8154815290600101906020018083116125bf57829003601f168201915b50505050508152602001600682018054600181600116156101000203166002900480601f01602080910402602001604051908101604052809291908181526020018280546001816001161561010002031660029004801561267e5780601f106126535761010080835404028352916020019161267e565b820191906000526020600020905b81548152906001019060200180831161266157829003601f168201915b505050505081525050905080600001518160400151826060015183608001518460a001518560c001518660e001518761010001518292508191508090509850985098509850985098509850985050919395975091939597565b6000809054906101000a900473ffffffffffffffffffffffffffffffffffffffff1673ffffffffffffffffffffffffffffffffffffffff163373ffffffffffffffffffffffffffffffffffffffff161461273057600080fd5b600060149054906101000a900460ff161561274a57600080fd5b6001600060146101000a81548160ff0219169083151502179055507f6985a02210a168e66602d3235cb6db0e70f92b3ba4d376a33c0f3d9434bff62560405160405180910390a1565b6000809054906101000a900473ffffffffffffffffffffffffffffffffffffffff1681565b6003602052806000526040600020600091509050806000015490806001015490806002018054600181600116156101000203166002900480601f0160208091040260200160405190810160405280929190818152602001828054600181600116156101000203166002900480156128705780601f1061284557610100808354040283529160200191612870565b820191906000526020600020905b81548152906001019060200180831161285357829003601f168201915b505050505090806003018054600181600116156101000203166002900480601f01602080910402602001604051908101604052809291908181526020018280546001816001161561010002031660029004801561290e5780601f106128e35761010080835404028352916020019161290e565b820191906000526020600020905b8154815290600101906020018083116128f157829003601f168201915b5050505050905084565b60008060149054906101000a900460ff161561293357600080fd5b60006002600089815260200190815260200160002060050180546001816001161561010002031660029004905014156129d4576040517f08c379a00000000000000000000000000000000000000000000000000000000081526004018080602001828103825260128152602001807f6e6f74207965742072656769737465726564000000000000000000000000000081525060200191505060405180910390fd5b6000600260008981526020019081526020016000206006018054600181600116156101000203166002900490501415612a75576040517f08c379a00000000000000000000000000000000000000000000000000000000081526004018080602001828103825260128152602001807f6e6f74207965742072656769737465726564000000000000000000000000000081525060200191505060405180910390fd5b3373ffffffffffffffffffffffffffffffffffffffff166002600089815260200190815260200160002060000160009054906101000a900473ffffffffffffffffffffffffffffffffffffffff1673ffffffffffffffffffffffffffffffffffffffff1614612b4c576040517f08c379a00000000000000000000000000000000000000000000000000000000081526004018080602001828103825260098152602001807f6e6f74206f776e6572000000000000000000000000000000000000000000000081525060200191505060405180910390fd5b600083511415612bc4576040517f08c379a00000000000000000000000000000000000000000000000000000000081526004018080602001828103825260198152602001807f525341207075626c6963206b6579204e2072657175697265640000000000000081525060200191505060405180910390fd5b600082511415612c3c576040517f08c379a00000000000000000000000000000000000000000000000000000000081526004018080602001828103825260198152602001807f525341207075626c6963206b657920452072657175697265640000000000000081525060200191505060405180910390fd5b60008663ffffffff161415612cb9576040517f08c379a00000000000000000000000000000000000000000000000000000000081526004018080602001828103825260188152602001807f6672657175656e63652063616e6e6f74206265207a65726f000000000000000081525060200191505060405180910390fd5b6000845111612d30576040517f08c379a00000000000000000000000000000000000000000000000000000000081526004018080602001828103825260148152602001807f737065632075726c20697320726571756972656400000000000000000000000081525060200191505060405180910390fd5b6002600088815260200190815260200160002060000160149054906101000a900460ff1615612dfd57436003600089815260200190815260200160002060010154600360008a8152602001908152602001600020600001540110612dfc576040517f08c379a000000000000000000000000000000000000000000000000000000000815260040180806020018281038252601d8152602001807f64657669636520696e2061637469766520737562736372697074696f6e00000081525060200191505060405180910390fd5b5b856002600089815260200190815260200160002060000160156101000a81548163ffffffff021916908363ffffffff16021790555084600260008981526020019081526020016000206001018190555083600260008981526020019081526020016000206004019080519060200190612e77929190613e22565b5082600260008981526020019081526020016000206005019080519060200190612ea2929190613f0c565b5081600260008981526020019081526020016000206006019080519060200190612ecd929190613f0c565b503373ffffffffffffffffffffffffffffffffffffffff16877fcb7d4455895001415186ba044ea427ef1c6519bc61551c1c4aafb423828a5e0460405160405180910390a3600190509695505050505050565b60008060149054906101000a900460ff1615612f3b57600080fd5b6000600260008481526020019081526020016000206005018054600181600116156101000203166002900490501415612fdc576040517f08c379a000000000000000000000000000000000000000000000000000000000815260040180806020018281038252600e8152602001807f6e6f20737563682064657669636500000000000000000000000000000000000081525060200191505060405180910390fd5b600060026000848152602001908152602001600020600601805460018160011615610100020316600290049050141561307d576040517f08c379a000000000000000000000000000000000000000000000000000000000815260040180806020018281038252600e8152602001807f6e6f20737563682064657669636500000000000000000000000000000000000081525060200191505060405180910390fd5b3373ffffffffffffffffffffffffffffffffffffffff166002600084815260200190815260200160002060000160009054906101000a900473ffffffffffffffffffffffffffffffffffffffff1673ffffffffffffffffffffffffffffffffffffffff1614613154576040517f08c379a00000000000000000000000000000000000000000000000000000000081526004018080602001828103825260098152602001807f6e6f74206f776e6572000000000000000000000000000000000000000000000081525060200191505060405180910390fd5b6002600083815260200190815260200160002060000160149054906101000a900460ff166131ea576040517f08c379a00000000000000000000000000000000000000000000000000000000081526004018080602001828103825260198152602001807f646576696365206e6f742079657420737562736372696265640000000000000081525060200191505060405180910390fd5b4360036000848152602001908152602001600020600101546003600085815260200190815260200160002060000154011061328d576040517f08c379a000000000000000000000000000000000000000000000000000000000815260040180806020018281038252601d8152602001807f64657669636520696e2061637469766520737562736372697074696f6e00000081525060200191505060405180910390fd5b600060026000848152602001908152602001600020600301541115613322576132eb60026000848152602001908152602001600020600301546002600085815260200190815260200160002060020154613cf190919063ffffffff16565b6002600084815260200190815260200160002060020181905550600060026000848152602001908152602001600020600301819055505b600060026000848152602001908152602001600020600201549050600081116133b3576040517f08c379a000000000000000000000000000000000000000000000000000000000815260040180806020018281038252600a8152602001807f6e6f2062616c616e63650000000000000000000000000000000000000000000081525060200191505060405180910390fd5b600060026000858152602001908152602001600020600201819055503373ffffffffffffffffffffffffffffffffffffffff166108fc829081150290604051600060405180830381858888f19350505050158015613415573d6000803e3d6000fd5b503373ffffffffffffffffffffffffffffffffffffffff16837f0508a8b4117d9a7b3d8f5895f6413e61b4f9a2df35afbfb41e78d0ecfff1843f836040518082815260200191505060405180910390a36001915050919050565b6000809054906101000a900473ffffffffffffffffffffffffffffffffffffffff1673ffffffffffffffffffffffffffffffffffffffff163373ffffffffffffffffffffffffffffffffffffffff16146134c857600080fd5b8060058190555050565b6000806060806000600260008781526020019081526020016000206005018054600181600116156101000203166002900490501415613579576040517f08c379a000000000000000000000000000000000000000000000000000000000815260040180806020018281038252600e8152602001807f6e6f20737563682064657669636500000000000000000000000000000000000081525060200191505060405180910390fd5b600060026000878152602001908152602001600020600601805460018160011615610100020316600290049050141561361a576040517f08c379a000000000000000000000000000000000000000000000000000000000815260040180806020018281038252600e8152602001807f6e6f20737563682064657669636500000000000000000000000000000000000081525060200191505060405180910390fd5b6002600086815260200190815260200160002060000160149054906101000a900460ff16156137eb5761364b613f8c565b600360008781526020019081526020016000206040518060800160405290816000820154815260200160018201548152602001600282018054600181600116156101000203166002900480601f0160208091040260200160405190810160405280929190818152602001828054600181600116156101000203166002900480156137165780601f106136eb57610100808354040283529160200191613716565b820191906000526020600020905b8154815290600101906020018083116136f957829003601f168201915b50505050508152602001600382018054600181600116156101000203166002900480601f0160208091040260200160405190810160405280929190818152602001828054600181600116156101000203166002900480156137b85780601f1061378d576101008083540402835291602001916137b8565b820191906000526020600020905b81548152906001019060200180831161379b57829003601f168201915b5050505050815250509050806000015181602001518260400151836060015181915080905094509450945094505061381d565b600080819150809050604051806020016040528060008152506040518060200160405280600081525093509350935093505b9193509193565b60026020528060005260406000206000915090508060000160009054906101000a900473ffffffffffffffffffffffffffffffffffffffff16908060000160149054906101000a900460ff16908060000160159054906101000a900463ffffffff1690806001015490806002015490806003015490806004018054600181600116156101000203166002900480601f0160208091040260200160405190810160405280929190818152602001828054600181600116156101000203166002900480156139315780601f1061390657610100808354040283529160200191613931565b820191906000526020600020905b81548152906001019060200180831161391457829003601f168201915b505050505090806005018054600181600116156101000203166002900480601f0160208091040260200160405190810160405280929190818152602001828054600181600116156101000203166002900480156139cf5780601f106139a4576101008083540402835291602001916139cf565b820191906000526020600020905b8154815290600101906020018083116139b257829003601f168201915b505050505090806006018054600181600116156101000203166002900480601f016020809104026020016040519081016040528092919081815260200182805460018160011615610100020316600290048015613a6d5780601f10613a4257610100808354040283529160200191613a6d565b820191906000526020600020905b815481529060010190602001808311613a5057829003601f168201915b5050505050905089565b60008060009054906101000a900473ffffffffffffffffffffffffffffffffffffffff1673ffffffffffffffffffffffffffffffffffffffff163373ffffffffffffffffffffffffffffffffffffffff1614613ad257600080fd5b60006008546007540190506000811115613b3e57600060078190555060006008819055503373ffffffffffffffffffffffffffffffffffffffff166108fc829081150290604051600060405180830381858888f19350505050158015613b3c573d6000803e3d6000fd5b505b600191505090565b60046020528060005260406000206000915054906101000a900460ff1681565b6000809054906101000a900473ffffffffffffffffffffffffffffffffffffffff1673ffffffffffffffffffffffffffffffffffffffff163373ffffffffffffffffffffffffffffffffffffffff1614613bbf57600080fd5b600073ffffffffffffffffffffffffffffffffffffffff168173ffffffffffffffffffffffffffffffffffffffff161415613bf957600080fd5b8073ffffffffffffffffffffffffffffffffffffffff166000809054906101000a900473ffffffffffffffffffffffffffffffffffffffff1673ffffffffffffffffffffffffffffffffffffffff167f8be0079c531659141344cd1fd0a4f28419497f9722a3daafe3b4186f6b6457e060405160405180910390a3806000806101000a81548173ffffffffffffffffffffffffffffffffffffffff021916908373ffffffffffffffffffffffffffffffffffffffff16021790555050565b60075481565b600080831415613cd05760009050613ceb565b818302905081838281613cdf57fe5b0414613ce757fe5b8090505b92915050565b6000818301905082811015613d0257fe5b80905092915050565b600082821115613d1757fe5b818303905092915050565b828054600181600116156101000203166002900490600052602060002090601f016020900481019282601f10613d6357805160ff1916838001178555613d91565b82800160010185558215613d91579182015b82811115613d90578251825591602001919060010190613d75565b5b509050613d9e9190613fb4565b5090565b828054600181600116156101000203166002900490600052602060002090601f016020900481019282601f10613de357805160ff1916838001178555613e11565b82800160010185558215613e11579182015b82811115613e10578251825591602001919060010190613df5565b5b509050613e1e9190613fb4565b5090565b828054600181600116156101000203166002900490600052602060002090601f016020900481019282601f10613e6357805160ff1916838001178555613e91565b82800160010185558215613e91579182015b82811115613e90578251825591602001919060010190613e75565b5b509050613e9e9190613fb4565b5090565b604051806101200160405280600073ffffffffffffffffffffffffffffffffffffffff168152602001600015158152602001600063ffffffff1681526020016000815260200160008152602001600081526020016060815260200160608152602001606081525090565b828054600181600116156101000203166002900490600052602060002090601f016020900481019282601f10613f4d57805160ff1916838001178555613f7b565b82800160010185558215613f7b579182015b82811115613f7a578251825591602001919060010190613f5f565b5b509050613f889190613fb4565b5090565b6040518060800160405280600081526020016000815260200160608152602001606081525090565b613fd691905b80821115613fd2576000816000905550600101613fba565b5090565b9056fea265627a7a723158208b717ff6e61f29256c25ccf3265cc779cb0bd6acbc30be6387b06742b834ff7464736f6c634300050c0032",
  "source": "pragma solidity <6.0 >=0.4.24;\n\nimport \"./Pausable.sol\";\nimport \"./SafeMath.sol\";\n\ncontract Prophecy is Pausable {\n  using SafeMath for uint256;\n\n  event Registered(bytes32 indexed deviceID, address indexed owner); // add more details if necessary\n  event Subscribed(bytes32 indexed deviceID, address indexed subscriber, uint256 startHeight, uint256 duration, uint256 income);\n  event Claimed(bytes32 indexed deviceID, address indexed claimer, uint256 amount);\n  event Updated(bytes32 indexed deviceID, address indexed owner); // add more details if necessary\n\n  /// STORAGE MAPPINGS\n  bytes32[] public deviceIDs;\n  mapping (bytes32 => Device) public devices;\n  mapping (bytes32 => Order) public orders;\n  mapping (bytes32 => bool) public allowedIDHashes; // allowed hashes of IDs\n\n  uint256 public registrationFee;\n  uint256 public subscriptionFee;\n  uint256 public registrationFeeTotal;\n  uint256 public subscriptionFeeTotal;\n\n  uint256 public constant maxDuration = 86400 / 5 * 90; // 90 days\n\n  /// TYPES\n  struct Device {\n      // Intrinsic properties\n      address owner;          // owner's address\n      bool    hasOrder;       // order placed\n      uint32  freq;           // how many seconds per data point\n      uint256 pricePerBlock;  // in terms of IOTX, in RAUL/Wei (which 1e-18)\n      uint256 settledBalance; // balance ready to claim\n      uint256 pendingBalance; // balance in pending\n      string  spec;           // link to the spec\n      bytes   rsaPubkeyN;     // RSA public key N\n      bytes   rsaPubkeyE;     // RSA public key E\n  }\n\n  struct Order {\n      // Order info\n      uint256 startHeight;  // the height starting from which this device's data stream is bought\n      uint256 duration;     // how many blocks this order lasts\n      string storageEPoint; // storage endpoint buyer provides\n      string storageToken;  // access token to the storage endpoint, encrypted by devicePublicKey\n  }\n\n  // CONSTRUCTOR\n  constructor () public {\n  }\n\n  // EXTERNAL FUNCTIONS\n  function setRegistrationFee(uint256 fee) public onlyOwner {\n    registrationFee = fee;\n  }\n\n  function setSubscriptionFee(uint256 fee) public onlyOwner {\n    subscriptionFee = fee;\n  }\n\n  // Populate the whitelist after manufacturing\n  function preRegisterDevice(bytes32 _deviceIdHash)\n    public onlyOwner whenNotPaused returns (bool)\n    {\n      require(!allowedIDHashes[_deviceIdHash], \"already whitelisted\");\n\n      allowedIDHashes[_deviceIdHash] = true;\n      return true;\n    }\n\n  // Pay to Register the device\n  function registerDevice(\n    bytes32 _deviceId,\n    uint32 _freq,\n    uint32 _price,\n    string memory _spec,\n    bytes memory _rsaPubkeyN,\n    bytes memory _rsaPubkeyE\n    )\n    public whenNotPaused payable returns (bool)\n    {\n      require(allowedIDHashes[keccak256(abi.encodePacked(_deviceId))], \"id not allowed\");\n      require(devices[_deviceId].rsaPubkeyN.length == 0, \"already registered\");\n      require(devices[_deviceId].rsaPubkeyE.length == 0, \"already registered\");\n      require(_rsaPubkeyN.length != 0, \"RSA public key N required\");\n      require(_rsaPubkeyE.length != 0, \"RSA public key E required\");\n      require(_freq >= 0, \"frequence needs to be positive\");\n      require(bytes(_spec).length > 0, \"spec url is required\");\n      require(msg.value >= registrationFee, \"not enough fee\");\n\n      registrationFeeTotal += msg.value;\n      allowedIDHashes[keccak256(abi.encodePacked(_deviceId))] = false;\n      devices[_deviceId] = Device(msg.sender, false, _freq, _price, 0, 0, _spec, _rsaPubkeyN, _rsaPubkeyE);\n      deviceIDs.push(_deviceId);\n      emit Registered(_deviceId, msg.sender);\n      return true;\n    }\n\n    // Update info about a registered device\n    function updateDevice(\n      bytes32 _deviceId,\n      uint32 _freq,\n      uint256 _price,\n      string memory _spec,\n      bytes memory _rsaPubkeyN,\n      bytes memory _rsaPubkeyE\n      )\n      public whenNotPaused returns (bool)\n      {\n        require(devices[_deviceId].rsaPubkeyN.length != 0, \"not yet registered\");\n        require(devices[_deviceId].rsaPubkeyE.length != 0, \"not yet registered\");\n        require(devices[_deviceId].owner == msg.sender, \"not owner\");\n        require(_rsaPubkeyN.length != 0, \"RSA public key N required\");\n        require(_rsaPubkeyE.length != 0, \"RSA public key E required\");\n        require(_freq != 0, \"frequence cannot be zero\");\n        require(bytes(_spec).length > 0, \"spec url is required\");\n\n        // To be on the safe side, tho we can allow change when a device is subscribed\n        if (devices[_deviceId].hasOrder) {\n          require(orders[_deviceId].startHeight + orders[_deviceId].duration < block.number, \"device in active subscription\");\n        }\n\n        devices[_deviceId].freq = _freq;\n        devices[_deviceId].pricePerBlock = _price;\n        devices[_deviceId].spec = _spec;\n        devices[_deviceId].rsaPubkeyN = _rsaPubkeyN;\n        devices[_deviceId].rsaPubkeyE = _rsaPubkeyE;\n        emit Updated(_deviceId, msg.sender);\n        return true;\n      }\n\n  // Pay to subscribe to the device's data stream\n  function subscribe(\n    bytes32 _deviceId,\n    uint256 _duration,\n    string memory _storageEPoint,\n    string memory _storageToken\n    ) public whenNotPaused payable returns (bool)\n  {\n    require(devices[_deviceId].rsaPubkeyN.length != 0, \"no such device\");\n    require(devices[_deviceId].rsaPubkeyE.length != 0, \"no such device\");\n    require(bytes(_storageEPoint).length > 0, \"storage endpoint required\");\n    require(_duration > 0 && _duration <= maxDuration, \"inappropriate duration\");\n    require(msg.value >= subscriptionFee + _duration.mul(devices[_deviceId].pricePerBlock), \"not enough fee\");\n\n    if (devices[_deviceId].hasOrder) {\n      require(orders[_deviceId].startHeight + orders[_deviceId].duration < block.number, \"device in active subscription\");\n      orders[_deviceId].startHeight = block.number;\n      orders[_deviceId].duration = _duration;\n      orders[_deviceId].storageEPoint = _storageEPoint;\n      orders[_deviceId].storageToken = _storageToken;\n    } else {\n      // first time subscrible\n      devices[_deviceId].hasOrder = true;\n      orders[_deviceId] = Order(block.number, _duration, _storageEPoint, _storageToken);\n    }\n\n    subscriptionFeeTotal += subscriptionFee;\n    if (devices[_deviceId].pendingBalance > 0) {\n      devices[_deviceId].settledBalance = devices[_deviceId].settledBalance.add(devices[_deviceId].pendingBalance);\n    }\n    devices[_deviceId].pendingBalance = msg.value.sub(subscriptionFee);\n    emit Subscribed(_deviceId, msg.sender, block.number, _duration, devices[_deviceId].pendingBalance);\n    return true;\n  }\n\n  // Device owner claims the payment after its matured\n  function claim(bytes32 _deviceId) public whenNotPaused returns (bool)\n  {\n    require(devices[_deviceId].rsaPubkeyN.length != 0, \"no such device\");\n    require(devices[_deviceId].rsaPubkeyE.length != 0, \"no such device\");\n    require(devices[_deviceId].owner == msg.sender, \"not owner\");\n    require(devices[_deviceId].hasOrder, \"device not yet subscribed\");\n    require(orders[_deviceId].startHeight + orders[_deviceId].duration < block.number, \"device in active subscription\");\n\n    if (devices[_deviceId].pendingBalance > 0) {\n      devices[_deviceId].settledBalance = devices[_deviceId].settledBalance.add(devices[_deviceId].pendingBalance);\n      devices[_deviceId].pendingBalance = 0;\n    }\n    uint256 balance = devices[_deviceId].settledBalance;\n    require(balance > 0, \"no balance\");\n\n    devices[_deviceId].settledBalance = 0;\n    msg.sender.transfer(balance);\n    emit Claimed(_deviceId, msg.sender, balance);\n    return true;\n  }\n\n  // Contract owner collect the fee\n  function collectFees() onlyOwner public returns (bool) {\n    uint256 total = registrationFeeTotal + subscriptionFeeTotal;\n    if (total > 0) {\n      registrationFeeTotal = 0;\n      subscriptionFeeTotal = 0;\n      msg.sender.transfer(total);\n    }\n    return true;\n  }\n\n  // Get device IDs with pagination\n  function getDeviceIDs(uint256 _offset, uint8 limit)\n    public view returns (uint256 count, bytes32[] memory ids) {\n      require(_offset < deviceIDs.length && limit != 0);\n\n      ids = new bytes32[](limit);\n      for (uint256 i = 0; i < limit; i++) {\n          if (_offset + i >= deviceIDs.length) {\n              break;\n          }\n          ids[count] = deviceIDs[_offset + i];\n          count++;\n      }\n  }\n\n  // Get device info by ID\n  function getDeviceInfoByID(\n    bytes32 _deviceId\n  ) public view returns (address, uint32, uint256, uint256, uint256, string memory, bytes memory, bytes memory) {\n    require(devices[_deviceId].rsaPubkeyN.length != 0, \"no such device\");\n    require(devices[_deviceId].rsaPubkeyE.length != 0, \"no such device\");\n\n    Device memory d = devices[_deviceId];\n    return (d.owner, d.freq, d.pricePerBlock, d.settledBalance, d.pendingBalance, d.spec, d.rsaPubkeyN, d.rsaPubkeyE);\n  }\n\n  // Get device order by ID\n  function getDeviceOrderByID(\n      bytes32 _deviceId\n    ) public view returns (uint256, uint256, string memory, string memory) {\n      require(devices[_deviceId].rsaPubkeyN.length != 0, \"no such device\");\n      require(devices[_deviceId].rsaPubkeyE.length != 0, \"no such device\");\n\n      if (devices[_deviceId].hasOrder) {\n        Order memory o = orders[_deviceId];\n        return (o.startHeight, o.duration, o.storageEPoint, o.storageToken);\n      }\n      return (0, 0, \"\", \"\");\n    }\n}\n",
  "sourcePath": "/Users/dustin/iotexproject/pebble-prophecy/contracts/contracts/Prophecy.sol",
  "compiler": {
    "name": "solc",
    "version": "0.5.12+commit.7709ece9.Emscripten.clang"
  },
  "schemaVersion": "3.3.1",
  "updatedAt": "2020-12-09T01:11:43.401Z",
  "devdoc": {
    "methods": {
      "pause()": {
        "details": "called by the owner to pause, triggers stopped state"
      },
      "transferOwnership(address)": {
        "details": "Allows the current owner to transfer control of the contract to a newOwner.",
        "params": {
          "newOwner": "The address to transfer ownership to."
        }
      },
      "unpause()": {
        "details": "called by the owner to unpause, returns to normal state"
      }
    }
  },
  "userdoc": {
    "methods": {}
  }
}