{
  "contractName": "Prophecy",
  "abi": [
    {
      "inputs": [],
      "payable": false,
      "stateMutability": "nonpayable",
      "type": "constructor"
    },
    {
      "anonymous": false,
      "inputs": [
        {
          "indexed": true,
          "internalType": "address",
          "name": "previousOwner",
          "type": "address"
        },
        {
          "indexed": true,
          "internalType": "address",
          "name": "newOwner",
          "type": "address"
        }
      ],
      "name": "OwnershipTransferred",
      "type": "event"
    },
    {
      "anonymous": false,
      "inputs": [],
      "name": "Pause",
      "type": "event"
    },
    {
      "anonymous": false,
      "inputs": [],
      "name": "Unpause",
      "type": "event"
    },
    {
      "constant": true,
      "inputs": [
        {
          "internalType": "bytes32",
          "name": "",
          "type": "bytes32"
        }
      ],
      "name": "allowedIDHashes",
      "outputs": [
        {
          "internalType": "bool",
          "name": "",
          "type": "bool"
        }
      ],
      "payable": false,
      "stateMutability": "view",
      "type": "function"
    },
    {
      "constant": true,
      "inputs": [
        {
          "internalType": "address",
          "name": "",
          "type": "address"
        }
      ],
      "name": "balanceOf",
      "outputs": [
        {
          "internalType": "uint256",
          "name": "",
          "type": "uint256"
        }
      ],
      "payable": false,
      "stateMutability": "view",
      "type": "function"
    },
    {
      "constant": true,
      "inputs": [
        {
          "internalType": "bytes32",
          "name": "",
          "type": "bytes32"
        }
      ],
      "name": "devices",
      "outputs": [
        {
          "internalType": "bytes32",
          "name": "devicePublicKey",
          "type": "bytes32"
        },
        {
          "internalType": "uint256",
          "name": "freq",
          "type": "uint256"
        },
        {
          "internalType": "bytes32",
          "name": "dimensions",
          "type": "bytes32"
        },
        {
          "internalType": "string",
          "name": "spec",
          "type": "string"
        },
        {
          "internalType": "uint256",
          "name": "pricePerBlock",
          "type": "uint256"
        },
        {
          "internalType": "address",
          "name": "owner",
          "type": "address"
        },
        {
          "internalType": "uint256",
          "name": "startHeight",
          "type": "uint256"
        },
        {
          "internalType": "bytes32",
          "name": "storageEPoint",
          "type": "bytes32"
        },
        {
          "internalType": "string",
          "name": "storageToken",
          "type": "string"
        },
        {
          "internalType": "uint256",
          "name": "duration",
          "type": "uint256"
        }
      ],
      "payable": false,
      "stateMutability": "view",
      "type": "function"
    },
    {
      "constant": true,
      "inputs": [],
      "name": "owner",
      "outputs": [
        {
          "internalType": "address",
          "name": "",
          "type": "address"
        }
      ],
      "payable": false,
      "stateMutability": "view",
      "type": "function"
    },
    {
      "constant": false,
      "inputs": [],
      "name": "pause",
      "outputs": [],
      "payable": false,
      "stateMutability": "nonpayable",
      "type": "function"
    },
    {
      "constant": true,
      "inputs": [],
      "name": "paused",
      "outputs": [
        {
          "internalType": "bool",
          "name": "",
          "type": "bool"
        }
      ],
      "payable": false,
      "stateMutability": "view",
      "type": "function"
    },
    {
      "constant": true,
      "inputs": [],
      "name": "registrationFee",
      "outputs": [
        {
          "internalType": "uint256",
          "name": "",
          "type": "uint256"
        }
      ],
      "payable": false,
      "stateMutability": "view",
      "type": "function"
    },
    {
      "constant": true,
      "inputs": [],
      "name": "registrationFeeTotal",
      "outputs": [
        {
          "internalType": "uint256",
          "name": "",
          "type": "uint256"
        }
      ],
      "payable": false,
      "stateMutability": "view",
      "type": "function"
    },
    {
      "constant": true,
      "inputs": [],
      "name": "subscriptionFee",
      "outputs": [
        {
          "internalType": "uint256",
          "name": "",
          "type": "uint256"
        }
      ],
      "payable": false,
      "stateMutability": "view",
      "type": "function"
    },
    {
      "constant": true,
      "inputs": [],
      "name": "subscriptionFeeTotal",
      "outputs": [
        {
          "internalType": "uint256",
          "name": "",
          "type": "uint256"
        }
      ],
      "payable": false,
      "stateMutability": "view",
      "type": "function"
    },
    {
      "constant": false,
      "inputs": [
        {
          "internalType": "address",
          "name": "newOwner",
          "type": "address"
        }
      ],
      "name": "transferOwnership",
      "outputs": [],
      "payable": false,
      "stateMutability": "nonpayable",
      "type": "function"
    },
    {
      "constant": false,
      "inputs": [],
      "name": "unpause",
      "outputs": [],
      "payable": false,
      "stateMutability": "nonpayable",
      "type": "function"
    },
    {
      "constant": false,
      "inputs": [
        {
          "internalType": "uint256",
          "name": "fee",
          "type": "uint256"
        }
      ],
      "name": "setRegistrationFee",
      "outputs": [],
      "payable": false,
      "stateMutability": "nonpayable",
      "type": "function"
    },
    {
      "constant": false,
      "inputs": [
        {
          "internalType": "uint256",
          "name": "fee",
          "type": "uint256"
        }
      ],
      "name": "setSubscriptionFeeTotal",
      "outputs": [],
      "payable": false,
      "stateMutability": "nonpayable",
      "type": "function"
    },
    {
      "constant": false,
      "inputs": [
        {
          "internalType": "bytes32",
          "name": "_deviceIdHash",
          "type": "bytes32"
        }
      ],
      "name": "preRegisterDevice",
      "outputs": [
        {
          "internalType": "bool",
          "name": "",
          "type": "bool"
        }
      ],
      "payable": false,
      "stateMutability": "nonpayable",
      "type": "function"
    },
    {
      "constant": false,
      "inputs": [
        {
          "internalType": "bytes32",
          "name": "_deviceId",
          "type": "bytes32"
        },
        {
          "internalType": "bytes32",
          "name": "_devicePublicKey",
          "type": "bytes32"
        },
        {
          "internalType": "uint256",
          "name": "_freq",
          "type": "uint256"
        },
        {
          "internalType": "bytes32",
          "name": "_dimensions",
          "type": "bytes32"
        },
        {
          "internalType": "string",
          "name": "_spec",
          "type": "string"
        },
        {
          "internalType": "uint256",
          "name": "_price",
          "type": "uint256"
        }
      ],
      "name": "registerDevice",
      "outputs": [
        {
          "internalType": "bool",
          "name": "",
          "type": "bool"
        }
      ],
      "payable": true,
      "stateMutability": "payable",
      "type": "function"
    },
    {
      "constant": false,
      "inputs": [
        {
          "internalType": "bytes32",
          "name": "_deviceId",
          "type": "bytes32"
        },
        {
          "internalType": "bytes32",
          "name": "_storageEPoint",
          "type": "bytes32"
        },
        {
          "internalType": "string",
          "name": "_storageToken",
          "type": "string"
        },
        {
          "internalType": "uint256",
          "name": "_duration",
          "type": "uint256"
        }
      ],
      "name": "subscribe",
      "outputs": [
        {
          "internalType": "bool",
          "name": "",
          "type": "bool"
        }
      ],
      "payable": true,
      "stateMutability": "payable",
      "type": "function"
    },
    {
      "constant": false,
      "inputs": [
        {
          "internalType": "bytes32",
          "name": "_deviceId",
          "type": "bytes32"
        }
      ],
      "name": "claim",
      "outputs": [
        {
          "internalType": "bool",
          "name": "",
          "type": "bool"
        }
      ],
      "payable": false,
      "stateMutability": "nonpayable",
      "type": "function"
    },
    {
      "constant": false,
      "inputs": [],
      "name": "collectFees",
      "outputs": [],
      "payable": false,
      "stateMutability": "nonpayable",
      "type": "function"
    }
  ],
  "bytecode": "0x608060405260008060146101000a81548160ff02191690831515021790555034801561002a57600080fd5b50336000806101000a81548173ffffffffffffffffffffffffffffffffffffffff021916908373ffffffffffffffffffffffffffffffffffffffff160217905550611e078061007a6000396000f3fe6080604052600436106101145760003560e01c80637ca4d124116100a0578063c5c400de11610064578063c5c400de146105c5578063c879657214610749578063cc9e7d7714610760578063f2fde38b146107b3578063f3d728f11461080457610114565b80637ca4d124146104765780638456cb59146104c95780638da5cb5b146104e0578063bd66528a14610537578063c320c7271461058a57610114565b806314c44e09116100e757806314c44e09146102af578063182a2858146102da5780633f4ba83a146103cb5780635c975abb146103e257806370a082311461041157610114565b80630205d1b11461011957806307a3a093146101545780630a00eba8146102595780630aa0a17514610284575b600080fd5b34801561012557600080fd5b506101526004803603602081101561013c57600080fd5b810190808035906020019092919050505061082f565b005b61023f600480360360c081101561016a57600080fd5b8101908080359060200190929190803590602001909291908035906020019092919080359060200190929190803590602001906401000000008111156101af57600080fd5b8201836020820111156101c157600080fd5b803590602001918460018302840111640100000000831117156101e357600080fd5b91908080601f016020809104026020016040519081016040528093929190818152602001838380828437600081840152601f19601f82011690508083019250505050505050919291929080359060200190929190505050610892565b604051808215151515815260200191505060405180910390f35b34801561026557600080fd5b5061026e610d93565b6040518082815260200191505060405180910390f35b34801561029057600080fd5b50610299610d99565b6040518082815260200191505060405180910390f35b3480156102bb57600080fd5b506102c4610d9f565b6040518082815260200191505060405180910390f35b6103b1600480360360808110156102f057600080fd5b8101908080359060200190929190803590602001909291908035906020019064010000000081111561032157600080fd5b82018360208201111561033357600080fd5b8035906020019184600183028401116401000000008311171561035557600080fd5b91908080601f016020809104026020016040519081016040528093929190818152602001838380828437600081840152601f19601f82011690508083019250505050505050919291929080359060200190929190505050610da5565b604051808215151515815260200191505060405180910390f35b3480156103d757600080fd5b506103e06111e7565b005b3480156103ee57600080fd5b506103f76112a1565b604051808215151515815260200191505060405180910390f35b34801561041d57600080fd5b506104606004803603602081101561043457600080fd5b81019080803573ffffffffffffffffffffffffffffffffffffffff1690602001909291905050506112b4565b6040518082815260200191505060405180910390f35b34801561048257600080fd5b506104af6004803603602081101561049957600080fd5b81019080803590602001909291905050506112cc565b604051808215151515815260200191505060405180910390f35b3480156104d557600080fd5b506104de6113a1565b005b3480156104ec57600080fd5b506104f561145d565b604051808273ffffffffffffffffffffffffffffffffffffffff1673ffffffffffffffffffffffffffffffffffffffff16815260200191505060405180910390f35b34801561054357600080fd5b506105706004803603602081101561055a57600080fd5b8101908080359060200190929190505050611482565b604051808215151515815260200191505060405180910390f35b34801561059657600080fd5b506105c3600480360360208110156105ad57600080fd5b8101908080359060200190929190505050611830565b005b3480156105d157600080fd5b506105fe600480360360208110156105e857600080fd5b8101908080359060200190929190505050611893565b604051808b81526020018a8152602001898152602001806020018881526020018773ffffffffffffffffffffffffffffffffffffffff1673ffffffffffffffffffffffffffffffffffffffff1681526020018681526020018581526020018060200184815260200183810383528a818151815260200191508051906020019080838360005b8381101561069e578082015181840152602081019050610683565b50505050905090810190601f1680156106cb5780820380516001836020036101000a031916815260200191505b50838103825285818151815260200191508051906020019080838360005b838110156107045780820151818401526020810190506106e9565b50505050905090810190601f1680156107315780820380516001836020036101000a031916815260200191505b509c5050505050505050505050505060405180910390f35b34801561075557600080fd5b5061075e611a37565b005b34801561076c57600080fd5b506107996004803603602081101561078357600080fd5b8101908080359060200190929190505050611b02565b604051808215151515815260200191505060405180910390f35b3480156107bf57600080fd5b50610802600480360360208110156107d657600080fd5b81019080803573ffffffffffffffffffffffffffffffffffffffff169060200190929190505050611b22565b005b34801561081057600080fd5b50610819611c73565b6040518082815260200191505060405180910390f35b6000809054906101000a900473ffffffffffffffffffffffffffffffffffffffff1673ffffffffffffffffffffffffffffffffffffffff163373ffffffffffffffffffffffffffffffffffffffff161461088857600080fd5b8060058190555050565b60008060149054906101000a900460ff16156108ad57600080fd5b60026000886040516020018082815260200191505060405160208183030381529060405280519060200120815260200190815260200160002060009054906101000a900460ff16610966576040517f08c379a000000000000000000000000000000000000000000000000000000000815260040180806020018281038252600e8152602001807f6964206e6f7720616c6c6f77656400000000000000000000000000000000000081525060200191505060405180910390fd5b6000801b600160008981526020019081526020016000206000015414156109f5576040517f08c379a00000000000000000000000000000000000000000000000000000000081526004018080602001828103825260128152602001807f616c72656164792072656769737465726564000000000000000000000000000081525060200191505060405180910390fd5b6000801b861415610a6e576040517f08c379a000000000000000000000000000000000000000000000000000000000815260040180806020018281038252601d8152602001807f646576696365207075626c6963206b657920697320726571756972656400000081525060200191505060405180910390fd5b6000851015610ae5576040517f08c379a000000000000000000000000000000000000000000000000000000000815260040180806020018281038252601e8152602001807f6672657175656e6365206e6565647320746f20626520706f736974697665000081525060200191505060405180910390fd5b6000835111610b5c576040517f08c379a00000000000000000000000000000000000000000000000000000000081526004018080602001828103825260148152602001807f737065632075726c20697320726571756972656400000000000000000000000081525060200191505060405180910390fd5b600454341015610bd4576040517f08c379a000000000000000000000000000000000000000000000000000000000815260040180806020018281038252600e8152602001807f6e6f7420656e6f7567682066656500000000000000000000000000000000000081525060200191505060405180910390fd5b34600460008282540192505081905550600060026000896040516020018082815260200191505060405160208183030381529060405280519060200120815260200190815260200160002060006101000a81548160ff0219169083151502179055506040518061014001604052808781526020018681526020018581526020018481526020018381526020013373ffffffffffffffffffffffffffffffffffffffff168152602001600081526020016000801b81526020016040518060200160405280600081525081526020016000815250600160008981526020019081526020016000206000820151816000015560208201518160010155604082015181600201556060820151816003019080519060200190610cf3929190611cad565b506080820151816004015560a08201518160050160006101000a81548173ffffffffffffffffffffffffffffffffffffffff021916908373ffffffffffffffffffffffffffffffffffffffff16021790555060c0820151816006015560e08201518160070155610100820151816008019080519060200190610d76929190611cad565b506101208201518160090155905050600190509695505050505050565b60075481565b60055481565b60045481565b60008060149054906101000a900460ff1615610dc057600080fd5b6000801b60016000878152602001908152602001600020600001541415610e4f576040517f08c379a000000000000000000000000000000000000000000000000000000000815260040180806020018281038252600f8152602001807f6e6f20737563682061206476696365000000000000000000000000000000000081525060200191505060405180910390fd5b6000801b841415610ec8576040517f08c379a000000000000000000000000000000000000000000000000000000000815260040180806020018281038252601c8152602001807f73746f7261676520656e64706f696e742069732072657175697265640000000081525060200191505060405180910390fd5b6000835111610f3f576040517f08c379a00000000000000000000000000000000000000000000000000000000081526004018080602001828103825260208152602001807f73746f726167652061636365737320746f6b656e20697320726571756972656481525060200191505060405180910390fd5b6000821015610fb6576040517f08c379a00000000000000000000000000000000000000000000000000000000081526004018080602001828103825260148152602001807f6475726174696f6e20697320726571756972656400000000000000000000000081525060200191505060405180910390fd5b610fdf600160008781526020019081526020016000206004015483611c7990919063ffffffff16565b60055401341015611058576040517f08c379a000000000000000000000000000000000000000000000000000000000815260040180806020018281038252600e8152602001807f6e6f7420656e6f7567682066656500000000000000000000000000000000000081525060200191505060405180910390fd5b43600160008781526020019081526020016000206009015460016000888152602001908152602001600020600601540110156110fc576040517f08c379a000000000000000000000000000000000000000000000000000000000815260040180806020018281038252601e8152602001807f7468652064657669636520686173206265656e2073756273637269626564000081525060200191505060405180910390fd5b6005546007600082825401925050819055506005543403600360003373ffffffffffffffffffffffffffffffffffffffff1673ffffffffffffffffffffffffffffffffffffffff16815260200190815260200160002060008282540192505081905550436001600087815260200190815260200160002060060181905550836001600087815260200190815260200160002060070181905550826001600087815260200190815260200160002060080190805190602001906111bf929190611d2d565b5081600160008781526020019081526020016000206009018190555060019050949350505050565b6000809054906101000a900473ffffffffffffffffffffffffffffffffffffffff1673ffffffffffffffffffffffffffffffffffffffff163373ffffffffffffffffffffffffffffffffffffffff161461124057600080fd5b600060149054906101000a900460ff1661125957600080fd5b60008060146101000a81548160ff0219169083151502179055507f7805862f689e2f13df9f062ff482ad3ad112aca9e0847911ed832e158c525b3360405160405180910390a1565b600060149054906101000a900460ff1681565b60036020528060005260406000206000915090505481565b60008060009054906101000a900473ffffffffffffffffffffffffffffffffffffffff1673ffffffffffffffffffffffffffffffffffffffff163373ffffffffffffffffffffffffffffffffffffffff161461132757600080fd5b600060149054906101000a900460ff161561134157600080fd5b6002600083815260200190815260200160002060009054906101000a900460ff161561136c57600080fd5b60016002600084815260200190815260200160002060006101000a81548160ff02191690831515021790555060019050919050565b6000809054906101000a900473ffffffffffffffffffffffffffffffffffffffff1673ffffffffffffffffffffffffffffffffffffffff163373ffffffffffffffffffffffffffffffffffffffff16146113fa57600080fd5b600060149054906101000a900460ff161561141457600080fd5b6001600060146101000a81548160ff0219169083151502179055507f6985a02210a168e66602d3235cb6db0e70f92b3ba4d376a33c0f3d9434bff62560405160405180910390a1565b6000809054906101000a900473ffffffffffffffffffffffffffffffffffffffff1681565b60008060149054906101000a900460ff161561149d57600080fd5b6000801b6001600084815260200190815260200160002060000154141561152c576040517f08c379a000000000000000000000000000000000000000000000000000000000815260040180806020018281038252600f8152602001807f6e6f20737563682061206476696365000000000000000000000000000000000081525060200191505060405180910390fd5b43600160008481526020019081526020016000206009015460016000858152602001908152602001600020600601540110156115d0576040517f08c379a000000000000000000000000000000000000000000000000000000000815260040180806020018281038252601e8152602001807f7468652064657669636520686173206265656e2073756273637269626564000081525060200191505060405180910390fd5b3373ffffffffffffffffffffffffffffffffffffffff166001600084815260200190815260200160002060050160009054906101000a900473ffffffffffffffffffffffffffffffffffffffff1673ffffffffffffffffffffffffffffffffffffffff16146116a7576040517f08c379a00000000000000000000000000000000000000000000000000000000081526004018080602001828103825260088152602001807f6e6f206f776e657200000000000000000000000000000000000000000000000081525060200191505060405180910390fd5b6000600360003373ffffffffffffffffffffffffffffffffffffffff1673ffffffffffffffffffffffffffffffffffffffff168152602001908152602001600020541161175c576040517f08c379a000000000000000000000000000000000000000000000000000000000815260040180806020018281038252600a8152602001807f6e6f2062616c616e63650000000000000000000000000000000000000000000081525060200191505060405180910390fd5b6000600360003373ffffffffffffffffffffffffffffffffffffffff1673ffffffffffffffffffffffffffffffffffffffff168152602001908152602001600020819055503373ffffffffffffffffffffffffffffffffffffffff166108fc600360003373ffffffffffffffffffffffffffffffffffffffff1673ffffffffffffffffffffffffffffffffffffffff168152602001908152602001600020549081150290604051600060405180830381858888f19350505050158015611826573d6000803e3d6000fd5b5060019050919050565b6000809054906101000a900473ffffffffffffffffffffffffffffffffffffffff1673ffffffffffffffffffffffffffffffffffffffff163373ffffffffffffffffffffffffffffffffffffffff161461188957600080fd5b8060048190555050565b6001602052806000526040600020600091509050806000015490806001015490806002015490806003018054600181600116156101000203166002900480601f0160208091040260200160405190810160405280929190818152602001828054600181600116156101000203166002900480156119515780601f1061192657610100808354040283529160200191611951565b820191906000526020600020905b81548152906001019060200180831161193457829003601f168201915b5050505050908060040154908060050160009054906101000a900473ffffffffffffffffffffffffffffffffffffffff1690806006015490806007015490806008018054600181600116156101000203166002900480601f016020809104026020016040519081016040528092919081815260200182805460018160011615610100020316600290048015611a275780601f106119fc57610100808354040283529160200191611a27565b820191906000526020600020905b815481529060010190602001808311611a0a57829003601f168201915b505050505090806009015490508a565b6000809054906101000a900473ffffffffffffffffffffffffffffffffffffffff1673ffffffffffffffffffffffffffffffffffffffff163373ffffffffffffffffffffffffffffffffffffffff1614611a9057600080fd5b60006007546006540111611aa357600080fd5b600060068190555060006007819055503373ffffffffffffffffffffffffffffffffffffffff166108fc600754600654019081150290604051600060405180830381858888f19350505050158015611aff573d6000803e3d6000fd5b50565b60026020528060005260406000206000915054906101000a900460ff1681565b6000809054906101000a900473ffffffffffffffffffffffffffffffffffffffff1673ffffffffffffffffffffffffffffffffffffffff163373ffffffffffffffffffffffffffffffffffffffff1614611b7b57600080fd5b600073ffffffffffffffffffffffffffffffffffffffff168173ffffffffffffffffffffffffffffffffffffffff161415611bb557600080fd5b8073ffffffffffffffffffffffffffffffffffffffff166000809054906101000a900473ffffffffffffffffffffffffffffffffffffffff1673ffffffffffffffffffffffffffffffffffffffff167f8be0079c531659141344cd1fd0a4f28419497f9722a3daafe3b4186f6b6457e060405160405180910390a3806000806101000a81548173ffffffffffffffffffffffffffffffffffffffff021916908373ffffffffffffffffffffffffffffffffffffffff16021790555050565b60065481565b600080831415611c8c5760009050611ca7565b818302905081838281611c9b57fe5b0414611ca357fe5b8090505b92915050565b828054600181600116156101000203166002900490600052602060002090601f016020900481019282601f10611cee57805160ff1916838001178555611d1c565b82800160010185558215611d1c579182015b82811115611d1b578251825591602001919060010190611d00565b5b509050611d299190611dad565b5090565b828054600181600116156101000203166002900490600052602060002090601f016020900481019282601f10611d6e57805160ff1916838001178555611d9c565b82800160010185558215611d9c579182015b82811115611d9b578251825591602001919060010190611d80565b5b509050611da99190611dad565b5090565b611dcf91905b80821115611dcb576000816000905550600101611db3565b5090565b9056fea265627a7a723158205aae430f76ca5418fe755c88f72427fab758581be254b61bf200aa662533f7b364736f6c634300050c0032",
  "source": "pragma solidity <6.0 >=0.4.24;\n\nimport \"./Pausable.sol\";\nimport \"./SafeMath.sol\";\n\n\ncontract Prophecy is Pausable {\n  using SafeMath for uint256;\n\n  /// STORAGE MAPPINGS\n  mapping (bytes32 => Device) public devices;\n  mapping (bytes32 => bool) public allowedIDHashes; // allowed hashes of IDs\n  mapping (address => uint256) public  balanceOf;   // unclaimed payments\n\n  uint256 public registrationFee;  // start with 0\n  uint256 public subscriptionFee;  // start with 0\n  uint256 public registrationFeeTotal;\n  uint256 public subscriptionFeeTotal;\n\n  /// TYPES\n  struct Device {\n      // Intrinsic properties of the device\n      bytes32 devicePublicKey;\n      // ServiceLevelAgreement\n      uint256 freq;         //  how many seconds per data point\n      bytes32 dimensions;   //  we need an encoding rule for this\n      string  spec;         //  link to the spec\n      uint256 pricePerBlock; // IOTX\n      address owner;    // owner's address\n\n      // Order info\n      uint256 startHeight;\n      bytes32 storageEPoint;\n      string  storageToken;\n      uint256 duration;\n  }\n\n  // CONSTRUCTOR\n  constructor () public {\n  }\n\n  // EXTERNAL FUNCTIONS\n  function setRegistrationFee(uint256 fee) public onlyOwner {\n    registrationFee = fee;\n  }\n\n  function setSubscriptionFeeTotal(uint256 fee) public onlyOwner {\n    subscriptionFee = fee;\n  }\n\n  // Populate the whitelist after manufacturing\n  function preRegisterDevice(bytes32 _deviceIdHash)\n    public onlyOwner whenNotPaused returns (bool)\n    {\n      require(!allowedIDHashes[_deviceIdHash]);\n\n      allowedIDHashes[_deviceIdHash] = true;\n      return true;\n    }\n\n  // Pay to Register the device\n  function registerDevice(\n    bytes32 _deviceId,\n    bytes32 _devicePublicKey,\n    uint256 _freq,\n    bytes32 _dimensions,\n    string memory _spec,\n    uint256 _price\n    )\n    public whenNotPaused payable returns (bool)\n    {\n      require(allowedIDHashes[keccak256(abi.encodePacked(_deviceId))], \"id now allowed\");\n      require(devices[_deviceId].devicePublicKey != 0, \"already registered\");\n      require(_devicePublicKey != 0, \"device public key is required\");\n      require(_freq >= 0, \"frequence needs to be positive\");\n      require(bytes(_spec).length > 0, \"spec url is required\");\n      require(msg.value >= registrationFee, \"not enough fee\");\n\n      registrationFee += msg.value;\n      allowedIDHashes[keccak256(abi.encodePacked(_deviceId))] = false;\n      devices[_deviceId] = Device(_devicePublicKey, _freq, _dimensions, _spec,\n        _price, msg.sender, 0, 0, \"\", 0);\n      return true;\n    }\n\n  // Pay to subscribe to the device's data stream\n  function subscribe(\n    bytes32 _deviceId,\n    bytes32 _storageEPoint,\n    string memory _storageToken,\n    uint256 _duration\n    ) public whenNotPaused payable returns (bool)\n  {\n    require(devices[_deviceId].devicePublicKey != 0, \"no such a dvice\");\n    require(_storageEPoint != 0, \"storage endpoint is required\");\n    require(bytes(_storageToken).length > 0, \"storage access token is required\");\n    require(_duration >= 0, \"duration is required\");\n    require(msg.value >= subscriptionFee + _duration.mul(devices[_deviceId].pricePerBlock), \"not enough fee\");\n    require(devices[_deviceId].startHeight + devices[_deviceId].duration >= block.number, \"the device has been subscribed\");\n\n    subscriptionFeeTotal += subscriptionFee;\n    balanceOf[msg.sender] += msg.value - subscriptionFee;\n    devices[_deviceId].startHeight = block.number;\n    devices[_deviceId].storageEPoint = _storageEPoint;\n    devices[_deviceId].storageToken = _storageToken;\n    devices[_deviceId].duration = _duration;\n    return true;\n  }\n\n  // Device owner claims the payment after its matured\n  function claim(bytes32 _deviceId) public whenNotPaused returns (bool)\n  {\n    require(devices[_deviceId].devicePublicKey != 0, \"no such a dvice\");\n    require(devices[_deviceId].startHeight + devices[_deviceId].duration >= block.number, \"the device has been subscribed\");\n    require(devices[_deviceId].owner == msg.sender, \"no owner\");\n    require(balanceOf[msg.sender] >0, \"no balance\");\n\n    balanceOf[msg.sender] = 0;\n    msg.sender.transfer(balanceOf[msg.sender]);\n    return true;\n  }\n\n  function collectFees() onlyOwner public {\n    require(registrationFeeTotal + subscriptionFeeTotal > 0);\n\n    registrationFeeTotal = 0;\n    subscriptionFeeTotal = 0;\n    msg.sender.transfer(registrationFeeTotal + subscriptionFeeTotal);\n  }\n\n  // INTERNAL FUNCTIONS\n\n}\n",
  "sourcePath": "/Users/rc7/work/src/github.com/iotexproject/prophecy/contracts/contracts/Prophecy.sol",
  "compiler": {
    "name": "solc",
    "version": "0.5.12+commit.7709ece9.Emscripten.clang"
  },
  "schemaVersion": "3.0.18",
  "updatedAt": "2020-10-27T23:11:14.046Z",
  "devdoc": {
    "methods": {
      "pause()": {
        "details": "called by the owner to pause, triggers stopped state"
      },
      "transferOwnership(address)": {
        "details": "Allows the current owner to transfer control of the contract to a newOwner.",
        "params": {
          "newOwner": "The address to transfer ownership to."
        }
      },
      "unpause()": {
        "details": "called by the owner to unpause, returns to normal state"
      }
    }
  },
  "userdoc": {
    "methods": {}
  }
}